FHI00000000000000251120220000000000005101417         00                                                                                                                                            
FPI10000000000000241120220000000000005101417                                                                                                                                                       
FP9536381703CP2211       656391662311202225122022 5G0/  907225/A /9B9ADORNO       3926909000097500000000319000000001310000000326700000010000030002991575611000000      00000000000000      011102  
FP9536381703CP2211       656395182311202225122022 5G0/  853675/AC/JZQLOGOTIPO     3926909000097500000001723000000007070000001767100000010000005002993644811000000      00000000000000      011102  
FP9536491201Est2311      656400232411202226122022 5U0/  821022/  /   paralama     8708299100032500000000890000000032870000002739300000010001770002993816201000000      00000000000000      011102  
FP9536161501PN2111       656400542411202226122022 2GP/  807417/  /GRUCOBERTURA    8708100000032500000002992000000110450000009204300000010001938002994015101000000      00000000000000      011102  
FP9536161501PN2111       656400542411202226122022 2GP/  807417/  /GRUCOBERTURA    8708100000032500000002992000000110450000009204300000010001938002994015201000000      00000000000000      011102  
FP9536491201Est2311      656400622411202226122022 5Z0/  819415/  /   DEFLETOR     8708299900032500000000380000000014040000001170400000030000400002993669901000000      00000000000000      011102  
FP9536538901PN23090      656400822411202226122022 5U0/  809961/D /   PROTETOR     8708299900032500000000906000000033440000002786600000050000934002993993701000000      00000000000000      011102  
FP9536538901PN23090      656401212411202226122022 6EA/  805911/A /   COBERTURA    8708299900032500000001529000000056450000004704400000040001474002993991701000000      00000000000000      011102  
FP9536161501PN2111       656403492411202226122022 5U3/  845021/A /   VIDRO        8708220000032500000000358000000013230000001102400000010002830002993574501000000      00000000000000      011102  
FP9536491201Est2311      656403762411202226122022 6EC/  833055/C /GRUPORTA        8708299300032500000002641000000097520000008126800000010011415002986431601000000      00000000000000      011102  
FP9536491201Est2311      656405462411202226122022 6EA/  833055/L /GRUPORTA        8708299300032500000001632000000060270000005022200000010010370002994278501000000      00000000000000      011102  
FP9536491201Est2311      656405462411202226122022 6EA/  833055/L /GRUPORTA        8708299300032500000001632000000060270000005022200000010010370002994278601000000      00000000000000      011102  
FP9536491201Est2311      656405462411202226122022 6EA/  833055/L /GRUPORTA        8708299300032500000001632000000060270000005022200000010010370002994278801000000      00000000000000      011102  
FP9536558703CP2311       656405872411202226122022 5Z6/  813114/  /GRUTRASEIRO     8708299300032500000001063000000039240000003269800000010006022002992398201000000      00000000000000      011102  
FP9536538901PN23090      656409282411202226122022 2GP/  821106/  /GRUparalama     8708299100032500000002230000000082350000006862300000010003896002994406001000000      00000000000000      011102  
FP9536538901PN23090      656409282411202226122022 2GP/  821106/  /GRUparalama     8708299100032500000002230000000082350000006862300000010003896002994406101000000      00000000000000      011102  
FP9536538901PN23090      656409282411202226122022 2GP/  805588/C /   SUPORTE      8708299900032500000003137000000115810000009651100000010003838002994406701000000      00000000000000      011102  
FP9536491201Est2311      656409932411202226122022 5Q0/  121251/HS/   RADIADOR     8708910000032500000003252000000040020000010005900000010002186002994360511000000      00000000000000      011102  
FP9536491201Est2311      656409962411202226122022 5U4/  833056/D /GRUPORTA        8708299300032500000003561000000131490000010957400000010012600002994280901000000      00000000000000      011102  
FP9536538901PN23090      656415102411202226122022 5U0/  407152/C /   BARRA        8708509900032500000000992000000036610000003051000000010002586002993925501000000      00000000000000      011102  
FP9536538901PN23090      656415102411202226122022 5U0/  853677/D /9B9GRADE        8708100000032500000000310000000011460000000954900000010000910002993925501000000      00000000000000      011102  
FP9536538901PN23090      656415102411202226122022 5U0/  853666/B /1NNGRADE        8708100000032500000000269000000009920000000827000000020000480002993925501000000      00000000000000      011102  
FP9536538901PN23090      656415102411202226122022 04E/  121600/CJ/   bomba agua   8413309000032500000006294000000232380000019365300000030004506002993925501000000      00000000000000      011102  
FP9536538901PN23090      656415102411202226122022 6EA/  806930/A /   TIRANTE      8708299900032500000000055000000002030000000168800000010000345002993925501000000      00000000000000      011102  
FP9535920811             656415112411202226122022 0C6/  141465/B /   RESPIRO      8481400000000000000000000000000005700000001425700000010000050002993925511000000      00000000000000      011102  
FP9527746211             656415122411202226122022 5U0/  937537/A /   CAIXA        8536410000032500000000710000000026230000002185700000010000245002993925501000000      00000000000000      011102  
FP9532351511             656415122411202226122022 5U0/  937537/A /   CAIXA        8536410000032500000000710000000026230000002185700000010000245002993925501000000      00000000000000      011102  
FP9535205711             656415122411202226122022 5U0/  937537/A /   CAIXA        8536410000032500000000710000000026230000002185700000010000245002993925501000000      00000000000000      011102  
FP9530697201PN28096      656415132411202226122022 0C6/  141465/B /   RESPIRO      8481400000000000000000000000000005820000001454800000010000050002993925511000000      00000000000000      011102  
FP9536161501PN2111       656415132411202226122022 0C6/  141465/B /   RESPIRO      8481400000000000000000000000000005820000001454800000010000050002993925511000000      00000000000000      011102  
FP9536161501PN2111       656415132411202226122022 5Q0/  122291/DA/   CONEXAO      3917409000000000000000000000000002900000000724300000010000096002993925511000000      00000000000000      011102  
FP9536161501PN2111       656415142411202226122022 032/  103383/N /   JUNTA CABE   8484100000078000000006886000000105930000008827800000100000077002993925501000000      00000000000000      011102  
FP9533214501PN21101      656415142411202226122022 5U0/  937537/A /   CAIXA        8536410000032500000000725000000026760000002230200000010000025002993925500000000      00000000000000      011102  
FP9536538901PN23090      656415142411202226122022 032/  103383/N /   JUNTA CABE   8484100000078000000006886000000105930000008827800000100000077002993925501000000      00000000000000      011102  
FP9536161501PN2111       656415152411202226122022 5Z0/  422893/Q /   MANGUEIRA    8708949000032500000001569000000057930000004827900000020001035002993925501000000      00000000000000      011102  
FP9536491201Est2311      656415152411202226122022 5Z0/  819403/A /9B9DEFLETOR     8708299900032500000000094000000003490000000290700000010000114002993925501000000      00000000000000      011102  
FP9536491201Est2311      656415152411202226122022 5Z0/  819404/A /9B9DEFLETOR     8708299900032500000000089000000003290000000274000000010000120002993925501000000      00000000000000      011102  
FP9536538901PN23090      656415152411202226122022 03L/  130111/G /   POLIA        8483501000078000000002026000000010390000002597700000010000099002993925511000000      00000000000000      011102  
FPF100000000000040                                                                                                                                                                                 
FPI00000000000000241120220000000000005101417                                                                                                                                                       
FP5536602501PN24112      2411202224112022 04E/  129620/  /   00004000000000                     00000000000000                     00000000000000                                          220800  
FP5536665203CP2411       2411202224112022 6Q6/  945095/AB/   00000010000001  6EA/  941531/C /AYV00000010000000  2QB/  253181/BG/   00000010000000                                          220800  
FP6519983301FE2706       27062022 ASE/  485432/00/000000000100000058398                    000000000000000000                    000000000000000000B                                               
FP6528269101PN06091      06092022 2GP/  806930/B /   000000100000013660 2H1/  941016/L /   000000100000064591 5Z0/  941008/A /   000000100000071064B                                               
FP6528269101PN06091      06092022 5Z6/  945106/A /   000000100000004536 APR/  807221/Q /GRU000000600000081081                    000000000000000000B                                               
FP6528736401PN1209       12092022 6Q0/  411314/Q /   000001000000002338 5Z4/  853515/G /GRU000000100000008830 5Z0/  853671/  /9B9000000100000149765B                                               
FP6528736401PN1209       12092022 5U1/  880202/F /QL2000000100000041247 2GP/  806930/B /   000000200000013659                    000000000000000000B                                               
FP6529903101PN2109       21092022 032/  109101/AG/   000000100000040776 5Q0/  407621/F /   000000200000084658                    000000000000000000B                                               
FP6529951611             21092022 5Q0/  407621/F /   000000300000082964                    000000000000000000                    000000000000000000B                                               
FP6530427803CP2609       26092022 1S0/  407256/L /   000000100000021813                    000000000000000000                    000000000000000000B                                               
FP6530697201PN28096      28092022 6EA/  853601/  /2ZZ000000400000005855 6EA/  823031/  /GRU000000100000124121 5Z6/  945106/A /   000000100000004536B                                               
FP6530697201PN28096      28092022 5Z1/  941007/M /   000000100000062328 5Z0/  807221/Q /GRU000000100000098513 2H1/  941016/L /   000000100000064591B                                               
FP6530697201PN28096      28092022 2GP/  998002/A /   000000500000007144 2G5/  805911/A /   000000100000005822 032/  121026/CP/   000004000000023058B                                               
FP6530697201PN28096      28092022 032/  109101/AG/   000000100000040776   G/  052150/A2/   000000100000007732   D/  169300/M2/   000000400000009545B                                               
FP6530707103CP2809       28092022   G/  052539/A2/   000000100000025435   G/  052539/A2/   000000100000025435                    000000000000000000B                                               
FP6531061401767703       30092022 2G5/  805911/A /   000000300000005822                    000000000000000000                    000000000000000000B                                               
FP6531138901Bestdrive 30.30092022 6EA/  071310/A /   000000100000010291                    000000000000000000                    000000000000000000B                                               
FP6531278401FE0310       03102022 ASE/  401574/01/000000000100000049040 ASE/  401576/01/000000000100000048731 ASE/  401605/00/000000000100000078242B                                               
FP6531431903CP0410       04102022 04C/  109108/E /   000000100000016910 2QB/  423530/J /   000000100000361413 5Z0/  807221/AD/GRU000000100000063919B                                               
FP6531475611             04102022 811/  711597/  /   000005000000000204                    000000000000000000                    000000000000000000B                                               
FP6532079703CP1110       11102022 1JE/  945096/E /   000000100000040366 5C6/  827705/A /5AP000000100000033043                    000000000000000000B                                               
FP6532292803CP1310       13102022 2Q0/  937132/A /   000000100000005469                    000000000000000000                    000000000000000000B                                               
FP6532351511             13102022 030/  109243/Q /   000001400000011130                    000000000000000000                    000000000000000000B                                               
FP6532520911             14102022 5Z0/  412331/C /   000000200000008054                    000000000000000000                    000000000000000000B                                               
FP6532641103CP1710       17102022 1JE/  853658/  /   000000100000007507 1K8/  827761/D /   000000100000004984 1SB/  880201/J /81U000000100000041963B                                               
FP6532641103CP1710       17102022 5Z0/  807109/E /GRU000000100000047259 5Z6/  945106/A /   000000100000004536 6QE/  805588/C /   000000100000106816B                                               
FP6532675811             17102022 5U7/  945095/B /   000000200000022235                    000000000000000000                    000000000000000000B                                               
FP6532806303CP1810       18102022 1SB/  819703/  /ITZ000000100000003613 1SB/  941016/A /   000000100000034011 2GM/  821136/  /GRU000000100000004498B                                               
FP6532806303CP1810       18102022 2H1/  941016/L /   000000100000064591                    000000000000000000                    000000000000000000B                                               
FP6532868501PN1910       19102022   G/  052565/A1/   000000500000018195 1SB/  941015/  /   000000100000037872 1SB/  941016/  /   000000100000037872B                                               
FP6532868501PN1910       19102022 2GP/  806929/B /   000000100000013660 2GP/  880204/F /   000000100000034132 5NN/  941113/C /   000000100000730293B                                               
FP6532868501PN1910       19102022 5NN/  941114/C /   000000100000686922 5U5/  803703/  /CTR000000100000011409                    000000000000000000B                                               
FP6533107903CP2010       20102022 2GP/  827577/  /FOD000000100000085650                    000000000000000000                    000000000000000000B                                               
FP6533214501PN21101      21102022   D/  169300/M2/   000000400000009545 032/  109101/AG/   000000200000040776 04C/  129620/A /   000004000000003419B                                               
FP6533214501PN21101      21102022 04E/  145933/M /   000000200000006715 06K/  109467/Q /   000000300000034463 1SB/  941015/  /   000000100000037872B                                               
FP6533214501PN21101      21102022 2G0/  941661/  /   000000100000046484 2G5/  805912/A /   000000200000005823 2Q0/  698451/B /   000000400000021793B                                               
FP6533214501PN21101      21102022 5U0/  121253/C /   000000300000047054 5U1/  880202/F /QL2000000100000041247 5U7/  945095/C /   000000100000025322B                                               
FP6533214501PN21101      21102022 5Z0/  807221/Q /GRU000000200000098512 5Z0/  853671/D /EDW000000200000013844 5Z1/  423057/B /   000000200000137641B                                               
FP6533214501PN21101      21102022 6EA/  823031/  /GRU000000600000124121 6EA/  853601/  /2ZZ000000200000005855 6EA/  941006/D /   000000100000060068B                                               
FP6533248903CP2110       21102022 2QB/  423510/Q /   000000100000281574                    000000000000000000                    000000000000000000B                                               
FP6533441711             24102022 04E/  998907/A /   000000400000012619                    000000000000000000                    000000000000000000B                                               
FP6533594703CP2510       25102022 2GP/  810395/  /GRU000000100000000789 17A/  867501/P /RN3000000100000240557                    000000000000000000B                                               
FP6533627201PN2510       26102022 030/  109243/Q /   000001300000011357 032/  109101/AG/   000000100000040776 17A/  837701/B /5AP000000100000023896B                                               
FP6533627201PN2510       26102022 17B/  955426/  /03C000000100000012511 1S0/  407151/A /   000000100000007794 1SB/  941015/F /   000000100000036526B                                               
FP6533627201PN2510       26102022 1SB/  941016/  /   000000100000037872 1SB/  941016/F /   000000100000036526 2GK/  941774/B /   000000100000421077B                                               
FP6533627201PN2510       26102022 2GM/  821135/  /GRU000000100000004498 2GP/  880204/F /   000000100000034132 5U0/  853677/E /9B9000000100000006394B                                               
FP6533627201PN2510       26102022 5U0/  955426/A /   000000100000004331 5Z0/  941007/C /   000000100000045013 5Z4/  831056/H /GRU000000100000152553B                                               
FP6533627201PN2510       26102022 6Q0/  411314/Q /   000001000000002338                    000000000000000000                    000000000000000000B                                               
FP6533731603CP2610       26102022 6Q0/  867172/C /9B9000000100000000841 6Q0/  857521/E /   000000100000006766 6EA/  823031/  /GRU000000100000124121B                                               
FP6533731603CP2610       26102022 5Z6/  945701/A /   000000100000009606 5Z6/  807421/B /GRU000000100000088952 5Z4/  853515/G /GRU000000100000008830B                                               
FP6533731603CP2610       26102022 2QB/  423510/Q /   000000100000281574 2QB/  423510/Q /   000000100000281574 030/  129607/CH/   000000100000020563B                                               
FP6533759511             26102022 036/  103464/G /   000000100000015220 5U0/  941008/D /   000000100000055271                    000000000000000000B                                               
FP6533892003CP2710       27102022 1SB/  819703/  /ITZ000000100000003613 2H1/  941016/L /   000000100000064591 5QM/  413031/AJ/   000000200000052960B                                               
FP6533892003CP2710       27102022 5U7/  945095/C /   000000100000025322                    000000000000000000                    000000000000000000B                                               
FP6533930011             27102022 5U0/  501117/F /   000000100000010681                    000000000000000000                    000000000000000000B                                               
FP6533971301PN28100      28102022 2GK/  805901/  /9B9000000100000061413 2G5/  807109/  /GRU000000200000044552                    000000000000000000B                                               
FP6534004901PN2810       28102022 6EA/  805588/J /   000000200000056142                    000000000000000000                    000000000000000000B                                               
FP6534005401PN28102      28102022 04C/  129620/A /   000004000000003419 04E/  145933/AG/   000001000000012697 04E/  145933/M /   000001000000006714B                                               
FP6534005401PN28102      28102022 06K/  109467/Q /   000000200000034463 1S0/  615301/F /   000000200000018586 2Q0/  698451/B /   000001000000021793B                                               
FP6534005401PN28102      28102022 5U0/  121253/C /   000000400000047054 5Z0/  698545/B /   000000200000010044 6EA/  941005/D /   000000200000060068B                                               
FP6534266803CP3110       31102022 2GP/  880204/F /   000000100000034132                    000000000000000000                    000000000000000000B                                               
FP6534366203CP0111       01112022 17A/  881806/  /QMS000000100000064370 2GP/  880204/F /   000000100000034132                    000000000000000000B                                               
FP6534530303CP0311       03112022 2GK/  867761/  /82V000000100000027139                    000000000000000000                    000000000000000000B                                               
FP6534629603CP0411       04112022 2QB/  423510/Q /   000000100000281574 2QB/  423510/Q /   000000100000281574                    000000000000000000B                                               
FP6534704111             04112022 6EA/  857706/A /RAA000000100000036861                    000000000000000000                    000000000000000000B                                               
FP6534813901PN0711       07112022 6Q0/  959858/  /9B9000000200000003450 6Q0/  411314/Q /   000001000000002338 5Z0/  853677/J /9B9000000100000007190B                                               
FP6534813901PN0711       07112022 5U1/  880202/F /BP0000000100000055124 5NN/  941114/C /   000000100000686922 5NN/  941113/C /   000000200000730293B                                               
FP6534813901PN0711       07112022 081/  311261/4 /   000000100000024346 032/  109101/AH/   000000100000039607 030/  103493/CE/   000000100000007722B                                               
FP6534813901PN0711       07112022   N/  105524/04/   000000500000001290   G/  052565/A1/   000000600000018195                    000000000000000000B                                               
FP6534876911             07112022 5W0/  201153/  /   000000200000006195                    000000000000000000                    000000000000000000B                                               
FP6534930903CP0811       08112022 5NN/  941114/C /   000000100000686922                    000000000000000000                    000000000000000000B                                               
FP6535152701PN09112      09112022 6Q0/  959858/  /9B9000000200000003450 6EA/  941006/D /   000000300000060068 6EA/  805912/A /   000000200000011761B                                               
FP6535152701PN09112      09112022 5Z0/  853671/D /EDW000000100000013844 5U7/  601203/A /   000000100000039324 1SB/  941015/  /   000000200000037872B                                               
FP6535152701PN09112      09112022 04C/  129620/A /   000002000000003419 036/  103464/G /   000000100000015531 030/  103493/CE/   000000100000007722B                                               
FP6535178003CP0911       09112022 3G0/  805912/T /   000000100000025017 6EC/  601025/  /DM9000000100000073224                    000000000000000000B                                               
FP6535205711             09112022 036/  103464/G /   000000200000015220 5U0/  941008/D /   000000200000055272 5U4/  837249/A /   000000200000003224B                                               
FP6535275403CP1011       10112022 3G0/  823301/  /   000000100000027375 3G0/  823302/  /   000000100000027375                    000000000000000000B                                               
FP6535445603CP1111       11112022 5Q0/  804456/F /   000000100000040035 5U0/  614117/M /BEF000000100000086139                    000000000000000000B                                               
FP6535474311             11112022 8K0/  973702/  /   000001000000003295                    000000000000000000                    000000000000000000B                                               
FP6535553001PN1411       14112022 6QE/  721503/D /   000000100000015458 6Q0/  959858/  /9B9000000300000003450 6Q0/  411314/Q /   000002000000002338B                                               
FP6535553001PN1411       14112022 6EA/  823031/  /GRU000000100000109300 5Z0/  853677/J /9B9000000400000007189 5X0/  201801/  /   000000200000006422B                                               
FP6535553001PN1411       14112022 5U7/  853050/D /MX1000000100000003525 5U0/  422154/F /   000000100000053164 5U0/  201153/A /   000002200000005825B                                               
FP6535553001PN1411       14112022 5U0/  121253/C /   000000200000047054 2QB/  407625/  /   000000100000007752 17A/  807417/C /GRU000000100000186151B                                               
FP6535553001PN1411       14112022 048/  103601/1 /   000000100000020166 030/  109243/Q /   000001200000011357                    000000000000000000B                                               
FP6535600203CP1411       14112022 2GJ/  867011/G /ZLS000000100000228261                    000000000000000000                    000000000000000000B                                               
FP6535891803CP1711       17112022 2Q0/  937132/A /   000000100000005469 2Q0/  941828/E /   000000100000055311                    000000000000000000B                                               
FP6535920811             17112022 5U7/  601203/A /   000000100000038538                    000000000000000000                    000000000000000000B                                               
FP6536030903CP1811       18112022 6EA/  880204/E /   000000100000032686 5U0/  121051/G /   000000100000006742   D/  169300/M2/   000000100000009545B                                               
FP6536161501PN2111       21112022 5U0/  837113/A /FA7000000100000002650 5U6/  810971/E /   000000100000004529 5U7/  601203/A /   000000100000039324B                                               
FP6536161501PN2111       21112022 5U0/  201153/A /   000001300000005825 5U0/  121253/C /   000000100000047053 5U0/  121073/  /   000000200000000815B                                               
FP6536161501PN2111       21112022 5U7/  853504/A /9B9000000100000005954 5Z0/  412331/C /   000000200000008219 5Z0/  853677/J /9B9000000100000007190B                                               
FP6536161501PN2111       21112022 6EA/  941006/D /   000000100000060068 6Q0/  411314/Q /   000001000000002338 6Q0/  959858/  /9B9000000100000003450B                                               
FP6536161501PN2111       21112022 6QE/  721503/D /   000000100000015458 5QM/  121203/K /   000000100000152263 2QB/  919673/  /   000000200000006664B                                               
FP6536161501PN2111       21112022 2QB/  407625/  /   000000100000007752 2GP/  998002/A /   000000300000007144 2GK/  805901/  /9B9000000100000061413B                                               
FP6536161501PN2111       21112022 04E/  145933/M /   000000200000006715 04E/  145299/AA/   000000100000011370 048/  103601/1 /   000000100000020166B                                               
FP6536161501PN2111       21112022 032/  121026/CP/   000001000000023058 032/  103601/AA/   000000100000007917 030/  109243/Q /   000000600000011357B                                               
FP6536161501PN2111       21112022 030/  103493/CE/   000000100000007722 02T/  141153/AA/   000000200000020309   N/  104305/03/   000002000000000038B                                               
FP6536425011             22112022 5Z0/  941206/C /   000000100000041714                    000000000000000000                    000000000000000000B                                               
FP6536491201Est2311      23112022 2G5/  827025/  /GRU000000100000136968 6EA/  831055/J /GRU000000100000100443 6EA/  833056/L /GRU000000100000050222B                                               
FP6536538901PN23090      23112022 5Z0/  853677/J /9B9000000100000007190 5U7/  601203/A /   000000100000039324 2QB/  919673/  /   000000100000006663B                                               
FP6536538901PN23090      23112022 2GP/  998002/A /   000000200000007144 2G5/  810971/A /   000000100000005503 2G5/  805912/A /   000000100000005822B                                               
FP6536538901PN23090      23112022 1SB/  941015/  /   000000100000037872 04C/  129620/A /   000005000000003419   D/  176501/A1/   000000100000011397B                                               
FP6536558703CP2311       23112022 1SB/  857002/S /LCU000000100000252547 2H7/  071778/L /   000000100000145650                    000000000000000000B                                               
FP6536665203CP2411       24112022 6Q6/  945095/AB/   000000100000057744                    000000000000000000                    000000000000000000B                                               
FP7529903101PN2109       21092022   N/  909154/02/   000000100000000142                    000000000000000000                    000000000000000000                                                
FP7531138901Bestdrive 30.30092022 1K0/  601173/  /9B9000002000000000404                    000000000000000000                    000000000000000000                                                
FP7532315101PVEXDSH      13102022   G/  S55553/R2/BRA000360000000002624                    000000000000000000                    000000000000000000                                                
FP7532868501PN1910       19102022 2GB/  121253/A /   000000100000027992                    000000000000000000                    000000000000000000                                                
FP7533627201PN2510       26102022 2GB/  121253/A /   000000100000027992 5U5/  919486/  /   000000700000000826 5Z0/  820411/E /   000000500000033581                                                
FP7534790001PS0711       07112022   G/  S55553/R2/BRA000360000000002835                    000000000000000000                    000000000000000000                                                
FP7534930903CP0811       08112022 5QM/  129954/  /   000000100000008884                    000000000000000000                    000000000000000000                                                
FP7534980201PVEXDSH      08112022 JZZ/  905603/  /   000030000000001320 JZZ/  905106/  /   000004000000020434 03L/  130755/A /   000000100000262963                                                
FP7534980201PVEXDSH      08112022 03L/  130277/Q /   000002000000154820 032/  905409/B /   000004000000017198   G/  S55553/R2/BRA000360000000002624                                                
FP7535152701PN09112      09112022 2GB/  121253/A /   000000100000027992 823/  711593/B /   000001000000000716                    000000000000000000                                                
FP7535553001PN1411       14112022 5Z0/  820411/E /   000000200000033581                    000000000000000000                    000000000000000000                                                
FP7535696101DSH          16112022 FEM/  000007/  /   000000100001131666                    000000000000000000                    000000000000000000                                                
FP7535774811             16112022 5Z6/  827565/J /1NN000000200000010213                    000000000000000000                    000000000000000000                                                
FP7535920811             17112022 2GP/  806929/D /GRU000000200000013995                    000000000000000000                    000000000000000000                                                
FP7536161501PN2111       21112022 5U7/  853050/D /MX1000000100000003525                    000000000000000000                    000000000000000000                                                
FP7536491201Est2311      23112022 1SB/  831056/A /GRU000000100000100443 5U6/  827025/G /GRU000000100000077615                    000000000000000000                                                
FP7536538901PN23090      23112022   G/  S55545/M2/BRA000024000000004810                    000000000000000000                    000000000000000000                                                
FP7536558703CP2311       23112022 5Z4/  857706/AD/RYV000000100000042470 5Z4/  857705/AD/RYV000000100000041603 5U5/  867288/A /Y20000000100000002426                                                
FP7536558703CP2311       23112022 5QN/  200059/B /   000000100000025949 5QF/  825102/B /   000000100000041007 3ED/  877459/  /   000000100000066178                                                
FP7536558703CP2311       23112022 2QB/  423811/  /   000000100000012987 2QB/  122051/C /   000000100000022180 2GP/  857121/  /TR2000000100000029562                                                
FP7536558703CP2311       23112022 2G7/  955453/A /   000000100000007975                    000000000000000000                    000000000000000000                                                
FP7536665203CP2411       24112022 2QB/  253181/BG/   000000100000064199 6EA/  941531/C /AYV000000100000015491                    000000000000000000                                                
FP8535891800CP1711       17112022 6EA/  839885/  /   000000100000005535                    000000000000000000                    000000000000000000                                                
FPF000000000000129                                                                                                                                                                                 
FPI00000000000000241120220000000000005101417                                                                                                                                                       
FP6519983301FE2706       27062022 ASE/  485432/00/000000000100000058398                    000000000000000000                    000000000000000000B                                               
FP6528269101PN06091      06092022 2GP/  806930/B /   000000100000013660 2H1/  941016/L /   000000100000064591 5Z0/  941008/A /   000000100000071064B                                               
FP6528269101PN06091      06092022 5Z6/  945106/A /   000000100000004536 APR/  807221/Q /GRU000000600000081081                    000000000000000000B                                               
FP6528736401PN1209       12092022 2GP/  806930/B /   000000200000013659 5U1/  880202/F /QL2000000100000041247 5Z0/  853671/  /9B9000000100000149765B                                               
FP6528736401PN1209       12092022 5Z4/  853515/G /GRU000000100000008830 6Q0/  411314/Q /   000001000000002338                    000000000000000000B                                               
FP6529903101PN2109       21092022 032/  109101/AG/   000000100000040776 5Q0/  407621/F /   000000200000084658                    000000000000000000B                                               
FP6529951611             21092022 5Q0/  407621/F /   000000300000082964                    000000000000000000                    000000000000000000B                                               
FP6530427803CP2609       26092022 1S0/  407256/L /   000000100000021813                    000000000000000000                    000000000000000000B                                               
FP6530697201PN28096      28092022 6EA/  853601/  /2ZZ000000400000005855 6EA/  823031/  /GRU000000100000124121 5Z6/  945106/A /   000000100000004536B                                               
FP6530697201PN28096      28092022 5Z1/  941007/M /   000000100000062328 5Z0/  807221/Q /GRU000000100000098513 2H1/  941016/L /   000000100000064591B                                               
FP6530697201PN28096      28092022 2GP/  998002/A /   000000500000007144 2G5/  805911/A /   000000100000005822 032/  121026/CP/   000004000000023058B                                               
FP6530697201PN28096      28092022 032/  109101/AG/   000000100000040776   G/  052150/A2/   000000100000007732   D/  169300/M2/   000000400000009545B                                               
FP6530707103CP2809       28092022   G/  052539/A2/   000000100000025435   G/  052539/A2/   000000100000025435                    000000000000000000B                                               
FP6531061401767703       30092022 2G5/  805911/A /   000000300000005822                    000000000000000000                    000000000000000000B                                               
FP6531138901Bestdrive 30.30092022 6EA/  071310/A /   000000100000010291                    000000000000000000                    000000000000000000B                                               
FP6531278401FE0310       03102022 ASE/  401574/01/000000000100000049040 ASE/  401576/01/000000000100000048731 ASE/  401605/00/000000000100000078242B                                               
FP6531431903CP0410       04102022 04C/  109108/E /   000000100000016910 2QB/  423530/J /   000000100000361413 5Z0/  807221/AD/GRU000000100000063919B                                               
FP6531475611             04102022 811/  711597/  /   000005000000000204                    000000000000000000                    000000000000000000B                                               
FP6532079703CP1110       11102022 1JE/  945096/E /   000000100000040366 5C6/  827705/A /5AP000000100000033043                    000000000000000000B                                               
FP6532292803CP1310       13102022 2Q0/  937132/A /   000000100000005469                    000000000000000000                    000000000000000000B                                               
FP6532351511             13102022 030/  109243/Q /   000001400000011130                    000000000000000000                    000000000000000000B                                               
FP6532520911             14102022 5Z0/  412331/C /   000000200000008054                    000000000000000000                    000000000000000000B                                               
FP6532641103CP1710       17102022 1JE/  853658/  /   000000100000007507 1K8/  827761/D /   000000100000004984 1SB/  880201/J /81U000000100000041963B                                               
FP6532641103CP1710       17102022 5Z0/  807109/E /GRU000000100000047259 5Z6/  945106/A /   000000100000004536 6QE/  805588/C /   000000100000106816B                                               
FP6532675811             17102022 5U7/  945095/B /   000000200000022235                    000000000000000000                    000000000000000000B                                               
FP6532806303CP1810       18102022 1SB/  819703/  /ITZ000000100000003613 1SB/  941016/A /   000000100000034011 2GM/  821136/  /GRU000000100000004498B                                               
FP6532806303CP1810       18102022 2H1/  941016/L /   000000100000064591                    000000000000000000                    000000000000000000B                                               
FP6532868501PN1910       19102022 5U5/  803703/  /CTR000000100000011409 5NN/  941114/C /   000000100000686922 5NN/  941113/C /   000000100000730293B                                               
FP6532868501PN1910       19102022 2GP/  880204/F /   000000100000034132 2GP/  806929/B /   000000100000013660 1SB/  941016/  /   000000100000037872B                                               
FP6532868501PN1910       19102022 1SB/  941015/  /   000000100000037872   G/  052565/A1/   000000500000018195                    000000000000000000B                                               
FP6533107903CP2010       20102022 2GP/  827577/  /FOD000000100000085650                    000000000000000000                    000000000000000000B                                               
FP6533214501PN21101      21102022 6EA/  941006/D /   000000100000060068 6EA/  853601/  /2ZZ000000200000005855 6EA/  823031/  /GRU000000600000124121B                                               
FP6533214501PN21101      21102022 5Z1/  423057/B /   000000200000137641 5Z0/  853671/D /EDW000000200000013844 5Z0/  807221/Q /GRU000000200000098512B                                               
FP6533214501PN21101      21102022 5U7/  945095/C /   000000100000025322 5U1/  880202/F /QL2000000100000041247 5U0/  121253/C /   000000300000047054B                                               
FP6533214501PN21101      21102022 2Q0/  698451/B /   000000400000021793 2G5/  805912/A /   000000200000005823 2G0/  941661/  /   000000100000046484B                                               
FP6533214501PN21101      21102022 1SB/  941015/  /   000000100000037872 06K/  109467/Q /   000000300000034463 04E/  145933/M /   000000200000006715B                                               
FP6533214501PN21101      21102022 04C/  129620/A /   000004000000003419 032/  109101/AG/   000000200000040776   D/  169300/M2/   000000400000009545B                                               
FP6533248903CP2110       21102022 2QB/  423510/Q /   000000100000281574                    000000000000000000                    000000000000000000B                                               
FP6533441711             24102022 04E/  998907/A /   000000400000012619                    000000000000000000                    000000000000000000B                                               
FP6533594703CP2510       25102022 17A/  867501/P /RN3000000100000240557 2GP/  810395/  /GRU000000100000000789                    000000000000000000B                                               
FP6533627201PN2510       26102022 6Q0/  411314/Q /   000001000000002338 5Z4/  831056/H /GRU000000100000152553 5Z0/  941007/C /   000000100000045013B                                               
FP6533627201PN2510       26102022 5U0/  955426/A /   000000100000004331 5U0/  853677/E /9B9000000100000006394 2GP/  880204/F /   000000100000034132B                                               
FP6533627201PN2510       26102022 2GM/  821135/  /GRU000000100000004498 2GK/  941774/B /   000000100000421077 1SB/  941016/F /   000000100000036526B                                               
FP6533627201PN2510       26102022 1SB/  941016/  /   000000100000037872 1SB/  941015/F /   000000100000036526 1S0/  407151/A /   000000100000007794B                                               
FP6533627201PN2510       26102022 17B/  955426/  /03C000000100000012511 17A/  837701/B /5AP000000100000023896 032/  109101/AG/   000000100000040776B                                               
FP6533627201PN2510       26102022 030/  109243/Q /   000001300000011357                    000000000000000000                    000000000000000000B                                               
FP6533731603CP2610       26102022 6Q0/  867172/C /9B9000000100000000841 6Q0/  857521/E /   000000100000006766 6EA/  823031/  /GRU000000100000124121B                                               
FP6533731603CP2610       26102022 5Z6/  945701/A /   000000100000009606 5Z6/  807421/B /GRU000000100000088952 5Z4/  853515/G /GRU000000100000008830B                                               
FP6533731603CP2610       26102022 2QB/  423510/Q /   000000100000281574 2QB/  423510/Q /   000000100000281574 030/  129607/CH/   000000100000020563B                                               
FP6533759511             26102022 036/  103464/G /   000000100000015220 5U0/  941008/D /   000000100000055271                    000000000000000000B                                               
FP6533892003CP2710       27102022 1SB/  819703/  /ITZ000000100000003613 2H1/  941016/L /   000000100000064591 5QM/  413031/AJ/   000000200000052960B                                               
FP6533892003CP2710       27102022 5U7/  945095/C /   000000100000025322                    000000000000000000                    000000000000000000B                                               
FP6533930011             27102022 5U0/  501117/F /   000000100000010681                    000000000000000000                    000000000000000000B                                               
FP6533971301PN28100      28102022 2G5/  807109/  /GRU000000200000044552 2GK/  805901/  /9B9000000100000061413                    000000000000000000B                                               
FP6534004901PN2810       28102022 6EA/  805588/J /   000000200000056142                    000000000000000000                    000000000000000000B                                               
FP6534005401PN28102      28102022 6EA/  941005/D /   000000200000060068 5Z0/  698545/B /   000000200000010044 5U0/  121253/C /   000000400000047054B                                               
FP6534005401PN28102      28102022 2Q0/  698451/B /   000001000000021793 1S0/  615301/F /   000000200000018586 06K/  109467/Q /   000000200000034463B                                               
FP6534005401PN28102      28102022 04E/  145933/M /   000001000000006714 04E/  145933/AG/   000001000000012697 04C/  129620/A /   000004000000003419B                                               
FP6534266803CP3110       31102022 2GP/  880204/F /   000000100000034132                    000000000000000000                    000000000000000000B                                               
FP6534366203CP0111       01112022 17A/  881806/  /QMS000000100000064370 2GP/  880204/F /   000000100000034132                    000000000000000000B                                               
FP6534530303CP0311       03112022 2GK/  867761/  /82V000000100000027139                    000000000000000000                    000000000000000000B                                               
FP6534629603CP0411       04112022 2QB/  423510/Q /   000000100000281574 2QB/  423510/Q /   000000100000281574                    000000000000000000B                                               
FP6534704111             04112022 6EA/  857706/A /RAA000000100000036861                    000000000000000000                    000000000000000000B                                               
FP6534813901PN0711       07112022 6Q0/  959858/  /9B9000000200000003450 6Q0/  411314/Q /   000001000000002338 5Z0/  853677/J /9B9000000100000007190B                                               
FP6534813901PN0711       07112022 5U1/  880202/F /BP0000000100000055124 5NN/  941114/C /   000000100000686922 5NN/  941113/C /   000000200000730293B                                               
FP6534813901PN0711       07112022 081/  311261/4 /   000000100000024346 032/  109101/AH/   000000100000039607 030/  103493/CE/   000000100000007722B                                               
FP6534813901PN0711       07112022   N/  105524/04/   000000500000001290   G/  052565/A1/   000000600000018195                    000000000000000000B                                               
FP6534876911             07112022 5W0/  201153/  /   000000200000006195                    000000000000000000                    000000000000000000B                                               
FP6534930903CP0811       08112022 5NN/  941114/C /   000000100000686922                    000000000000000000                    000000000000000000B                                               
FP6535152701PN09112      09112022 030/  103493/CE/   000000100000007722 036/  103464/G /   000000100000015531 04C/  129620/A /   000002000000003419B                                               
FP6535152701PN09112      09112022 1SB/  941015/  /   000000200000037872 5U7/  601203/A /   000000100000039324 5Z0/  853671/D /EDW000000100000013844B                                               
FP6535152701PN09112      09112022 6EA/  805912/A /   000000200000011761 6EA/  941006/D /   000000300000060068 6Q0/  959858/  /9B9000000200000003450B                                               
FP6535178003CP0911       09112022 3G0/  805912/T /   000000100000025017 6EC/  601025/  /DM9000000100000073224                    000000000000000000B                                               
FP6535205711             09112022 5U4/  837249/A /   000000200000003224 5U0/  941008/D /   000000200000055272 036/  103464/G /   000000200000015220B                                               
FP6535275403CP1011       10112022 3G0/  823301/  /   000000100000027375 3G0/  823302/  /   000000100000027375                    000000000000000000B                                               
FP6535445603CP1111       11112022 5Q0/  804456/F /   000000100000040035 5U0/  614117/M /BEF000000100000086139                    000000000000000000B                                               
FP6535474311             11112022 8K0/  973702/  /   000001000000003295                    000000000000000000                    000000000000000000B                                               
FP6535553001PN1411       14112022 6QE/  721503/D /   000000100000015458 6Q0/  959858/  /9B9000000300000003450 6Q0/  411314/Q /   000002000000002338B                                               
FP6535553001PN1411       14112022 6EA/  823031/  /GRU000000100000109300 5Z0/  853677/J /9B9000000400000007189 5X0/  201801/  /   000000200000006422B                                               
FP6535553001PN1411       14112022 5U7/  853050/D /MX1000000100000003525 5U0/  422154/F /   000000100000053164 5U0/  201153/A /   000002200000005825B                                               
FP6535553001PN1411       14112022 5U0/  121253/C /   000000200000047054 2QB/  407625/  /   000000100000007752 17A/  807417/C /GRU000000100000186151B                                               
FP6535553001PN1411       14112022 048/  103601/1 /   000000100000020166 030/  109243/Q /   000001200000011357                    000000000000000000B                                               
FP6535600203CP1411       14112022 2GJ/  867011/G /ZLS000000100000228261                    000000000000000000                    000000000000000000B                                               
FP6535891803CP1711       17112022 2Q0/  937132/A /   000000100000005469 2Q0/  941828/E /   000000100000055311                    000000000000000000B                                               
FP6535920811             17112022 5U7/  601203/A /   000000100000038538                    000000000000000000                    000000000000000000B                                               
FP6536030903CP1811       18112022 6EA/  880204/E /   000000100000032686 5U0/  121051/G /   000000100000006742   D/  169300/M2/   000000100000009545B                                               
FP6536161501PN2111       21112022 6QE/  721503/D /   000000100000015458 6Q0/  959858/  /9B9000000100000003450 6Q0/  411314/Q /   000001000000002338B                                               
FP6536161501PN2111       21112022 6EA/  941006/D /   000000100000060068 5Z0/  853677/J /9B9000000100000007190 5Z0/  412331/C /   000000200000008219B                                               
FP6536161501PN2111       21112022 5U7/  853504/A /9B9000000100000005954 5U7/  601203/A /   000000100000039324 5U6/  810971/E /   000000100000004529B                                               
FP6536161501PN2111       21112022 5U0/  837113/A /FA7000000100000002650 5U0/  201153/A /   000001300000005825 5U0/  121253/C /   000000100000047053B                                               
FP6536161501PN2111       21112022 5U0/  121073/  /   000000200000000815 5QM/  121203/K /   000000100000152263   N/  104305/03/   000002000000000038B                                               
FP6536161501PN2111       21112022 02T/  141153/AA/   000000200000020309 030/  103493/CE/   000000100000007722 030/  109243/Q /   000000600000011357B                                               
FP6536161501PN2111       21112022 032/  103601/AA/   000000100000007917 032/  121026/CP/   000001000000023058 048/  103601/1 /   000000100000020166B                                               
FP6536161501PN2111       21112022 04E/  145299/AA/   000000100000011370 04E/  145933/M /   000000200000006715 2GK/  805901/  /9B9000000100000061413B                                               
FP6536161501PN2111       21112022 2GP/  998002/A /   000000300000007144 2QB/  407625/  /   000000100000007752 2QB/  919673/  /   000000200000006664B                                               
FP6536425011             22112022 5Z0/  941206/C /   000000100000041714                    000000000000000000                    000000000000000000B                                               
FP6536491201Est2311      23112022 6EA/  833056/L /GRU000000100000050222 6EA/  831055/J /GRU000000100000100443 2G5/  827025/  /GRU000000100000136968B                                               
FP6536538901PN23090      23112022 2QB/  919673/  /   000000100000006663 2GP/  998002/A /   000000200000007144 5U7/  601203/A /   000000100000039324B                                               
FP6536538901PN23090      23112022 5Z0/  853677/J /9B9000000100000007190 2G5/  810971/A /   000000100000005503 2G5/  805912/A /   000000100000005822B                                               
FP6536538901PN23090      23112022 1SB/  941015/  /   000000100000037872 04C/  129620/A /   000005000000003419   D/  176501/A1/   000000100000011397B                                               
FP6536558703CP2311       23112022 1SB/  857002/S /LCU000000100000252547 2H7/  071778/L /   000000100000145650                    000000000000000000B                                               
FP6536665203CP2411       24112022 6Q6/  945095/AB/   000000100000057744                    000000000000000000                    000000000000000000B                                               
FP7529903101PN2109       21092022   N/  909154/02/   000000100000000142                    000000000000000000                    000000000000000000                                                
FP7531138901Bestdrive 30.30092022 1K0/  601173/  /9B9000002000000000404                    000000000000000000                    000000000000000000                                                
FP7532315101PVEXDSH      13102022   G/  S55553/R2/BRA000360000000002624                    000000000000000000                    000000000000000000                                                
FP7532868501PN1910       19102022 2GB/  121253/A /   000000100000027992                    000000000000000000                    000000000000000000                                                
FP7533627201PN2510       26102022 2GB/  121253/A /   000000100000027992 5U5/  919486/  /   000000700000000826 5Z0/  820411/E /   000000500000033581                                                
FP7534790001PS0711       07112022   G/  S55553/R2/BRA000360000000002835                    000000000000000000                    000000000000000000                                                
FP7534930903CP0811       08112022 5QM/  129954/  /   000000100000008884                    000000000000000000                    000000000000000000                                                
FP7534980201PVEXDSH      08112022 JZZ/  905603/  /   000030000000001320 JZZ/  905106/  /   000004000000020434 03L/  130755/A /   000000100000262963                                                
FP7534980201PVEXDSH      08112022 03L/  130277/Q /   000002000000154820 032/  905409/B /   000004000000017198   G/  S55553/R2/BRA000360000000002624                                                
FP7535152701PN09112      09112022 2GB/  121253/A /   000000100000027992 823/  711593/B /   000001000000000716                    000000000000000000                                                
FP7535553001PN1411       14112022 5Z0/  820411/E /   000000200000033581                    000000000000000000                    000000000000000000                                                
FP7535696101DSH          16112022 FEM/  000007/  /   000000100001131666                    000000000000000000                    000000000000000000                                                
FP7535774811             16112022 5Z6/  827565/J /1NN000000200000010213                    000000000000000000                    000000000000000000                                                
FP7535920811             17112022 2GP/  806929/D /GRU000000200000013995                    000000000000000000                    000000000000000000                                                
FP7536161501PN2111       21112022 5U7/  853050/D /MX1000000100000003525                    000000000000000000                    000000000000000000                                                
FP7536491201Est2311      23112022 1SB/  831056/A /GRU000000100000100443 5U6/  827025/G /GRU000000100000077615                    000000000000000000                                                
FP7536538901PN23090      23112022   G/  S55545/M2/BRA000024000000004810                    000000000000000000                    000000000000000000                                                
FP7536558703CP2311       23112022 5Z4/  857706/AD/RYV000000100000042470 5Z4/  857705/AD/RYV000000100000041603 5U5/  867288/A /Y20000000100000002426                                                
FP7536558703CP2311       23112022 5QN/  200059/B /   000000100000025949 5QF/  825102/B /   000000100000041007 3ED/  877459/  /   000000100000066178                                                
FP7536558703CP2311       23112022 2QB/  423811/  /   000000100000012987 2QB/  122051/C /   000000100000022180 2GP/  857121/  /TR2000000100000029562                                                
FP7536558703CP2311       23112022 2G7/  955453/A /   000000100000007975                    000000000000000000                    000000000000000000                                                
FP7536665203CP2411       24112022 2QB/  253181/BG/   000000100000064199 6EA/  941531/C /AYV000000100000015491                    000000000000000000                                                
FP8535891800CP1711       17112022 6EA/  839885/  /   000000100000005535                    000000000000000000                    000000000000000000                                                
FPF000000000000127                                                                                                                                                                                 
FRI10000000000000241120220000000000005101417                                                                                                                                                       
FR111000000000000000000000000000000000000000000000000000162430446-00000000000000+N                                                                                                         010699  
FR111000000000000000000000000000000000000000000000000000069014322-00000000000000+O                                                                                                         010699  
FR111000000000000000000000000000000000000000000000000000000000000+00000000000000+C                                                                                                         010699  
FR2000138810350 P04112022000000000000000071181610000002136669590000000000000009BWAG45U2PT080922VW VEICULOS  VW/GOL MPI          202220230000000                                            025     
FR2000138912450 P07112022000000000000000175312390000005262379170000000000000008AWBJ6B23NA837469VW VEICULOS  I/VW TAOS HL TSI    202220220000000                                            025     
FR2000139223850 P09112022000000000000000110669540000003321984870000000000000009BWJL45U1PP026466VW VEICULOS  VW/SAVEIRO CD CROSS 202220230000000                                            025     
FR2000139267950 P10112022000000000000000070499090000002116182140000000000000009BWAG45U6PT084911VW VEICULOS  VW/GOL MPI          202220230000000                                            025     
FR2000139274450 P10112022000000000000000151032810000004533575230000000000000008AWBJ6B26NA835859VW VEICULOS  I/VW TAOS CL TSI    202220220000000                                            025     
FR2000139683150 P18112022000000000000000174204880000005229134940000000000000008AWBJ6B23NA839447VW VEICULOS  I/VW TAOS HL TSI    202220220000000                                            025     
FR2000139749150 P19112022000000000000000150435570000004515647940000000000000008AWBJ6B28NA836561VW VEICULOS  I/VW TAOS CL TSI    202220220000000                                            025     
FR2000139961550 P22112022000000000000000178030870000005343980130000000000000008AWBJ6B2XNA841938VW VEICULOS  I/VW TAOS HL TSI    202220220000000                                            025     
FR2000151623240 P19112022000000000000000104085530000003124351710000000000000009BWBH6BF9P4023114VW VEICULOS  VW/T CROSS SENSE TSI202220230000000                                            024     
FR2000176159570 P09112022000000000000000112684860000003382478920000000000000009BWCH6CH1PP018900VW VEICULOS  VW/NIVUS CL TSI     202220230000000                                            025     
FR2000176403970 P16112022000000000000000108894480000003268702450000000000000009BWJL45U4PP027191VW VEICULOS  VW/SAVEIRO CD CROSS 202220230000000                                            025     
FR2000176498070 P18112022000000000000000108722320000003263534870000000000000009BWJL45U2PP027948VW VEICULOS  VW/SAVEIRO CD CROSS 202220230000000                                            025     
FR2000176646070 P22112022000000000000000108550440000003258375470000000000000009BWJL45U4PP028406VW VEICULOS  VW/SAVEIRO CD CROSS 202220230000000                                            025     
F060101 DOLAR REFERENCIAL DIARIO - VENDA                                                                                                                                                   300997  
F06022511202200000053149000000000000000000000000000000000000000000000000000000000000000000000000000000000000000000000000000000000000000000000000000000000000000000000000000000000          300997  
F060105 UFIR - UNIDADE FISCAL DE REFERENCIA                                                                                                                                                300997  
F06022511202200000010641000000000000000000000000000000000000000000000000000000000000000000000000000000000000000000000000000000000000000000000000000000000000000000000000000000000          300997  
F060114 IGPM - INDICE GERAL DE PRECOS DO MERCADO                                                                                                                                           300997  
F06022511202200008818318000000000000000000000000000000000000000000000000000000000000000000000000000000000000000000000000000000000000000000000000000000000000000000000000000000000          300997  
F060130 TRD - TAXA REFERENCIAL DIARIA                                                                                                                                                      300997  
F06022511202200000000134716200000000000000000000000000000000000000000000000000000000000000000000000000000000000000000000000000000000000000000000000000000000000000000000000000000          300997  
F060175 TABELA DE QCS PARA LIQUIDACAO DE DEBITOS EXCLUSIVAMENTE JUNTO AO CREDITO ROTATIVO                                                                                                  300997  
F06022511202200000261401231500000000000000000000000000000000000000000000000000000000000000000000000000000000000000000000000000000000000000000000000000000000000000000000000000000          300997  
F060178 TABELA DE QCIS PARA LIQUIDACAO DE DEBITOS EXCLUSIVAMENTE JUNTO AO CREDITO ROTATIVO - VEICULOS IMPORTADOS VW                                                                        300997  
F06022511202200000014729272000000000000000000000000000000000000000000000000000000000000000000000000000000000000000000000000000000000000000000000000000000000000000000000000000000          300997  
F060192 TABELA DE QCIS PARA LIQUIDACAO DE DEBITOS EXCLUSIVAMENTE JUNTO AO CREDITO ROTATIVO - VEICULOS IMPORT. SEAT                                                                         300997  
F06022511202200000014827648600000000000000000000000000000000000000000000000000000000000000000000000000000000000000000000000000000000000000000000000000000000000000000000000000000          300997  
F060196 TABELA DE QCIS PARA LIQUIDACAO DE DEBITOS EXCLUSIVAMENTE JUNTO AO CREDITO ROTATIVO - VEIC.IMPORT VW/96                                                                             300997  
F06022511202200000350306817500000000000000000000000000000000000000000000000000000000000000000000000000000000000000000000000000000000000000000000000000000000000000000000000000000          300997  
F0601101TABELA DE QCIS PARA LIQUIDACAO DE DEBITOS EXCLUSIVAMENTE JUNTO AO CREDITO ROTATIVO - VEICULO USADO                                                                                 300997  
F06022511202200000485229587800000000000000000000000000000000000000000000000000000000000000000000000000000000000000000000000000000000000000000000000000000000000000000000000000000          300997  
F0601105TABELA DE QCIS PARA LIQUIDACAO DE DEBITOS EXCLUSIVAMENTE JUNTO AO CREDITO ROTATIVO - VEICULOS AUDI                                                                                 300997  
F06022511202200000786340566400000000000000000000000000000000000000000000000000000000000000000000000000000000000000000000000000000000000000000000000000000000000000000000000000000          300997  
F0601106TABELA DE QCIS PARA LIQUIDACAO DE DEBITOS EXCLUSIVAMENTE JUNTO AO CREDITO ROTATIVO - PECAS                                                                                         300997  
F06022511202200001075379599800000000000000000000000000000000000000000000000000000000000000000000000000000000000000000000000000000000000000000000000000000000000000000000000000000          300997  
F0601109TABELA DE QCIS PARA LIQUIDACAO DE DEBITOS EXCLUSIVAMENTE JUNTO AO CREDITO ROTATIVO - CAMINHOES USADOS                                                                              300997  
F06022511202200001094751175400000000000000000000000000000000000000000000000000000000000000000000000000000000000000000000000000000000000000000000000000000000000000000000000000000          300997  
F0601110TABELA DE QCIS PARA LIQUIDACAO DE DEBITOS EXCLUSIVAMENTE JUNTO AO CREDITO ROTATIVO - AUDI USADOS                                                                                   300997  
F06022511202200000797339325500000000000000000000000000000000000000000000000000000000000000000000000000000000000000000000000000000000000000000000000000000000000000000000000000000          300997  
F0601111TABELA DE QCIS PARA LIQUIDACAO DE DEBITOS EXCLUSIVAMENTE JUNTO AO CREDITO ROTATIVO - SEAT USADOS                                                                                   300997  
F06022511202200000807565158900000000000000000000000000000000000000000000000000000000000000000000000000000000000000000000000000000000000000000000000000000000000000000000000000000          300997  
F0601115TABELA DE QCIS PARA LIQUIDACAO DE DEBITOS EXCLUSIVAMENTE JUNTO AO CREDITO ROTATIVO - QC COM BONUS                                                                                  300997  
F06022511202200000333407798200000000000000000000000000000000000000000000000000000000000000000000000000000000000000000000000000000000000000000000000000000000000000000000000000000          300997  
F0601116TABELA DE QCIS PARA LIQUIDACAO DE DEBITOS EXCLUSIVAMENTE JUNTO AO CREDITO ROTATIVO - QC DO BONUS ROTATIVO                                                                          300997  
F06022511202200000098453402600000000000000000000000000000000000000000000000000000000000000000000000000000000000000000000000000000000000000000000000000000000000000000000000000000          300997  
F0601117TABELA DE QCIS PARA LIQUIDACAO DE DEBITOS EXCLUSIVAMENTE JUNTO AO CREDITO ROTATIVO - QC FINANCIAMENTO ICMS                                                                         300997  
F06022511202200001075379602000000000000000000000000000000000000000000000000000000000000000000000000000000000000000000000000000000000000000000000000000000000000000000000000000000          300997  
F0601119TABELA DE QCIS PARA LIQUIDACAO DE DEBITOS EXCLUSIVAMENTE JUNTO AO CREDITO ROTATIVO - MULTA DE CONFISSAO DIV                                                                        300997  
F06022511202200000010000000000000000000000000000000000000000000000000000000000000000000000000000000000000000000000000000000000000000000000000000000000000000000000000000000000000          300997  
FRF100000000000054                                                                                                                                                                                 
FVI10060000000000251120220000000000005101417                                                                                                                                                       
F229BWAH5BZ0PP002232752649171020229BWCH6CH0PP006396767400241120229BWCH6CH7PP017539758108281020229BWAH5BZ4PP00202475240817102022                                                            300997  
F22WV1DA22H4NA025763728270290720229BWCH6CH1PP018900761595091120229BWCH6CH3PP000785757229271020229BWJL45U2PP02794876498018112022                                                            300997  
F229BWJL45U4PP027191764039161120229BWCH6CH8PP017386757343271020229BWAG5BZ6PP002044746806270920229BWJL45U4PP02840676646022112022                                                            300997  
F22WV1DA22H7NA035591368208080920229BWBH6BF9P4023114516232191120228AWBJ6B23NA837469389124071120229BWBH6BF3N407389249732210082022                                                            300997  
F229BWBH6BF5P4011171508382290920229BWAG45U2PT080922388103041120228AWBJ6B23NA834460378005131020228AWBJ6B23NA83944739683118112022                                                            300997  
F228AWBJ6B26NA835859392744101120229BWBH6BF6N4056486508780300920229BWDH5BZ6NP045158383878251020229BWBH6BF8P401731951135225102022                                                            300997  
F229BWAG45U6PT07663238102820102022WV1DA22H9NA038301375392300920229BWBH6BF2P4003190504630020920229BWBH6BF3P400308450463102092022                                                            300997  
F229BWBH6BF4P4003174504632020920229BWJL45U1PP026466392238091120229BWBH6BF3P4017745511316251020229BWBH6BF7P401196451078922102022                                                            300997  
F229BWBJ6BF3P4017362511301251020229BWBH6BF1P4014892510310201020229BWAG45U9PT070307375317300920228AWBJ6B26NA83638140157724112022                                                            300997  
F228AWBJ6B2XNA841938399615221120228AWBJ6B28NA836561397491191120229BWBJ6BF7N4068232500326170820229BWAG45U6PT08491139267910112022                                                            300997  
F229BWBH6BF9P4016566510707211020229BWBH6BF2P4016506510708211020229BWBH6BF9P4012582513633311020229BWBH6BF0P401339351020520102022                                                            300997  
F229BWAG45U0PT078635385990281020229BWBH6BF3P4015848510902221020229BWBH6BF8P400315950204125082022                                                                                           300997  
FVF100000000000014                                                                                                                                                                                 
FAI10000000000000251120220000000000005101417                                                                                                                                                       
FA100000000000000+00000000000000+00000000000000+00000000000000+00000000000000+00000000000000+00000000000000+00000000000000+00000000000000+                                                         
FA200000000000000+00000000000000+00000000000000+00000000000000+00000000000000+00000000000000+00000000000000+00000000000000+00000000000000+                                                         
FA3000577621000011120220812202200000000000988500000000000988500000000000000000000000000000000000000000000081220220 88  ICMS ST PECAS                                                               
FA3000577622000011120220812202200000000000496000000000000496000000000000000000000000000000000000000000000081220220 88  ICMS ST PECAS                                                               
FA3000577799000011120220812202200000000007988600000000007988600000000000000000000000000000000000000000000081220220 88  ICMS ST PECAS                                                               
FA3000577800000011120220812202200000000000971300000000000971300000000000000000000000000000000000000000000081220220 88  ICMS ST PECAS                                                               
FA3000577979000011120220812202200000000000041100000000000041100000000000000000000000000000000000000000000081220220 88  ICMS ST PECAS                                                               
FA3000576259000011120220812202200000000016567200000000016567200000000000000000000000000000000000000000000081220220 88  ICMS ST PECAS                                                               
FA3000576260000011120220812202200000000004320100000000004320100000000000000000000000000000000000000000000081220220 88  ICMS ST PECAS                                                               
FA3000574204000011120220812202200000000003116500000000003116500000000000000000000000000000000000000000000081220220 88  ICMS ST PECAS                                                               
FA3000577362000011120220812202200000000000118000000000000118000000000000000000000000000000000000000000000081220220 88  ICMS ST PECAS                                                               
FA3000576019000011120220812202200000000001054500000000001054500000000000000000000000000000000000000000000081220220 88  ICMS ST PECAS                                                               
FA3000575643000011120220812202200000000000144700000000000144700000000000000000000000000000000000000000000081220220 88  ICMS ST PECAS                                                               
FA3000575644000011120220812202200000000000129000000000000129000000000000000000000000000000000000000000000081220220 88  ICMS ST PECAS                                                               
FA3000574626000011120220812202200000000001422500000000001422500000000000000000000000000000000000000000000081220220 88  ICMS ST PECAS                                                               
FA3000574627000011120220812202200000000000638100000000000638100000000000000000000000000000000000000000000081220220 88  ICMS ST PECAS                                                               
FA3000574636000011120220812202200000000002902800000000002902800000000000000000000000000000000000000000000081220220 88  ICMS ST PECAS                                                               
FA3000575735000011120220812202200000000001113000000000001113000000000000000000000000000000000000000000000081220220 88  ICMS ST PECAS                                                               
FA3000582597000031120220812202200000000001054500000000001054500000000000000000000000000000000000000000000081220220 88  ICMS ST PECAS                                                               
FA3000582507000031120220812202200000000006970400000000006970400000000000000000000000000000000000000000000081220220 88  ICMS ST PECAS                                                               
FA3000582508000031120220812202200000000002832600000000002832600000000000000000000000000000000000000000000081220220 88  ICMS ST PECAS                                                               
FA3000582509000031120220812202200000000000153600000000000153600000000000000000000000000000000000000000000081220220 88  ICMS ST PECAS                                                               
FA3000581654000031120220812202200000000000334700000000000334700000000000000000000000000000000000000000000081220220 88  ICMS ST PECAS                                                               
FA3000581655000031120220812202200000000000146800000000000146800000000000000000000000000000000000000000000081220220 88  ICMS ST PECAS                                                               
FA3000581656000031120220812202200000000000679400000000000679400000000000000000000000000000000000000000000081220220 88  ICMS ST PECAS                                                               
FA3000579544000031120220812202200000000003299200000000003299200000000000000000000000000000000000000000000081220220 88  ICMS ST PECAS                                                               
FA3000579097000031120220812202200000000002162600000000002162600000000000000000000000000000000000000000000081220220 88  ICMS ST PECAS                                                               
FA3000579098000031120220812202200000000000209600000000000209600000000000000000000000000000000000000000000081220220 88  ICMS ST PECAS                                                               
FA3000579099000031120220812202200000000000479500000000000479500000000000000000000000000000000000000000000081220220 88  ICMS ST PECAS                                                               
FA3000579100000031120220812202200000000000678100000000000678100000000000000000000000000000000000000000000081220220 88  ICMS ST PECAS                                                               
FA3000581000000031120220812202200000000000923400000000000923400000000000000000000000000000000000000000000081220220 88  ICMS ST PECAS                                                               
FA3000578988000031120220812202200000000004127200000000004127200000000000000000000000000000000000000000000081220220 88  ICMS ST PECAS                                                               
FA3000579989000031120220812202200000000001086600000000001086600000000000000000000000000000000000000000000081220220 88  ICMS ST PECAS                                                               
FA3000580727000031120220812202200000000000370500000000000370500000000000000000000000000000000000000000000081220220 88  ICMS ST PECAS                                                               
FA3000579003000031120220812202200000000001419700000000001419700000000000000000000000000000000000000000000081220220 88  ICMS ST PECAS                                                               
FA3000580728000031120220812202200000000002196200000000002196200000000000000000000000000000000000000000000081220220 88  ICMS ST PECAS                                                               
FA3000580730000031120220812202200000000000310600000000000310600000000000000000000000000000000000000000000081220220 88  ICMS ST PECAS                                                               
FA3000579138000031120220812202200000000002992800000000002992800000000000000000000000000000000000000000000081220220 88  ICMS ST PECAS                                                               
FA3000579463000031120220812202200000000002218400000000002218400000000000000000000000000000000000000000000081220220 88  ICMS ST PECAS                                                               
FA3000387444000031120220812202200000000020160200000000020160200000000000000000000000000000000000000000000081220220 99  ICMS ST VEICULOS                                                            
FA3000388103000041120220812202200000000020270700000000020270700000000000000000000000000000000000000000000081220220 99  ICMS ST VEICULOS                                                            
FA3000586577000041120220812202200000000000732000000000000732000000000000000000000000000000000000000000000081220220 88  ICMS ST PECAS                                                               
FA3000586578000041120220812202200000000000065500000000000065500000000000000000000000000000000000000000000081220220 88  ICMS ST PECAS                                                               
FA3000585060000041120220812202200000000000279900000000000279900000000000000000000000000000000000000000000081220220 88  ICMS ST PECAS                                                               
FA3000585061000041120220812202200000000002007000000000002007000000000000000000000000000000000000000000000081220220 88  ICMS ST PECAS                                                               
FA3000585062000041120220812202200000000001646200000000001646200000000000000000000000000000000000000000000081220220 88  ICMS ST PECAS                                                               
FA3000585063000041120220812202200000000000181300000000000181300000000000000000000000000000000000000000000081220220 88  ICMS ST PECAS                                                               
FA3000585611000041120220812202200000000000112600000000000112600000000000000000000000000000000000000000000081220220 88  ICMS ST PECAS                                                               
FA3000583222000041120220812202200000000000157900000000000157900000000000000000000000000000000000000000000081220220 88  ICMS ST PECAS                                                               
FA3000583283000041120220812202200000000000321200000000000321200000000000000000000000000000000000000000000081220220 88  ICMS ST PECAS                                                               
FA3000583801000041120220812202200000000001086600000000001086600000000000000000000000000000000000000000000081220220 88  ICMS ST PECAS                                                               
FA3000583168000041120220812202200000000001629800000000001629800000000000000000000000000000000000000000000081220220 88  ICMS ST PECAS                                                               
FA3000583957000041120220812202200000000003273000000000003273000000000000000000000000000000000000000000000081220220 88  ICMS ST PECAS                                                               
FA3000583998000041120220812202200000000000386800000000000386800000000000000000000000000000000000000000000081220220 88  ICMS ST PECAS                                                               
FA3000583999000041120220812202200000000001911700000000001911700000000000000000000000000000000000000000000081220220 88  ICMS ST PECAS                                                               
FA3000582771000041120220812202200000000000349400000000000349400000000000000000000000000000000000000000000081220220 88  ICMS ST PECAS                                                               
FA3000389124000071120220812202200000000195029600000000195029600000000000000000000000000000000000000000000081220220 99  ICMS ST VEICULOS                                                            
FA3000587805000071120220812202200000000000574100000000000574100000000000000000000000000000000000000000000081220220 88  ICMS ST PECAS                                                               
FA3000587806000071120220812202200000000000241400000000000241400000000000000000000000000000000000000000000081220220 88  ICMS ST PECAS                                                               
FA3000588569000071120220812202200000000000954400000000000954400000000000000000000000000000000000000000000081220220 88  ICMS ST PECAS                                                               
FA3000588834000071120220812202200000000000374700000000000374700000000000000000000000000000000000000000000081220220 88  ICMS ST PECAS                                                               
FA3000588835000071120220812202200000000000121900000000000121900000000000000000000000000000000000000000000081220220 88  ICMS ST PECAS                                                               
FA3000588836000071120220812202200000000002258400000000002258400000000000000000000000000000000000000000000081220220 88  ICMS ST PECAS                                                               
FA3000587624000071120220812202200000000026121800000000026121800000000000000000000000000000000000000000000081220220 88  ICMS ST PECAS                                                               
FA3000587109000071120220812202200000000000199500000000000199500000000000000000000000000000000000000000000081220220 88  ICMS ST PECAS                                                               
FA3000589971000071120220812202200000000000744300000000000744300000000000000000000000000000000000000000000081220220 88  ICMS ST PECAS                                                               
FA3000590102000071120220812202200000000000936600000000000936600000000000000000000000000000000000000000000081220220 88  ICMS ST PECAS                                                               
FA3000587472000071120220812202200000000000473000000000000473000000000000000000000000000000000000000000000081220220 88  ICMS ST PECAS                                                               
FA3000590313000071120220812202200000000006072900000000006072900000000000000000000000000000000000000000000081220220 88  ICMS ST PECAS                                                               
FA3000590314000071120220812202200000000000153600000000000153600000000000000000000000000000000000000000000081220220 88  ICMS ST PECAS                                                               
FA3000594852000081120220812202200000000000203900000000000203900000000000000000000000000000000000000000000081220220 88  ICMS ST PECAS                                                               
FA3000594853000081120220812202200000000001748100000000001748100000000000000000000000000000000000000000000081220220 88  ICMS ST PECAS                                                               
FA3000594854000081120220812202200000000000077900000000000077900000000000000000000000000000000000000000000081220220 88  ICMS ST PECAS                                                               
FA3000594855000081120220812202200000000000088600000000000088600000000000000000000000000000000000000000000081220220 88  ICMS ST PECAS                                                               
FA3000593694000081120220812202200000000003007100000000003007100000000000000000000000000000000000000000000081220220 88  ICMS ST PECAS                                                               
FA3000595529000081120220812202200000000004741700000000004741700000000000000000000000000000000000000000000081220220 88  ICMS ST PECAS                                                               
FA3000595530000081120220812202200000000000615200000000000615200000000000000000000000000000000000000000000081220220 88  ICMS ST PECAS                                                               
FA3000595269000081120220812202200000000001606000000000001606000000000000000000000000000000000000000000000081220220 88  ICMS ST PECAS                                                               
FA3000595739000081120220812202200000000001743600000000001743600000000000000000000000000000000000000000000081220220 88  ICMS ST PECAS                                                               
FA3000595740000081120220812202200000000000229500000000000229500000000000000000000000000000000000000000000081220220 88  ICMS ST PECAS                                                               
FA3000595741000081120220812202200000000001793800000000001793800000000000000000000000000000000000000000000081220220 88  ICMS ST PECAS                                                               
FA3000595418000081120220812202200000000000885900000000000885900000000000000000000000000000000000000000000081220220 88  ICMS ST PECAS                                                               
FA3000593921000081120220812202200000000004964300000000004964300000000000000000000000000000000000000000000081220220 88  ICMS ST PECAS                                                               
FA3000594066000081120220812202200000000003273100000000003273100000000000000000000000000000000000000000000081220220 88  ICMS ST PECAS                                                               
FA3000594846000081120220812202200000000000530200000000000530200000000000000000000000000000000000000000000081220220 88  ICMS ST PECAS                                                               
FA3000593373000081120220812202200000000002744400000000002744400000000000000000000000000000000000000000000081220220 88  ICMS ST PECAS                                                               
FA3000593103000081120220812202200000000008163100000000008163100000000000000000000000000000000000000000000081220220 88  ICMS ST PECAS                                                               
FA3000593391000081120220812202200000000001207900000000001207900000000000000000000000000000000000000000000081220220 88  ICMS ST PECAS                                                               
FA3000593374000081120220812202200000000001648200000000001648200000000000000000000000000000000000000000000081220220 88  ICMS ST PECAS                                                               
FA3000593375000081120220812202200000000001536400000000001536400000000000000000000000000000000000000000000081220220 88  ICMS ST PECAS                                                               
FA3000593376000081120220812202200000000012477500000000012477500000000000000000000000000000000000000000000081220220 88  ICMS ST PECAS                                                               
FA3000593377000081120220812202200000000007197800000000007197800000000000000000000000000000000000000000000081220220 88  ICMS ST PECAS                                                               
FA3000593349000081120220812202200000000004063700000000004063700000000000000000000000000000000000000000000081220220 88  ICMS ST PECAS                                                               
FA3000593378000081120220812202200000000005328300000000005328300000000000000000000000000000000000000000000081220220 88  ICMS ST PECAS                                                               
FA3000593379000081120220812202200000000001661000000000001661000000000000000000000000000000000000000000000081220220 88  ICMS ST PECAS                                                               
FA3000593380000081120220812202200000000003207500000000003207500000000000000000000000000000000000000000000081220220 88  ICMS ST PECAS                                                               
FA3000592854000081120220812202200000000000499700000000000499700000000000000000000000000000000000000000000081220220 88  ICMS ST PECAS                                                               
FA3000592961000081120220812202200000000000433700000000000433700000000000000000000000000000000000000000000081220220 88  ICMS ST PECAS                                                               
FA3000592962000081120220812202200000000001014100000000001014100000000000000000000000000000000000000000000081220220 88  ICMS ST PECAS                                                               
FA3000592129000081120220812202200000000002507200000000002507200000000000000000000000000000000000000000000081220220 88  ICMS ST PECAS                                                               
FA3000592331000081120220812202200000000001137300000000001137300000000000000000000000000000000000000000000081220220 88  ICMS ST PECAS                                                               
FA3000592016000081120220812202200000000000065500000000000065500000000000000000000000000000000000000000000081220220 88  ICMS ST PECAS                                                               
FA3000591689000081120220812202200000000000104400000000000104400000000000000000000000000000000000000000000081220220 88  ICMS ST PECAS                                                               
FA3000592282000081120220812202200000000000200000000000000200000000000000000000000000000000000000000000000081220220 88  ICMS ST PECAS                                                               
FA3000592283000081120220812202200000000000169400000000000169400000000000000000000000000000000000000000000081220220 88  ICMS ST PECAS                                                               
FA3000593099000081120220812202200000000000728100000000000728100000000000000000000000000000000000000000000081220220 88  ICMS ST PECAS                                                               
FA3000593100000081120220812202200000000000816700000000000816700000000000000000000000000000000000000000000081220220 88  ICMS ST PECAS                                                               
FA3000591633000081120220812202200000000002245100000000002245100000000000000000000000000000000000000000000081220220 88  ICMS ST PECAS                                                               
FA3000591770000081120220812202200000000002156200000000002156200000000000000000000000000000000000000000000081220220 88  ICMS ST PECAS                                                               
FA3000590625000081120220812202200000000000632500000000000632500000000000000000000000000000000000000000000081220220 88  ICMS ST PECAS                                                               
FA3000590626000081120220812202200000000001143800000000001143800000000000000000000000000000000000000000000081220220 88  ICMS ST PECAS                                                               
FA3000592299000081120220812202200000000000626100000000000626100000000000000000000000000000000000000000000081220220 88  ICMS ST PECAS                                                               
FA3000591845000081120220812202200000000000184200000000000184200000000000000000000000000000000000000000000081220220 88  ICMS ST PECAS                                                               
FA3000591846000081120220812202200000000000414200000000000414200000000000000000000000000000000000000000000081220220 88  ICMS ST PECAS                                                               
FA3000591978000081120220812202200000000001470500000000001470500000000000000000000000000000000000000000000081220220 88  ICMS ST PECAS                                                               
FA3000592111000081120220812202200000000000167000000000000167000000000000000000000000000000000000000000000081220220 88  ICMS ST PECAS                                                               
FA3000591854000081120220812202200000000001947700000000001947700000000000000000000000000000000000000000000081220220 88  ICMS ST PECAS                                                               
FA3000599217000091120220812202200000000000905600000000000905600000000000000000000000000000000000000000000081220220 88  ICMS ST PECAS                                                               
FA3000761595000091120220812202200000000029034300000000029034300000000000000000000000000000000000000000000081220220 99  ICMS ST VEICULOS                                                            
FA3000391318000091120220812202200000000193740400000000193740400000000000000000000000000000000000000000000081220220 99  ICMS ST VEICULOS                                                            
FA3000392238000091120220812202200000000031230300000000031230300000000000000000000000000000000000000000000081220220 99  ICMS ST VEICULOS                                                            
FA3000598383000091120220812202200000000000705700000000000705700000000000000000000000000000000000000000000081220220 88  ICMS ST PECAS                                                               
FA3000598384000091120220812202200000000000156000000000000156000000000000000000000000000000000000000000000081220220 88  ICMS ST PECAS                                                               
FA3000597731000091120220812202200000000003640300000000003640300000000000000000000000000000000000000000000081220220 88  ICMS ST PECAS                                                               
FA3000596829000091120220812202200000000000803700000000000803700000000000000000000000000000000000000000000081220220 88  ICMS ST PECAS                                                               
FA3000597021000091120220812202200000000009033700000000009033700000000000000000000000000000000000000000000081220220 88  ICMS ST PECAS                                                               
FA3000597022000091120220812202200000000001174300000000001174300000000000000000000000000000000000000000000081220220 88  ICMS ST PECAS                                                               
FA3000598378000091120220812202200000000000834700000000000834700000000000000000000000000000000000000000000081220220 88  ICMS ST PECAS                                                               
FA3000598379000091120220812202200000000000121300000000000121300000000000000000000000000000000000000000000081220220 88  ICMS ST PECAS                                                               
FA3000596032000091120220812202200000000000612200000000000612200000000000000000000000000000000000000000000081220220 88  ICMS ST PECAS                                                               
FA3000596033000091120220812202200000000000899900000000000899900000000000000000000000000000000000000000000081220220 88  ICMS ST PECAS                                                               
FA3000392744000101120220812202200000000168418900000000168418900000000000000000000000000000000000000000000081220220 99  ICMS ST VEICULOS                                                            
FA3000604801000101120220812202200000000000045500000000000045500000000000000000000000000000000000000000000081220220 88  ICMS ST PECAS                                                               
FA3000762137000101120220812202200000000033341000000000033341000000000000000000000000000000000000000000000081220220 99  ICMS ST VEICULOS                                                            
FA3000604164000101120220812202200000000000911400000000000911400000000000000000000000000000000000000000000081220220 88  ICMS ST PECAS                                                               
FA3000604237000101120220812202200000000001114600000000001114600000000000000000000000000000000000000000000081220220 88  ICMS ST PECAS                                                               
FA3000604238000101120220812202200000000006139300000000006139300000000000000000000000000000000000000000000081220220 88  ICMS ST PECAS                                                               
FA3000604239000101120220812202200000000000044300000000000044300000000000000000000000000000000000000000000081220220 88  ICMS ST PECAS                                                               
FA3000604240000101120220812202200000000000107900000000000107900000000000000000000000000000000000000000000081220220 88  ICMS ST PECAS                                                               
FA3000392679000101120220812202200000000020160200000000020160200000000000000000000000000000000000000000000081220220 99  ICMS ST VEICULOS                                                            
FA3000601949000101120220812202200000000000232900000000000232900000000000000000000000000000000000000000000081220220 88  ICMS ST PECAS                                                               
FA3000603233000101120220812202200000000000198400000000000198400000000000000000000000000000000000000000000081220220 88  ICMS ST PECAS                                                               
FA3000602604000101120220812202200000000012024200000000012024200000000000000000000000000000000000000000000081220220 88  ICMS ST PECAS                                                               
FA3000603960000101120220812202200000000023345400000000023345400000000000000000000000000000000000000000000081220220 88  ICMS ST PECAS                                                               
