FHI00000000000000251120220000000000005101544         00                                                                                                                                            
FPI10000000000000241120220000000000005101544                                                                                                                                                       
FP9536345403CP2211       656391272311202225122022 WHT/  010080/  /   ANEL VEDAC   4016930000052000000000094000000000720000000180200000010000001002991573911000000      00000000000000      011102  
FP9536345403CP2211       656391272311202225122022 2QB/  253059/E /   TUBO         8421320000032500000015787000000582900000048574600000010005698002993320801000000      00000000000000      011102  
FP9536345403CP2211       656395402311202225122022 04E/  906262/AH/   SENSOR       9027100000000000000000000000000033710000008428200000010000100002993648111000000      00000000000000      011102  
FP9536345403CP2211       656404342411202226122022   N/  910827/01/   PARAFUSO     7318150000065000000001067000000006570000001642200000100000029002991610711000000      00000000000000      011102  
FPF100000000000006                                                                                                                                                                                 
FPI00000000000000241120220000000000005101544                                                                                                                                                       
FP5536662803CP2411       2411202224112022 2GP/  858832/A /KJ100000010000001  2GP/  858831/A /KJ100000010000000                     00000000000000                                          220800  
FP6528212011             05092022 030/  109243/Q /   000000600000011130                    000000000000000000                    000000000000000000B                                               
FP6532523511             14102022 2Q0/  698451/B /   000000100000021358 6Q0/  411314/Q /   000002000000002291                    000000000000000000B                                               
FP6532882703PVEX 22 Escal19102022 V03/  839124/AS/   000000100000233854                    000000000000000000                    000000000000000000B                                               
FP6532955503CP1910       19102022   G/  060567/A2/   000000100000032774                    000000000000000000                    000000000000000000B                                               
FP6533317611             22102022 6Q0/  411314/Q /   000002000000002291                    000000000000000000                    000000000000000000B                                               
FP6533422403CP2410       24102022 5Z0/  035710/  /   000000200000003426                    000000000000000000                    000000000000000000B                                               
FP6533616911             25102022 04C/  129620/A /   000001600000003351                    000000000000000000                    000000000000000000B                                               
FP6535602303CP1411       14112022   G/  060567/A2/   000000100000032774 030/  906034/AB/   000000100000037912 5U0/  881105/P /   000000100000040823B                                               
FP6535944603PVEX nov-22  18112022 ASE/  469760/00/000000000100000225614                    000000000000000000                    000000000000000000B                                               
FP6536265911             21112022 2QB/  919673/  /   000000100000006529                    000000000000000000                    000000000000000000B                                               
FP6536427111             22112022 5U0/  201153/A /   000000200000005709 6Q0/  959858/  /9B9000000100000003382                    000000000000000000B                                               
FP6536662803CP2411       24112022 2GP/  858832/A /KJ1000000100000003442                    000000000000000000                    000000000000000000B                                               
FP7261815901592          28092015   G/  052167/A4/   000012000000002024   G/  052195/R2/   000003600000003048   G/  052553/R6/   000000300000385805                                                
FP7265934401PVEX NOV     06112015   G/  052553/R6/   000000200000385805                    000000000000000000                    000000000000000000                                                
FP7359405901varejo em foc21052018   G/  052553/R6/   000000500000331772                    000000000000000000                    000000000000000000                                                
FP7535476411             11112022 5U0/  407625/B /   000000200000012789                    000000000000000000                    000000000000000000                                                
FP7536585311             23112022   N/  908560/01/   000005000000001041 04C/  905607/  /   000003600000002104 WHT/  003863/C /   000000200000037433                                                
FP7536662803CP2411       24112022 2GP/  858831/A /KJ1000000100000003442                    000000000000000000                    000000000000000000                                                
FPF000000000000021                                                                                                                                                                                 
FPI00000000000000241120220000000000005101544                                                                                                                                                       
FP6528212011             05092022 030/  109243/Q /   000000600000011130                    000000000000000000                    000000000000000000B                                               
FP6532523511             14102022 2Q0/  698451/B /   000000100000021358 6Q0/  411314/Q /   000002000000002291                    000000000000000000B                                               
FP6532882703PVEX 22 Escal19102022 V03/  839124/AS/   000000100000233854                    000000000000000000                    000000000000000000B                                               
FP6532955503CP1910       19102022   G/  060567/A2/   000000100000032774                    000000000000000000                    000000000000000000B                                               
FP6533317611             22102022 6Q0/  411314/Q /   000002000000002291                    000000000000000000                    000000000000000000B                                               
FP6533422403CP2410       24102022 5Z0/  035710/  /   000000200000003426                    000000000000000000                    000000000000000000B                                               
FP6533616911             25102022 04C/  129620/A /   000001600000003351                    000000000000000000                    000000000000000000B                                               
FP6535602303CP1411       14112022   G/  060567/A2/   000000100000032774 030/  906034/AB/   000000100000037912 5U0/  881105/P /   000000100000040823B                                               
FP6535944603PVEX nov-22  18112022 ASE/  469760/00/000000000100000225614                    000000000000000000                    000000000000000000B                                               
FP6536265911             21112022 2QB/  919673/  /   000000100000006529                    000000000000000000                    000000000000000000B                                               
FP6536427111             22112022 5U0/  201153/A /   000000200000005709 6Q0/  959858/  /9B9000000100000003382                    000000000000000000B                                               
FP6536662803CP2411       24112022 2GP/  858832/A /KJ1000000100000003442                    000000000000000000                    000000000000000000B                                               
FP7261815901592          28092015   G/  052167/A4/   000012000000002024   G/  052195/R2/   000003600000003048   G/  052553/R6/   000000300000385805                                                
FP7265934401PVEX NOV     06112015   G/  052553/R6/   000000200000385805                    000000000000000000                    000000000000000000                                                
FP7359405901varejo em foc21052018   G/  052553/R6/   000000500000331772                    000000000000000000                    000000000000000000                                                
FP7535476411             11112022 5U0/  407625/B /   000000200000012789                    000000000000000000                    000000000000000000                                                
FP7536585311             23112022   N/  908560/01/   000005000000001041 04C/  905607/  /   000003600000002104 WHT/  003863/C /   000000200000037433                                                
FP7536662803CP2411       24112022 2GP/  858831/A /KJ1000000100000003442                    000000000000000000                    000000000000000000                                                
FPF000000000000020                                                                                                                                                                                 
FRI10000000000000241120220000000000005101544                                                                                                                                                       
FR111000000000000000000000000000000000000000000000000000002990700-00000000000000+O                                                                                                         010699  
FR111000000000000000000000000000000000000000000000000000000000000+00000000000000+N                                                                                                         010699  
F060101 DOLAR REFERENCIAL DIARIO - VENDA                                                                                                                                                   300997  
F06022511202200000053149000000000000000000000000000000000000000000000000000000000000000000000000000000000000000000000000000000000000000000000000000000000000000000000000000000000          300997  
F060105 UFIR - UNIDADE FISCAL DE REFERENCIA                                                                                                                                                300997  
F06022511202200000010641000000000000000000000000000000000000000000000000000000000000000000000000000000000000000000000000000000000000000000000000000000000000000000000000000000000          300997  
F060114 IGPM - INDICE GERAL DE PRECOS DO MERCADO                                                                                                                                           300997  
F06022511202200008818318000000000000000000000000000000000000000000000000000000000000000000000000000000000000000000000000000000000000000000000000000000000000000000000000000000000          300997  
F060130 TRD - TAXA REFERENCIAL DIARIA                                                                                                                                                      300997  
F06022511202200000000134716200000000000000000000000000000000000000000000000000000000000000000000000000000000000000000000000000000000000000000000000000000000000000000000000000000          300997  
F060175 TABELA DE QCS PARA LIQUIDACAO DE DEBITOS EXCLUSIVAMENTE JUNTO AO CREDITO ROTATIVO                                                                                                  300997  
F06022511202200000261401231500000000000000000000000000000000000000000000000000000000000000000000000000000000000000000000000000000000000000000000000000000000000000000000000000000          300997  
F060178 TABELA DE QCIS PARA LIQUIDACAO DE DEBITOS EXCLUSIVAMENTE JUNTO AO CREDITO ROTATIVO - VEICULOS IMPORTADOS VW                                                                        300997  
F06022511202200000014729272000000000000000000000000000000000000000000000000000000000000000000000000000000000000000000000000000000000000000000000000000000000000000000000000000000          300997  
F060192 TABELA DE QCIS PARA LIQUIDACAO DE DEBITOS EXCLUSIVAMENTE JUNTO AO CREDITO ROTATIVO - VEICULOS IMPORT. SEAT                                                                         300997  
F06022511202200000014827648600000000000000000000000000000000000000000000000000000000000000000000000000000000000000000000000000000000000000000000000000000000000000000000000000000          300997  
F060196 TABELA DE QCIS PARA LIQUIDACAO DE DEBITOS EXCLUSIVAMENTE JUNTO AO CREDITO ROTATIVO - VEIC.IMPORT VW/96                                                                             300997  
F06022511202200000350306817500000000000000000000000000000000000000000000000000000000000000000000000000000000000000000000000000000000000000000000000000000000000000000000000000000          300997  
F0601101TABELA DE QCIS PARA LIQUIDACAO DE DEBITOS EXCLUSIVAMENTE JUNTO AO CREDITO ROTATIVO - VEICULO USADO                                                                                 300997  
F06022511202200000485229587800000000000000000000000000000000000000000000000000000000000000000000000000000000000000000000000000000000000000000000000000000000000000000000000000000          300997  
F0601105TABELA DE QCIS PARA LIQUIDACAO DE DEBITOS EXCLUSIVAMENTE JUNTO AO CREDITO ROTATIVO - VEICULOS AUDI                                                                                 300997  
F06022511202200000786340566400000000000000000000000000000000000000000000000000000000000000000000000000000000000000000000000000000000000000000000000000000000000000000000000000000          300997  
F0601106TABELA DE QCIS PARA LIQUIDACAO DE DEBITOS EXCLUSIVAMENTE JUNTO AO CREDITO ROTATIVO - PECAS                                                                                         300997  
F06022511202200001075379599800000000000000000000000000000000000000000000000000000000000000000000000000000000000000000000000000000000000000000000000000000000000000000000000000000          300997  
F0601109TABELA DE QCIS PARA LIQUIDACAO DE DEBITOS EXCLUSIVAMENTE JUNTO AO CREDITO ROTATIVO - CAMINHOES USADOS                                                                              300997  
F06022511202200001094751175400000000000000000000000000000000000000000000000000000000000000000000000000000000000000000000000000000000000000000000000000000000000000000000000000000          300997  
F0601110TABELA DE QCIS PARA LIQUIDACAO DE DEBITOS EXCLUSIVAMENTE JUNTO AO CREDITO ROTATIVO - AUDI USADOS                                                                                   300997  
F06022511202200000797339325500000000000000000000000000000000000000000000000000000000000000000000000000000000000000000000000000000000000000000000000000000000000000000000000000000          300997  
F0601111TABELA DE QCIS PARA LIQUIDACAO DE DEBITOS EXCLUSIVAMENTE JUNTO AO CREDITO ROTATIVO - SEAT USADOS                                                                                   300997  
F06022511202200000807565158900000000000000000000000000000000000000000000000000000000000000000000000000000000000000000000000000000000000000000000000000000000000000000000000000000          300997  
F0601115TABELA DE QCIS PARA LIQUIDACAO DE DEBITOS EXCLUSIVAMENTE JUNTO AO CREDITO ROTATIVO - QC COM BONUS                                                                                  300997  
F06022511202200000333407798200000000000000000000000000000000000000000000000000000000000000000000000000000000000000000000000000000000000000000000000000000000000000000000000000000          300997  
F0601116TABELA DE QCIS PARA LIQUIDACAO DE DEBITOS EXCLUSIVAMENTE JUNTO AO CREDITO ROTATIVO - QC DO BONUS ROTATIVO                                                                          300997  
F06022511202200000098453402600000000000000000000000000000000000000000000000000000000000000000000000000000000000000000000000000000000000000000000000000000000000000000000000000000          300997  
F0601117TABELA DE QCIS PARA LIQUIDACAO DE DEBITOS EXCLUSIVAMENTE JUNTO AO CREDITO ROTATIVO - QC FINANCIAMENTO ICMS                                                                         300997  
F06022511202200001075379602000000000000000000000000000000000000000000000000000000000000000000000000000000000000000000000000000000000000000000000000000000000000000000000000000000          300997  
F0601119TABELA DE QCIS PARA LIQUIDACAO DE DEBITOS EXCLUSIVAMENTE JUNTO AO CREDITO ROTATIVO - MULTA DE CONFISSAO DIV                                                                        300997  
F06022511202200000010000000000000000000000000000000000000000000000000000000000000000000000000000000000000000000000000000000000000000000000000000000000000000000000000000000000000          300997  
FRF100000000000040                                                                                                                                                                                 
FAI10000000000000251120220000000000005101544                                                                                                                                                       
FA100000000000000+00000000000000+00000000000000+00000000000000+00000000000000+00000000000000+00000000000000+00000000000000+00000000000000+                                                         
FA200000000000000+00000000000000+00000000000000+00000000000000+00000000000000+00000000000000+00000000000000+00000000000000+00000000000000+                                                         
FA3000576707000011120220812202200000000000463900000000000463900000000000000000000000000000000000000000000081220220 88  ICMS ST PECAS                                                               
FA3000578103000021120220812202200000000000071600000000000071600000000000000000000000000000000000000000000081220220 88  ICMS ST PECAS                                                               
FA3000578883000031120220812202200000000000095400000000000095400000000000000000000000000000000000000000000081220220 88  ICMS ST PECAS                                                               
FA3000580779000031120220812202200000000000190900000000000190900000000000000000000000000000000000000000000081220220 88  ICMS ST PECAS                                                               
FA3000581002000031120220812202200000000000923400000000000923400000000000000000000000000000000000000000000081220220 88  ICMS ST PECAS                                                               
FA3000584874000041120220812202200000000000603600000000000603600000000000000000000000000000000000000000000081220220 88  ICMS ST PECAS                                                               
FA3000589270000071120220812202200000000001191400000000001191400000000000000000000000000000000000000000000081220220 88  ICMS ST PECAS                                                               
FA3000590028000071120220812202200000000000234700000000000234700000000000000000000000000000000000000000000081220220 88  ICMS ST PECAS                                                               
FA3000590104000071120220812202200000000000250400000000000250400000000000000000000000000000000000000000000081220220 88  ICMS ST PECAS                                                               
FA3000590318000071120220812202200000000000120400000000000120400000000000000000000000000000000000000000000081220220 88  ICMS ST PECAS                                                               
FA3000594861000081120220812202200000000002220800000000002220800000000000000000000000000000000000000000000081220220 88  ICMS ST PECAS                                                               
FA3000594567000081120220812202200000000000573600000000000573600000000000000000000000000000000000000000000081220220 88  ICMS ST PECAS                                                               
FA3000593216000081120220812202200000000003402800000000003402800000000000000000000000000000000000000000000081220220 88  ICMS ST PECAS                                                               
FA3000593217000081120220812202200000000000722200000000000722200000000000000000000000000000000000000000000081220220 88  ICMS ST PECAS                                                               
FA3000593218000081120220812202200000000001435800000000001435800000000000000000000000000000000000000000000081220220 88  ICMS ST PECAS                                                               
FA3000592856000081120220812202200000000000611300000000000611300000000000000000000000000000000000000000000081220220 88  ICMS ST PECAS                                                               
FA3000591980000081120220812202200000000001470500000000001470500000000000000000000000000000000000000000000081220220 88  ICMS ST PECAS                                                               
FA3000604179000101120220812202200000000003832000000000003832000000000000000000000000000000000000000000000081220220 88  ICMS ST PECAS                                                               
FA3000602212000101120220812202200000000001133300000000001133300000000000000000000000000000000000000000000081220220 88  ICMS ST PECAS                                                               
FA3000603954000101120220812202200000000001410700000000001410700000000000000000000000000000000000000000000081220220 88  ICMS ST PECAS                                                               
FA3000602618000101120220812202200000000001501000000000001501000000000000000000000000000000000000000000000081220220 88  ICMS ST PECAS                                                               
FA3000608720000111120220812202200000000000229700000000000229700000000000000000000000000000000000000000000081220220 88  ICMS ST PECAS                                                               
FA3000611610000141120220812202200000000000109100000000000109100000000000000000000000000000000000000000000081220220 88  ICMS ST PECAS                                                               
FA3000611611000141120220812202200000000000031000000000000031000000000000000000000000000000000000000000000081220220 88  ICMS ST PECAS                                                               
FA3000611612000141120220812202200000000000381800000000000381800000000000000000000000000000000000000000000081220220 88  ICMS ST PECAS                                                               
FA3000613804000141120220812202200000000003458900000000003458900000000000000000000000000000000000000000000081220220 88  ICMS ST PECAS                                                               
FA3000617169000161120220812202200000000001983100000000001983100000000000000000000000000000000000000000000081220220 88  ICMS ST PECAS                                                               
FA3000617170000161120220812202200000000000536000000000000536000000000000000000000000000000000000000000000081220220 88  ICMS ST PECAS                                                               
FA3000618886000171120220812202200000000000974800000000000974800000000000000000000000000000000000000000000081220220 88  ICMS ST PECAS                                                               
FA3000624752000181120220812202200000000000641200000000000641200000000000000000000000000000000000000000000081220220 88  ICMS ST PECAS                                                               
FA3000624753000181120220812202200000000000497500000000000497500000000000000000000000000000000000000000000081220220 88  ICMS ST PECAS                                                               
FA3000624754000181120220812202200000000001530700000000001530700000000000000000000000000000000000000000000081220220 88  ICMS ST PECAS                                                               
FA3000624755000181120220812202200000000000161800000000000161800000000000000000000000000000000000000000000081220220 88  ICMS ST PECAS                                                               
FA3000631862000211120220812202200000000002315600000000002315600000000000000000000000000000000000000000000081220220 88  ICMS ST PECAS                                                               
FA3000633716000221120220812202200000000000698100000000000698100000000000000000000000000000000000000000000081220220 88  ICMS ST PECAS                                                               
FA3000633717000221120220812202200000000000572700000000000572700000000000000000000000000000000000000000000081220220 88  ICMS ST PECAS                                                               
FA3000635864000221120220812202200000000000096000000000000096000000000000000000000000000000000000000000000081220220 88  ICMS ST PECAS                                                               
FA3000635672000221120220812202200000000000370000000000000370000000000000000000000000000000000000000000000081220220 88  ICMS ST PECAS                                                               
FA3000638153000231120220812202200000000000650800000000000650800000000000000000000000000000000000000000000081220220 88  ICMS ST PECAS                                                               
FA3000638154000231120220812202200000000001577900000000001577900000000000000000000000000000000000000000000081220220 88  ICMS ST PECAS                                                               
FA3000638155000231120220812202200000000000708700000000000708700000000000000000000000000000000000000000000081220220 88  ICMS ST PECAS                                                               
FA3000639127000231120220812202200000000007448300000000007448300000000000000000000000000000000000000000000081220220 88  ICMS ST PECAS                                                               
FA3000639540000231120220812202200000000002088400000000002088400000000000000000000000000000000000000000000081220220 88  ICMS ST PECAS                                                               
FA3000640434000241120220812202200000000000437600000000000437600000000000000000000000000000000000000000000081220220 88  ICMS ST PECAS                                                               
FA3772861     0031120222012202200000000005710100000000005444600000000000000000000000000000000000000000000201220220 DZRVFAT. MISCELANEOUS                                                           
FA3773853     0041120222012202200000000005880000000000005606600000000000000000000000000000000000000000000201220220 DZRVFAT. MISCELANEOUS                                                           
FA3774315     0081120222012202200000000012890000000000012097200000000000000000000000000000000000000000000201220220 DZRVFAT. MISCELANEOUS                                                           
FA40000SALDO INICIAL                           000000000024112022C0000000042471069999SALDO FINAL                             000000000024112022C000000004247106                            040213  
FAF100000000000052                                                                                                                                                                                 
FAI10000000000000251120220000000000005101544                                                                                                                                                       
FNT00001544SERVOPA S.A. COMERCIO E IR CORONEL ELYSIO PEREIRA 523            PARANAGUA           ESTRADINHA                    PR83206-00                                                   101202  
FAF100000000000003                                                                                                                                                                                 
FHF000000000000144                                                                                                                                                                                 
