FHI00000000000000251120220000000000005100054         00                                                                                                                                            
FPI10000000000000241120220000000000005100054                                                                                                                                                       
FP9535274501PE1011       656384682311202225122022 2G5/  941661/A /   FAROL        8512201100097500000006047000000074420000006201900000010000718002987370101000000      00000000000000      011102  
FP9534829801PN07116      656384682311202225122022 2G5/  941661/A /   FAROL        8512201100097500000006047000000074420000006201900000010000718002987370501000000      00000000000000      011102  
FP9536410311             656384692311202225122022 5Z0/  941206/  /   FAROL        8512201100097500000002789000000034320000002860100000010000872002992555901000000      00000000000000      011102  
FP9535988201PN18111      656387132311202225122022 5U0/  853601/D /2ZZEMBLEMA VW   3926909000097500000001317000000016210000001350900000040000030002993708801000000      00000000000000      011102  
FP9536410311             656387182311202225122022 1SB/  853433/C /QHFFAIXA        3919909000097500000000867000000010670000000888800000040000002002993306301000000      00000000000000      011102  
FP9536410311             656387182311202225122022 1S0/  919275/C /BT5sensor       8543709900065000000005941000000036560000009140700000020000007002993309111000000      00000000000000      011102  
FP9535193411             656387182311202225122022 5U1/  820045/B /9B9REGULAGEM    8537109000097500000011183000000137640000011470200000040000220002993340701000000      00000000000000      011102  
FP9536410311             656387192311202225122022 04E/  103175/  /   VALVULA      8481300000000000000000000000000011020000002754600000020000020002993290111000000      00000000000000      011102  
FP9529878603CP2109       656391812311202225122022 1SB/  807305/  /   REFORCO      8708299900032500000000516000000019050000001587700000010003751002993766001000000      00000000000000      011102  
FP9536363703CP22111      656393922311202225122022 5Z4/  839170/  /   HASTE        8301600000000000000000000000000000430000000035900000010000024002993641601000000      00000000000000      011102  
FP9536363703CP22111      656393922311202225122022 5Z4/  839170/  /   HASTE        8301600000000000000000000000000000430000000035900000010000024002993641601000000      00000000000000      011102  
FP9536363703CP22111      656393922311202225122022 5Z4/  839170/  /   HASTE        8301600000000000000000000000000000430000000035900000010000024002993726201000000      00000000000000      011102  
FP9532657003CP17101      656396702311202225122022 5GB/  853671/  /RYPGRADE        8708299900032500000000519000000019180000001598300000010000840002987894801000000      00000000000000      011102  
FP9536363703CP22111      656396702311202225122022 311/  405661/1 /   CHAPA        8708999000032500000000070000000002590000000216200000100000150002991574401000000      00000000000000      011102  
FP9532657003CP17101      656396702311202225122022 5U7/  809905/  /CTRTAMPA        8708999000032500000000200000000007400000000616400000010000267002993128301000000      00000000000000      011102  
FP9536363703CP22111      656396702311202225122022 2GP/  837973/A /9B9COBERTURA    8708299900032500000000105000000003860000000321600000010000072002993128301000000      00000000000000      011102  
FP9536363703CP22111      656396702311202225122022 6EA/  419091/G /RIRVOLANTE      8708948100032500000003009000000111100000009258500000010001356002993128301000000      00000000000000      011102  
FP9536363703CP22111      656396702311202225122022 0A6/  409399/B /   RETENTOR     8708999000032500000000468000000005760000001439000000010000050002993128311000000      00000000000000      011102  
FP9536363703CP22111      656396702311202225122022 03L/  115629/G /   TUBO         8409999900032500000001162000000014300000003574500000010000077002993128311000000      00000000000000      011102  
FP9536363703CP22111      656396712311202225122022 171/  823395/  /   MANCAL       4016999000117000000000333000000001140000000284500000010000004002993128311000000      00000000000000      011102  
FP9536363703CP22111      656396712311202225122022 2GK/  867368/A /5APVEDACAO      3926909000097500000001184000000014570000001214500000010001002002993128301000000      00000000000000      011102  
FP9536363703CP22111      656396712311202225122022 311/  405625/1 /   ROLAMENTO    8482201000078000000001139000000017520000001460200000020000204002993128351000000      00000000000000      011102  
FP9536363703CP22111      656396712311202225122022 311/  405645/1 /   ROLAMENTO    8482201000078000000000997000000015330000001277700000020000172002993128351000000      00000000000000      011102  
FP9536363703CP22111      656396712311202225122022 5X0/  501247/  /   CAPA         7326190000065000000000151000000002790000000232100000020000044002993128301000000      00000000000000      011102  
FP9536363703CP22111      656396712311202225122022 1SB/  881405/D /EVFrevestimen   9401990000032500000000776000000028650000002387600000010000560002993128301000000      00000000000000      011102  
FP9536490501Est2311      656400102411202226122022 5X3/  819103/A /   GRADE        8708299900032500000004823000000178080000014839900000250000600002993377701000000      00000000000000      011102  
FP9536490501Est2311      656400102411202226122022 5X3/  819103/A /   GRADE        8708299900032500000004823000000178080000014839900000250000600002993377801000000      00000000000000      011102  
FP9536490501Est2311      656400122411202226122022 5U0/  821022/  /   paralama     8708299100032500000000890000000032870000002739300000010001770002993814501000000      00000000000000      011102  
FP9536490501Est2311      656400122411202226122022 5U0/  821022/  /   paralama     8708299100032500000000890000000032870000002739300000010001770002993814601000000      00000000000000      011102  
FP9536490501Est2311      656400122411202226122022 5U0/  821022/  /   paralama     8708299100032500000000890000000032870000002739300000010001770002993814701000000      00000000000000      011102  
FP9536490501Est2311      656400122411202226122022 5U0/  821022/  /   paralama     8708299100032500000000890000000032870000002739300000010001770002993814801000000      00000000000000      011102  
FP9536490501Est2311      656400122411202226122022 5U0/  821022/  /   paralama     8708299100032500000000890000000032870000002739300000010001770002993814901000000      00000000000000      011102  
FP9536532901PN2311       656400392411202226122022 5U0/  881375/  /   ASSENTO      9401990000032500000002682000000099050000008253800000100001200002990518501000000      00000000000000      011102  
FP9536490501Est2311      656400492411202226122022 5Z0/  819415/  /   DEFLETOR     8708299900032500000001268000000046810000003901200000100000400002993976101000000      00000000000000      011102  
FP9536532901PN2311       656400752411202226122022 5U7/  853095/  /9B9moldura      8708299900032500000000490000000018080000001506500000030000385002993917201000000      00000000000000      011102  
FP9536490501Est2311      656400812411202226122022 6EA/  831056/J /GRUPORTA        8708299300032500000003265000000120530000010044400000010014000002994051601000000      00000000000000      011102  
FP9536490501Est2311      656400812411202226122022 6EA/  831056/J /GRUPORTA        8708299300032500000003265000000120530000010044400000010014000002994051701000000      00000000000000      011102  
FP9536532901PN2311       656401102411202226122022 5Z6/  853542/B /9B9PECA CORTE   8708299900032500000000239000000008840000000736700000010000540002993918501000000      00000000000000      011102  
FP9536550703CP2311       656401112411202226122022 5U7/  853751/A /9B9FRISO        3926300000032500000000501000000018510000001542200000010001270002993978401000000      00000000000000      011102  
FP9536532901PN2311       656401162411202226122022 2GP/  853856/A /9B9REVESTIMEN   8708299900032500000001066000000039360000003279600000010001220002993977501000000      00000000000000      011102  
FP9536532901PN2311       656402172411202226122022 5Z0/  809961/N /   PROTETOR     8708299900032500000000412000000015200000001266500000020000936002993993201000000      00000000000000      011102  
FP9536490501Est2311      656403702411202226122022 6EC/  833055/C /GRUPORTA        8708299300032500000002641000000097520000008126800000010011415002938999801000000      00000000000000      011102  
FP9536490501Est2311      656403702411202226122022 6EC/  833055/C /GRUPORTA        8708299300032500000002641000000097520000008126800000010011415002938999901000000      00000000000000      011102  
FP9536490501Est2311      656403702411202226122022 6EC/  833055/C /GRUPORTA        8708299300032500000002641000000097520000008126800000010011415002986430901000000      00000000000000      011102  
FP9534646201PN0411       656404042411202226122022 5U7/  853050/D /MX1LOGOTIPO     3919909000097500000000687000000008460000000705100000020000015002993920801000000      00000000000000      011102  
FP9535430603CP11111      656404222411202226122022 6EA/  857705/A /RAACINTO 3 PT   8708210000032500000001222000000045140000003761300000010000745002993875301000000      00000000000000      011102  
FP9536490501Est2311      656405422411202226122022 6EA/  833055/L /GRUPORTA        8708299300032500000001632000000060270000005022200000010010370002986431701000000      00000000000000      011102  
FP9536490501Est2311      656405422411202226122022 6EA/  833055/L /GRUPORTA        8708299300032500000001632000000060270000005022200000010010370002986431801000000      00000000000000      011102  
FP9536490501Est2311      656405422411202226122022 6EA/  833055/L /GRUPORTA        8708299300032500000001632000000060270000005022200000010010370002994279001000000      00000000000000      011102  
FP9536532901PN2311       656405742411202226122022 2GP/  853855/A /9B9REVESTIMEN   8708299900032500000001066000000039360000003279600000010001220002994228601000000      00000000000000      011102  
FP9536490501Est2311      656409342411202226122022 5Z0/  821021/G /   paralama     8708299100032500000001632000000060270000005022200000010002400002994322001000000      00000000000000      011102  
FP9536490501Est2311      656409342411202226122022 5Z0/  821021/G /   paralama     8708299100032500000001632000000060270000005022200000010002400002994322101000000      00000000000000      011102  
FP9536532901PN2311       656409462411202226122022 5U6/  807417/AB/GRUCOBERTURA    8708100000032500000002671000000098620000008218000000010003445002994410001000000      00000000000000      011102  
FP9536490501Est2311      656409522411202226122022 5U4/  833055/D /GRUPORTA        8708299300032500000003561000000131490000010957400000010012600002994282101000000      00000000000000      011102  
FP9536490501Est2311      656409632411202226122022 5U4/  833056/D /GRUPORTA        8708299300032500000003561000000131490000010957400000010012600002994322501000000      00000000000000      011102  
FP9536490501Est2311      656409632411202226122022 5U4/  833056/D /GRUPORTA        8708299300032500000003561000000131490000010957400000010012600002994322601000000      00000000000000      011102  
FP9536490501Est2311      656409632411202226122022 5U4/  833056/D /GRUPORTA        8708299300032500000003561000000131490000010957400000010012600002994322701000000      00000000000000      011102  
FP9536490501Est2311      656409632411202226122022 5U4/  833056/D /GRUPORTA        8708299300032500000003561000000131490000010957400000010012600002994322801000000      00000000000000      011102  
FP9536490501Est2311      656409692411202226122022 5Q0/  121251/HS/   RADIADOR     8708910000032500000003252000000040020000010006000000010002186002994361511000000      00000000000000      011102  
FP9536490501Est2311      656409692411202226122022 5Q0/  121251/HS/   RADIADOR     8708910000032500000003252000000040020000010006000000010002186002994361611000000      00000000000000      011102  
FP9536490501Est2311      656409692411202226122022 5Q0/  121251/HS/   RADIADOR     8708910000032500000003252000000040020000010006000000010002186002994361711000000      00000000000000      011102  
FP9536237603CP2111       656410812411202226122022 2G6/  959752/BA/AIFCHAVE        8301600000000000000000000000000118480000009873300000010000038002993590101000000      00000000000000      011102  
FP9536532901PN2311       656414482411202226122022 2H0/  807184/A /   SUPORTE      8708100000032500000000406000000005000000001249100000010000092002993925911000000      00000000000000      011102  
FP9536532901PN2311       656414492411202226122022 5U0/  130295/  /   MANGUEIRA    8708999000032500000000345000000012740000001061800000010000051002993924901000000      00000000000000      011102  
FP9536532901PN2311       656414492411202226122022 5U0/  601155/F /Z31CALOTA       8708709000032500000000480000000017710000001475700000040001352002993924901000000      00000000000000      011102  
FP9536532901PN2311       656414492411202226122022 5U0/  805584/D /1NNmoldura      8708299900032500000000762000000028120000002343500000030000471002993924901000000      00000000000000      011102  
FP9536532901PN2311       656414492411202226122022 5U0/  853665/S /9B9COBERTURA    8708100000032500000000335000000012380000001031500000020000040002993924901000000      00000000000000      011102  
FP9536532901PN2311       656414492411202226122022 5U0/  853677/J /9B9GRADE        8708100000032500000001058000000039060000003254700000020002270002993924901000000      00000000000000      011102  
FP9536532901PN2311       656414492411202226122022 5U0/  955326/  /   BRA-O        8512900000097500000002695000000033170000002764100000080000480002993924901000000      00000000000000      011102  
FP9536532901PN2311       656414492411202226122022 5U6/  863463/  /1BSPORTA MALA   8708299900032500000000633000000023360000001947000000030004515002993924901000000      00000000000000      011102  
FP9536532901PN2311       656414492411202226122022 2H5/  807628/C /9B9PLACA FECH   8708100000032500000000215000000002640000000660400000010000032002993925911000000      00000000000000      011102  
FP9536532901PN2311       656414492411202226122022 2H6/  698451/A /   PAST FREIO   8708301900032500000003918000000048230000012056900000020004120002993925911000000      00000000000000      011102  
FP9536532901PN2311       656414492411202226122022 5U0/  805584/J /9B9moldura      8708299900032500000000232000000008570000000713900000010000130002993925901000000      00000000000000      011102  
FP9536532901PN2311       656414492411202226122022 5U0/  807239/  /   5u0          8708100000032500000000088000000003270000000272100000010000105002993925901000000      00000000000000      011102  
FP9536532901PN2311       656414492411202226122022 5U0/  807239/E /   REFORCO      8708100000032500000000076000000002820000000234700000010000090002993925901000000      00000000000000      011102  
FP9536532901PN2311       656414492411202226122022 5U0/  807240/  /   REFORCO      8708100000032500000000265000000009790000000816200000030000315002993925901000000      00000000000000      011102  
FP9536532901PN2311       656414492411202226122022 5U0/  807240/E /   REFORCO      8708100000032500000000085000000003130000000260700000010000095002993925901000000      00000000000000      011102  
FP9536532901PN2311       656414492411202226122022 5U0/  820159/B /   CANAL AR     8708299900032500000000067000000002470000000205700000020000310002993925901000000      00000000000000      011102  
FP9536532901PN2311       656414492411202226122022 5U0/  820160/B /   CANAL AR     8708299900032500000000074000000002730000000227900000020000242002993925901000000      00000000000000      011102  
FP9536532901PN2311       656414492411202226122022 5U0/  853665/H /9B9GRADE        8708100000032500000000081000000003000000000250200000010000215002993925901000000      00000000000000      011102  
FP9536532901PN2311       656414492411202226122022 5U0/  853665/P /9B9COBERTURA    8708100000032500000000174000000006410000000534200000010000140002993925901000000      00000000000000      011102  
FP9536532901PN2311       656414492411202226122022 5U0/  853666/P /9B9COBERTURA    8708100000032500000000174000000006410000000534200000010000145002993925901000000      00000000000000      011102  
FP9536532901PN2311       656414492411202226122022 5U1/  612041/R /   MANGUEIRA    8708309000032500000000130000000004810000000400800000010000065002993925901000000      00000000000000      011102  
FP9536532901PN2311       656414492411202226122022 2H6/  698151/A /   PAST FREIO   8708301900032500000008590000000105720000026430900000030009882002993926011000000      00000000000000      011102  
FP9536532901PN2311       656414492411202226122022 2QB/  413031/J /   AMORTE.GAS   8708800002104000000007447000000028640000007160400000020006352002993926011000000      00000000000000      011102  
FP9536532901PN2311       656414492411202226122022 5U0/  805584/  /9B9EXTENSOR     8708299900032500000000535000000019760000001646500000020000590002993926001000000      00000000000000      011102  
FP9536532901PN2311       656414492411202226122022 5U0/  820744/  /   MANGUEIRA    4009429000065000000004428000000081750000006812400000050001570002993926001000000      00000000000000      011102  
FP9536532901PN2311       656414492411202226122022 5U0/  915331/A /   CONSOLE      8708299900032500000000279000000010310000000859300000010000695002993926001000000      00000000000000      011102  
FP9536532901PN2311       656414492411202226122022 5U1/  863241/B /71NCONSOLE      8708299900032500000000225000000008310000000692300000010000590002993926001000000      00000000000000      011102  
FP9536532901PN2311       656414492411202226122022 5U4/  831721/A /1NNVEDACAO      4016101000117000000004205000000043130000003593900000040004524002993926001000000      00000000000000      011102  
FP9536532901PN2311       656414492411202226122022 2H1/  945096/J /   LANTERNA     8512202200097500000010727000000044010000011002400000010001350002993934311000000      00000000000000      011102  
FP9536532901PN2311       656414492411202226122022 5U0/  820159/A /   CANAL AR     8708299900032500000000167000000006180000000515200000050000725002993934301000000      00000000000000      011102  
FP9536532901PN2311       656414492411202226122022 5U0/  853653/G /041GRADE        8708299200032500000000660000000024360000002030400000010000680002993934301000000      00000000000000      011102  
FP9536532901PN2311       656414502411202226122022 3B0/  857561/B /Y20SUPORTE      3926909000097500000000982000000004030000001007300000020000010002993924911000000      00000000000000      011102  
FP9536532901PN2311       656414502411202226122022 5U0/  837113/D /9B9MACANETA     3926300000032500000000166000000006120000000510300000010000013002993924901000000      00000000000000      011102  
FP9536532901PN2311       656414502411202226122022 2Q0/  411314/  /   MANCAL       4016999000117000000000441000000004520000000376600000020000045002993925901000000      00000000000000      011102  
FP9536532901PN2311       656414502411202226122022 327/  837187/1 /1NNBOTAO        3926909000097500000000438000000005390000000449000000300000030002993925901000000      00000000000000      011102  
FP9536532901PN2311       656414502411202226122022 5U0/  201294/A /   tubulacao    3917390000032500000000630000000023250000001937700000020000044002993925901000000      00000000000000      011102  
FP9536532901PN2311       656414502411202226122022 5U0/  820803/K /   compressor   8414309100032500000005203000000192110000016009500000020005076002993925901000000      00000000000000      011102  
FP9536532901PN2311       656414502411202226122022 5U0/  853658/  /   ANEL COBER   3926300000032500000000309000000011390000000949300000020000025002993925901000000      00000000000000      011102  
FP9536532901PN2311       656414502411202226122022 5U0/  953235/C /1FRINTERRUPTO   8536509000097500000001112000000013680000001140100000020000034002993925901000000      00000000000000      011102  
FP9536532901PN2311       656414502411202226122022 5U1/  857968/A /71NCOBERTURA    3926909000097500000000163000000002010000000167600000010000062002993925901000000      00000000000000      011102  
FP9536532901PN2311       656414512411202226122022 533/  863288/A /   TIRAS        5602210000000000000000000000000002720000000680100000010000013002993925911000000      00000000000000      011102  
FP9536532901PN2311       656414522411202226122022 5U0/  959455/  /   VENTILADOR   8414599000000000000000000000000026550000002212700000010001635002993924901000000      00000000000000      011102  
FP9536532901PN2311       656414522411202226122022 5Q0/  122291/AB/   CONEXAO      3917409000000000000000000000000003140000000785600000010000040002993934311000000      00000000000000      011102  
FP9536532901PN2311       656414522411202226122022 5Q0/  122291/BB/   CONEXAO      3917409000000000000000000000000003070000000768200000010000030002993934311000000      00000000000000      011102  
FP9536410311             656414612411202226122022 2G5/  823186/A /   batente      8708999000032500000000451000000016660000001388500000020000480002993924901000000      00000000000000      011102  
FP9536410311             656414612411202226122022 5K0/  698151/B /   JG.PASTILH   8708301900032500000001879000000023120000005780800000010002208002993925911000000      00000000000000      011102  
FP9536532901PN2311       656414772411202226122022 5U0/  407365/A /   ALAVANCA     8708999000032500000000313000000011550000000962600000010000259002993792301000000      00000000000000      011102  
FP9536532901PN2311       656414772411202226122022 5X0/  823531/  /   CABO         8708999000032500000000204000000007530000000627200000020000270002993792301000000      00000000000000      011102  
FP9534829801PN07116      656414772411202226122022 2GK/  807050/  /   SUPORTE      8708299900032500000000360000000004440000001109200000020000084002993924911000000      00000000000000      011102  
FP9535003401PN08116      656414772411202226122022 2GK/  807050/  /   SUPORTE      8708299900032500000000180000000002220000000554600000010000042002993924911000000      00000000000000      011102  
FP9535162601PN09111      656414772411202226122022 036/  115636/D /   GUIA         8409919000032500000000539000000019910000001659100000250000025002993924901000000      00000000000000      011102  
FP9535866601PN17111      656414772411202226122022 030/  121016/A /   BOMBA AGUA   8413309000032500000000659000000024340000002028200000010000352002993924901000000      00000000000000      011102  
FP9536532901PN2311       656414772411202226122022 032/  107411/C /   PINO         8409919000032500000002313000000085390000007115500000200000610002993924901000000      00000000000000      011102  
FP9536532901PN2311       656414772411202226122022 03P/  109107/  /   PROTETOR     8409919000032500000002563000000031550000007887500000030000381002993924911000000      00000000000000      011102  
FP9536532901PN2311       656414772411202226122022 04C/  129709/A /   COLETOR      8409911500032500000001306000000048230000004018800000010000558002993924901000000      00000000000000      011102  
FP9536532901PN2311       656414772411202226122022 06H/  109509/Q /   TRILHO       8409919000032500000001146000000014110000003526400000030000224002993924911000000      00000000000000      011102  
FP9536532901PN2311       656414772411202226122022 06L/  121012/L /   bomba agua   8413309000032500000009130000000112370000028091400000030000831002993924911000000      00000000000000      011102  
FP9536532901PN2311       656414772411202226122022 06L/  121131/  /   BOCAL        8409919000032500000000816000000010040000002509700000040000014002993924911000000      00000000000000      011102  
FP9536532901PN2311       656414772411202226122022 1SB/  943021/  /   LUZ DE PLA   8512201900097500000000244000000003010000000250500000020000021002993924901000000      00000000000000      011102  
FP9536532901PN2311       656414772411202226122022 2G0/  853274/A /9B9COBERTURA    8708299900032500000000042000000001550000000129500000010000016002993924901000000      00000000000000      011102  
FP9536532901PN2311       656414772411202226122022 5U6/  945097/A /   luz freio    8512202200097500000001093000000013460000001121400000010000052002993924901000000      00000000000000      011102  
FP9536532901PN2311       656414772411202226122022 5U7/  809921/F /9B9COBERTURA    8708100000032500000000185000000006830000000569400000010000070002993924901000000      00000000000000      011102  
FP9536532901PN2311       656414772411202226122022 5U7/  809922/E /9B9COBERTURA    8708299900032500000000105000000003890000000324000000010000068002993924901000000      00000000000000      011102  
FP9536532901PN2311       656414772411202226122022 5U7/  827505/A /   FECHADURA    8301200000065000000001183000000021840000001820400000020000286002993924901000000      00000000000000      011102  
FP9536532901PN2311       656414772411202226122022 5X0/  711025/A /   SUPORTE      8708999000032500000000386000000014250000001187900000010000105002993924901000000      00000000000000      011102  
FP9536532901PN2311       656414772411202226122022 5Z0/  853665/H /9B9GRADE        8708100000032500000000133000000004920000000410400000010000120002993924901000000      00000000000000      011102  
FP9536532901PN2311       656414772411202226122022 5Z1/  857507/E /9B9ESPELHO      7009100000097500000001817000000022360000001863400000010000529002993924901000000      00000000000000      011102  
FP9536532901PN2311       656414772411202226122022 6Q4/  837477/C /5APVEDACAO      8708299900032500000000542000000020030000001668900000040000400002993924901000000      00000000000000      011102  
FP9536532901PN2311       656414772411202226122022 6Q4/  837478/C /5APVEDACAO      8708299900032500000000663000000024470000002039500000050000485002993924901000000      00000000000000      011102  
FP9536532901PN2311       656414772411202226122022 6RF/  412319/  /   BATENTE      8708800000032500000000352000000004330000001081800000100000500002993924911000000      00000000000000      011102  
FP9536532901PN2311       656414772411202226122022 02U/  311562/J /   GARFOCAIXA   8708409000032500000001253000000015420000003856100000020000292002993925911000000      00000000000000      011102  
FP9536532901PN2311       656414772411202226122022 03L/  115105/F /   BOMBA OLEO   8413303000032500000004454000000054820000013705100000010000290002993925911000000      00000000000000      011102  
FP9536532901PN2311       656414772411202226122022 04E/  109244/D /   POLIA        8483501000078000000002305000000035450000002954500000030000255002993925901000000      00000000000000      011102  
FP9536532901PN2311       656414772411202226122022 06A/  121132/R /   FLANGE       8409919000032500000000772000000009500000002374400000030000150002993925911000000      00000000000000      011102  
FP9536532901PN2311       656414772411202226122022 06J/  903133/D /   ELEMTENSOR   8483509000078000000006428000000032960000008240800000020000680002993925911000000      00000000000000      011102  
FP9536532901PN2311       656414772411202226122022 06K/  109469/N /   TRILHO       8708299900032500000000272000000003350000000837200000010000006002993925911000000      00000000000000      011102  
FP9536532901PN2311       656414772411202226122022 1H0/  121321/C /   TAMPA        8708999000032500000001673000000020590000005148000000040000122002993925911000000      00000000000000      011102  
FP9536532901PN2311       656414772411202226122022 1SB/  823723/A /   VEDACAO      4016101000117000000000328000000003370000000280600000010000188002993925901000000      00000000000000      011102  
FP9536532901PN2311       656414772411202226122022 2G5/  854817/  /   EXTENSOR     8708299900032500000000358000000013210000001101200000020000516002993925901000000      00000000000000      011102  
FP9536532901PN2311       656414772411202226122022 2GM/  854731/  /9B9COBERTURA    8708299900032500000000315000000011620000000968200000020000428002993925901000000      00000000000000      011102  
FP9536532901PN2311       656414772411202226122022 2GM/  854820/  /9B9COBERTURA    8708299900032500000001173000000043310000003608800000030000627002993925901000000      00000000000000      011102  
FP9536532901PN2311       656414772411202226122022 2GP/  853666/B /9B9COBERTURA    8708100000032500000000432000000015940000001328000000030000150002993925901000000      00000000000000      011102  
FP9536532901PN2311       656414772411202226122022 2GP/  854940/B /9B9COBERTURA    8708299900032500000002397000000088520000007376800000050001595002993925901000000      00000000000000      011102  
FP9536532901PN2311       656414772411202226122022 5U7/  809921/E /9B9COBERTURA    8708299900032500000000316000000011670000000972100000030000203002993925901000000      00000000000000      011102  
FP9536532901PN2311       656414772411202226122022 5U7/  831721/G /1NNVEDACAO      4016101000117000000002223000000022800000001899900000020001200002993925901000000      00000000000000      011102  
FP9536532901PN2311       656414772411202226122022 5Z9/  867766/  /71NREVESTIMEN   8708299900032500000000285000000003510000000877000000010000059002993925911000000      00000000000000      011102  
FP9536532901PN2311       656414772411202226122022 5Z9/  959776/  /   ACIONAMEN    8501101900065000000000443000000008180000000681300000010000058002993925901000000      00000000000000      011102  
FP9536532901PN2311       656414772411202226122022 7X0/  201920/  /   RESERVATOR   8708999000032500000000275000000010170000000847500000020000449002993925901000000      00000000000000      011102  
FP9536532901PN2311       656414772411202226122022 7X0/  721361/  /   GUIACABO     8708999000032500000000407000000015010000001250900000030000306002993925901000000      00000000000000      011102  
FP9535668801PN1611       656414772411202226122022 5U0/  407615/  /   CUBO RODA    8708999000032500000000398000000014690000001223800000010000680002993926001000000      00000000000000      011102  
FP9536532901PN2311       656414772411202226122022 030/  145167/L /   SUPORTE      8708999000032500000000415000000015310000001276200000010000672002993926001000000      00000000000000      011102  
FP9536532901PN2311       656414772411202226122022 2GP/  857507/D /9B9alojamento   8708299900032500000003561000000131490000010957300000030001902002993926001000000      00000000000000      011102  
FP9536532901PN2311       656414772411202226122022 5U6/  945096/AF/   LANTERNA     8512202200097500000003000000000036920000003076800000010000508002993926001000000      00000000000000      011102  
FP9536532901PN2311       656414772411202226122022 5Z0/  807183/A /   SUPORTE      8708100000032500000000045000000001660000000138200000020000068002993926001000000      00000000000000      011102  
FP9536532901PN2311       656414772411202226122022 5Z1/  837015/AF/   FECHADURA    8301200000065000000001151000000021250000001770500000010000308002993926001000000      00000000000000      011102  
FP9536532901PN2311       656414772411202226122022 5Z6/  805583/  /9B9EXTENSOR     8708299900032500000000469000000017310000001442100000030000630002993926001000000      00000000000000      011102  
FP9536532901PN2311       656414772411202226122022 ZBC/  498081/B /   JG.ENGRENA   8708999000032500000008109000000299410000024950600000100004445002993926001000000      00000000000000      011102  
FP9536532901PN2311       656414772411202226122022 5U7/  807142/M /BAJTERMINAL     8708100000032500000001770000000065370000005447100000020000850002993934301000000      00000000000000      011102  
FP9536532901PN2311       656414772411202226122022 5U7/  807246/  /9B9COBERTURA    8708100000032500000000121000000004460000000371400000010000160002993934301000000      00000000000000      011102  
FP9536532901PN2311       656414772411202226122022 5Z0/  412341/  /   PRATO MOLA   8708999000032500000000161000000005930000000493900000030000258002993934301000000      00000000000000      011102  
FP9536532901PN2311       656414782411202226122022 LIT/  041451/70/   SELO         4911101000000000000000000000000276430000023035800030000003000002993792301000000      00000000000000      011102  
FP9536532901PN2311       656414782411202226122022 06J/  121132/G /   BOCAL        3917409000000000000000000000000003720000000930500000010000047002993924911000000      00000000000000      011102  
FP9534174301PN3110       656414782411202226122022 1K0/  122291/C /   CONEXAO      3917409000000000000000000000000003310000000826500000010000030002993925911000000      00000000000000      011102  
FP9535162601PN09111      656414782411202226122022 1K0/  122291/C /   CONEXAO      3917409000000000000000000000000003310000000826500000010000030002993925911000000      00000000000000      011102  
FP9534174301PN3110       656414782411202226122022 5Q0/  122291/DA/   CONEXAO      3917409000000000000000000000000002900000000724300000010000096002993925911000000      00000000000000      011102  
FP9536532901PN2311       656414782411202226122022 06H/  103495/AH/   SEPARADOR    8421299000000000000000000000000032790000008197100000010000385002993925911000000      00000000000000      011102  
FP9536532901PN2311       656414782411202226122022   N/  907944/01/   PECA EM T    3917409000000000000000000000000001170000000292000000010000023002993925911000000      00000000000000      011102  
FP9533350501PN24101      656414782411202226122022 04C/  115611/F /   VARETA       9026102900000000000000000000000001280000000106900000010000025002993926001000000      00000000000000      011102  
FP9536532901PN2311       656414792411202226122022 02M/  301189/L /   ANEL         4016930000052000000000562000000004320000001079900000020000040002993792311000000      00000000000000      011102  
FP9536532901PN2311       656414792411202226122022 5U0/  129618/  /   MANGUEIRA    3917390000032500000001030000000038040000003170400000060000900002993792301000000      00000000000000      011102  
FP9536532901PN2311       656414792411202226122022 5U5/  945105/  /   REFLETOR     3926300000032500000000652000000008020000002005000000100000520002993792311000000      00000000000000      011102  
FP9536532901PN2311       656414792411202226122022 5U5/  945106/  /   REFLETOR     3926300000032500000000586000000007220000001804400000090000540002993792311000000      00000000000000      011102  
FP9536532901PN2311       656414792411202226122022 5Z4/  853754/G /GRUPROTECAO     3926300000032500000000197000000007260000000605100000010000049002993792301000000      00000000000000      011102  
FP9536298901PN22110      656414792411202226122022 WHT/  001865/  /   PARAFUSO     7318150000065000000014956000000276120000023009800004000026000002993924901000000      00000000000000      011102  
FP9535162601PN09111      656414792411202226122022 WHT/  007089/  /   PARAFUSO     7318150000065000000003087000000019000000004749400000250001750002993924911000000      00000000000000      011102  
FP9536532901PN2311       656414792411202226122022 059/  103484/J /   VEDACAO      4016930000052000000000560000000004310000001077300000010000042002993924911000000      00000000000000      011102  
FP9536532901PN2311       656414792411202226122022 06K/  109158/BJ/   corrente     7315121000150000000005516000000014710000003677300000010000448002993924911000000      00000000000000      011102  
FP9536532901PN2311       656414792411202226122022 1J0/  919133/B /   ANEL         4016930000052000000000992000000007630000001906900000060000240002993924911000000      00000000000000      011102  
FP9536532901PN2311       656414792411202226122022 2H0/  525345/  /   ANEL         4016930000052000000002706000000062460000005204600000030000150002993924901000000      00000000000000      011102  
FP9536532901PN2311       656414792411202226122022 5U7/  853501/  /   moldura      3926300000032500000000297000000010950000000912500000010000501002993924901000000      00000000000000      011102  
FP9536532901PN2311       656414792411202226122022 5Z0/  853685/G /GQFLOGOTIPO     3926300000032500000000154000000005680000000473300000020000020002993924901000000      00000000000000      011102  
FP9536532901PN2311       656414792411202226122022   N/  907850/02/   PARAFUSO     7318150000065000000000472000000002910000000726600000300000150002993924911000000      00000000000000      011102  
FP9534174301PN3110       656414792411202226122022 049/  103385/3 /   PARAFUSO     7318150000065000000001139000000021020000001751700000200001660002993925901000000      00000000000000      011102  
FP9528529401PN0909       656414792411202226122022 5U0/  937537/A /   CAIXA        8536410000032500000000725000000026760000002230200000010000245002993925901000000      00000000000000      011102  
FP9529806701PN2109       656414792411202226122022 5U0/  937537/A /   CAIXA        8536410000032500000000725000000026760000002230200000010000245002993925901000000      00000000000000      011102  
FP9530209501PN23091      656414792411202226122022 5U0/  937537/A /   CAIXA        8536410000032500000004349000000160570000013381100000060001470002993925901000000      00000000000000      011102  
FP9530609401PN27091      656414792411202226122022 5U0/  937537/A /   CAIXA        8536410000032500000000725000000026760000002230200000010000245002993925901000000      00000000000000      011102  
FP9530714801PN2809       656414792411202226122022 5U0/  937537/A /   CAIXA        8536410000032500000002899000000107050000008920800000040000980002993925901000000      00000000000000      011102  
FP9534174301PN3110       656414792411202226122022 5U0/  937537/A /   CAIXA        8536410000032500000000725000000026760000002230200000010000245002993925901000000      00000000000000      011102  
FP9534646201PN0411       656414792411202226122022 5U0/  937537/A /   CAIXA        8536410000032500000002174000000080290000006690500000030000735002993925901000000      00000000000000      011102  
FP9534646201PN0411       656414792411202226122022 WHT/  007089/  /   PARAFUSO     7318150000065000000003087000000019000000004749400000250001750002993925911000000      00000000000000      011102  
FP9534941201PN0811       656414792411202226122022 5U0/  937537/A /   CAIXA        8536410000032500000000725000000026760000002230200000010000245002993925901000000      00000000000000      011102  
FP9536532901PN2311       656414792411202226122022 013/  301227/  /   1NEL         4016930000052000000000497000000011480000000956600000100000030002993925901000000      00000000000000      011102  
FP9536532901PN2311       656414792411202226122022 030/  253039/K /   VEDACAO      8484100000078000000000187000000002870000000239500000010000045002993925901000000      00000000000000      011102  
FP9536532901PN2311       656414792411202226122022 04E/  121119/AN/   ANEL         4016930000052000000000087000000002000000000166900000010000006002993925901000000      00000000000000      011102  
FP9536532901PN2311       656414792411202226122022 06H/  103121/F /   VEDACAO      7326190000065000000000142000000000880000000218900000010000005002993925911000000      00000000000000      011102  
FP9536532901PN2311       656414792411202226122022 06J/  115679/E /   TUBO         3917390000032500000000489000000006010000001503500000020000036002993925911000000      00000000000000      011102  
FP9536532901PN2311       656414792411202226122022 06K/  109158/BR/   corrente     7315121000150000000009803000000026140000006535100000010000450002993925911000000      00000000000000      011102  
FP9536532901PN2311       656414792411202226122022 06K/  133073/  /   VEDACAO      4016930000052000000000521000000004010000001002300000010000005002993925911000000      00000000000000      011102  
FP9536532901PN2311       656414792411202226122022 06L/  117070/  /   VEDACAO      4016930000052000000000213000000001640000000409000000010000005002993925911000000      00000000000000      011102  
FP9536532901PN2311       656414792411202226122022 1S0/  881606/B /82VMACANETA     3926300000032500000000329000000012150000001012300000010000073002993925901000000      00000000000000      011102  
FP9536532901PN2311       656414792411202226122022 2GP/  853331/  /2ZZFRISO        3926300000032500000000779000000028770000002397200000010000104002993925901000000      00000000000000      011102  
FP9536532901PN2311       656414792411202226122022 5U7/  853415/  /MY2ADESIVO      3919909000097500000000275000000003390000000282200000040000032002993925901000000      00000000000000      011102  
FP9536532901PN2311       656414792411202226122022 5Z0/  129684/A /   TUBO         3917390000032500000000266000000009810000000817900000010000125002993925901000000      00000000000000      011102  
FP9536532901PN2311       656414792411202226122022 5Z0/  837113/G /QA4MACANETA     3926300000032500000000350000000012910000001076100000020000180002993925901000000      00000000000000      011102  
FP9536532901PN2311       656414792411202226122022 5Z1/  857537/C /GRUcapa espe.   3926909000097500000000287000000003530000000294000000010000110002993925901000000      00000000000000      011102  
FP9536532901PN2311       656414792411202226122022 5Z4/  837477/  /1NNVEDACAO      4016999000117000000000371000000003810000000317500000010000117002993925901000000      00000000000000      011102  
FP9536532901PN2311       656414792411202226122022 801/  867299/  /1NNCLIP         3926909000097500000000898000000011060000000921400001200000120002993925901000000      00000000000000      011102  
FP9536532901PN2311       656414792411202226122022   N/  902154/04/   TAMP.ROSCA   7318150000065000000000597000000003670000000917900000050000256002993925911000000      00000000000000      011102  
FP9536532901PN2311       656414792411202226122022   N/  907653/01/   ANEL VEDAC   4016930000052000000000327000000002520000000629200000050000008002993925911000000      00000000000000      011102  
FP9536532901PN2311       656414792411202226122022   N/  907991/02/   parafuso     7318150000065000000001286000000007920000001978900000100000480002993925911000000      00000000000000      011102  
FP9536532901PN2311       656414792411202226122022 WHT/  005363/A /   ANEL         4016930000052000000001897000000014590000003648300000100000010002993925911000000      00000000000000      011102  
FP9534941201PN0811       656414792411202226122022 WHT/  007089/  /   PARAFUSO     7318150000065000000003087000000019000000004749400000250001750002993926011000000      00000000000000      011102  
FP9536532901PN2311       656414792411202226122022 02E/  305051/C /   ELEM FILTR   8421999900052000000004684000000036030000009007300000100000850002993926011000000      00000000000000      011102  
FP9536532901PN2311       656414792411202226122022 041/  103383/  /   JUNTACABEC   8484100000078000000008210000000126300000010525000000100002850002993926001000000      00000000000000      011102  
FP9535274501PE1011       656414792411202226122022 2GJ/  945105/A /   REFLETOR     3926300000032500000000149000000001840000000459500000010000052002993934311000000      00000000000000      011102  
FP9533425801Est2410      656414792411202226122022 032/  103383/N /   JUNTA CABE   8484100000078000000000182000000002790000000232800000010000077002993934301000000      00000000000000      011102  
FP9534646201PN0411       656414792411202226122022   N/  108676/01/   GRAMPO       7326909000050000000000374000000002990000000747200000250000019002993934311000000      00000000000000      011102  
FP9535162601PN09111      656414792411202226122022   N/  108676/01/   GRAMPO       7326909000050000000000374000000002990000000747200000250000019002993934311000000      00000000000000      011102  
FP9536298901PN22110      656414792411202226122022 5U0/  937548/A /   CAIXA        8538100000097500000001193000000014690000001224000000010000213002993934301000000      00000000000000      011102  
FP9536532901PN2311       656414792411202226122022 03L/  103085/C /   RADIAL       4016930000052000000001176000000009050000002262100000010000015002993934311000000      00000000000000      011102  
FP9536532901PN2311       656414792411202226122022 04L/  130216/  /   Pe-a fixa.   7326909000050000000000793000000006340000001585700000010000190002993934311000000      00000000000000      011102  
FP9536532901PN2311       656414792411202226122022 06K/  103583/  /   VEDACAO      4016930000052000000000464000000003570000000891500000010000020002993934311000000      00000000000000      011102  
FP9536532901PN2311       656414792411202226122022 085/  398008/  /   JG.ANEL      7318290000065000000001618000000009950000002488500000020000040002993934311000000      00000000000000      011102  
FP9536532901PN2311       656414792411202226122022 5U7/  853675/A /739LOGOTIPO     3926909000097500000000182000000002240000000186800000010000010002993934301000000      00000000000000      011102  
FP9536532901PN2311       656414792411202226122022   N/  900956/03/   ANEL         7318210000065000000000694000000012810000001067200000500000050002993934301000000      00000000000000      011102  
FP9536532901PN2311       656414802411202226122022 030/  103464/A /   SEPARADOR    8414903900000000000000000000000065450000005454500000090000215002993924901000000      00000000000000      011102  
FP9536532901PN2311       656414812411202226122022 032/  121110/C /   VALVULA      8481802100000000000000000000000007890000001971300000010000070002993925911000000      00000000000000      011102  
FP9536532901PN2311       656414822411202226122022 06H/  145255/F /   POLIA        8483501000078000000001230000000006310000001576400000010000019002993925911000000      00000000000000      011102  
FP9536532901PN2311       656414822411202226122022 03L/  109145/B /   COBERTURA    8409919000032500000006811000000083830000020957700000060000286002993926011000000      00000000000000      011102  
FP9536532901PN2311       656414822411202226122022 06K/  109467/K /   TENSOR       8409919000032500000001335000000016440000004109200000010000022002993934311000000      00000000000000      011102  
FP9536532901PN2311       656414832411202226122022 03L/  129717/D /   VEDACAO      8484100000078000000001324000000006790000001697800000010000027002993924911000000      00000000000000      011102  
FP9536532901PN2311       656414832411202226122022 04E/  919081/A /   INTERRUPTO   8536509000097500000004950000000020310000005076900000040000120002993925911000000      00000000000000      011102  
FP9536532901PN2311       656414832411202226122022 1C0/  945511/A /RDWINTERRUPTO   8536509000097500000001073000000004400000001100700000010000035002993925911000000      00000000000000      011102  
FP9536532901PN2311       656414832411202226122022 7P0/  898955/  /   JG.FIXACAO   7318150000065000000005230000000032180000008046000000030000165002993925911000000      00000000000000      011102  
FP9536532901PN2311       656414852411202226122022 1SB/  807258/C /9B9COBERTURA    8708299900032500000000442000000016320000001360200000020000135002957932401000000      00000000000000      011102  
FPF100000000000240                                                                                                                                                                                 
FPI10000000000000241120220000000000005100054                                                                                                                                                       
FP9528529401PN0909       227277271509202215102022 032/  905409/B /   JOGO CABOS   85443000000000000000000000000002127600000177300000001003700000000000000000000005X039645990181000189      011102  
FP9528529401PN0909       013992191209202211102022   G/  JZZ107/M2/BRAOLEO MOTOR   27101932000000000000000000000000000000000233268000008403330000000000000000000005X4H8341778008000160      011102  
FP9533350501PN24101      227445792710202226112022 03L/  130755/A /   BOMBA        84133090000325000000077220000000950300000245308000000128500000000000000000000005X039645990181000189      011102  
FP9534941201PN0811       010011100911202209122022   G/  060175/A2/   OLEO         27101932000000000000000000000000000000001256560000002008060000000000000000000005XEHD602328237000121      011102  
FP9535553401AC01411      001113272411202224122022 5U0/  061270/  /1NNJG.TAPETE    57050000000650000000020050000000370200000032851000000221700000000000000000000005X223A12475660000108      011102  
FP9535553401AC01411      001113272411202224122022 1S4/  061500/  /1NNJG.TAPETE    87082999000325000000007110000000262600000022593000000232000000000000000000000005X223A12475660000108      011102  
FP9535553401AC01411      001113272411202224122022 5U7/  061500/  /1NNJG.TAPETE    87082999000325000000032400000001196400000102940000001017200000000000000000000005X223A12475660000108      011102  
FP9535553401AC01411      001113272411202224122022 5U7/  061500/A /1NNJG.TAPETE    87082999000325000000014220000000525200000045186000000429700000000000000000000005X223A12475660000108      011102  
FP9535553401AC01411      001113272411202224122022 6EA/  061500/  /   JG.TAPETE    40169990050325000000253070000009344200000803987000007029580000000000000000000005X223A12475660000108      011102  
FP9535553401AC01411      001113272411202224122022 6EA/  061270/  /   TAPETES      57050000000650000000052450000000968300000085940000000522980000000000000000000005X223A12475660000108      011102  
FP9535553401AC01411      001113272411202224122022 2H7/  061500/  /041JG.TAPETE    87082999000325000000164480000006073000000522528000004039400000000000000000000005X223A12475660000108      011102  
FP9535553401AC01411      001113272411202224122022 17B/  061500/  /   JG.TAPETE    40169990000325000000012970000000478900000041205000000230460000000000000000000005X223A12475660000108      011102  
FP9535553401AC01411      001113272411202224122022 2GP/  061270/  /   TAPETES      57050000000650000000021770000000401900000035667000000223480000000000000000000005X223A12475660000108      011102  
FP9535553401AC01411      001113272411202224122022 2GP/  061163/  /   TAPETE       40169990050325000000011190000000413300000035561000000200960000000000000000000005X223A12475660000108      011102  
FP9535553401AC01411      001113272411202224122022 2GP/  061163/B /   TAPETE       40169990050325000000011190000000413300000035561000000217620000000000000000000005X223A12475660000108      011102  
FP9535553401AC01411      001113272411202224122022 2G5/  061163/  /   TAPETE       40169990050325000000058090000002144900000184549000001023850000000000000000000005X223A12475660000108      011102  
FP9535553401AC01411      001113272411202224122022 2GK/  061160/  /   TAPETE       87089990000325000000034470000001272900000109521000000622500000000000000000000005X223A12475660000108      011102  
FPF100000000000019                                                                                                                                                                                 
FPI00000000000000241120220000000000005100054                                                                                                                                                       
FP5536593501PL02411      2411202224112022 2QB/  601307/N /RPI00000240000000H                    00000000000000                     00000000000000                                          220800  
FP5536668703CP2411       2411202224112022 7X0/  012219/  /   00000010000000  7X0/  011031/  /   00000010000000  5U0/  955023/A /   00000010000000                                          220800  
FP5536668703CP2411       2411202224112022 5C5/  945702/B /   00000010000000  3C8/  949102/D /   00000010000000  2QB/  881046/C /   00000010000000                                          220800  
FP5536668703CP2411       2411202224112022 2QB/  253059/E /   00000010000000  2Q0/  253141/C /   00000010000000  2GP/  827577/  /FOD00000010000001                                          220800  
FP5536668703CP2411       2411202224112022 2GP/  601025/A /04100000040000000  2G5/  845298/  /NVB00000010000000  217/  807335/1 /   00000020000000                                          220800  
FP5536668703CP2411       2411202224112022 17B/  713203/E /TVJ00000010000000    N/  907988/05/   00000050000000    N/  907912/01/   00000050000000                                          220800  
FP5536668700CP2411       2411202224112022   N/  106451/02/   00000010000001  6EA/  035710/  /   00000040000000F                    00000000000000                                          220800  
FP6501899801FE1201       12012022 ASE/  401605/00/000000000100000071246                    000000000000000000                    000000000000000000B                                               
FP6517999201FE0706       07062022 ASE/  485432/00/000000000100000058398                    000000000000000000                    000000000000000000B                                               
FP6524699612101- LEIL-O  05082022 1J0/  807719/G /GRU000000500000001557 1J6/  807521/  /B41000002700000003399 5X3/  941043/  /   000000200000009374B                                               
FP6526931901AES2508      25082022 WHT/  003860/  /   000000400000027052 6Q0/  853274/A /9B9000003000000003666 030/  121111/T /   000000200000009726B                                               
FP6526991101PN25086      25082022 081/  311261/4 /   000000100000005613 1S0/  820803/E /   000000100000079563 2GJ/  854950/A /9B9000000100000023117B                                               
FP6526991101PN25086      25082022 5Z4/  831056/H /GRU000000100000152553                    000000000000000000                    000000000000000000B                                               
FP6527029611             25082022 053/  103623/  /   000000200000002869 113/  309311/1 /   000005000000000278                    000000000000000000B                                               
FP6527103401PE2608       26082022 5GB/  854661/  /RYP000000200000003561                    000000000000000000                    000000000000000000B                                               
FP6527223111             26082022 030/  129607/CH/   000000200000020152                    000000000000000000                    000000000000000000B                                               
FP6527470101PN3008       30082022 1SB/  819703/  /ITZ000000200000003612 2GM/  821136/  /GRU000000100000004498 5Z4/  853515/G /GRU000000100000008830B                                               
FP6527658401PN3108       31082022 2GP/  998002/A /   000000200000012507                    000000000000000000                    000000000000000000B                                               
FP6527736611             31082022 2H1/  941016/L /   000000200000063301                    000000000000000000                    000000000000000000B                                               
FP6528196011             05092022 1SB/  831055/A /GRU000000100000187135 305/  611707/1 /   000000600000003688 5C6/  807109/C /   000000100000140823B                                               
FP6528196011             05092022 5Z0/  122447/F /   000000100000005190 6Q0/  857521/E /   000000200000006631                    000000000000000000B                                               
FP6528236701PN0609       06092022 1SB/  941016/F /   000000100000036526 17A/  821112/B /   000000100000008906                    000000000000000000B                                               
FP6528344511             06092022 04E/  998907/A /   000000400000012619                    000000000000000000                    000000000000000000B                                               
FP6528529401PN0909       09092022   G/  055512/A2/   000000200000010359 032/  109101/AG/   000000500000040776 5QM/  413031/AJ/   000000200000052960B                                               
FP6528529401PN0909       09092022 6EA/  853601/  /2ZZ000000100000005855                    000000000000000000                    000000000000000000B                                               
FP6528830401PN12094      12092022 6Q0/  867172/C /9B9000003000000000841 6EC/  853841/  /2ZZ000000100000007833 6EA/  853601/  /2ZZ000000200000005855B                                               
FP6528830401PN12094      12092022 6EA/  831056/H /GRU000000100000071370 6EA/  823031/  /GRU000000200000124121 5Z6/  807421/B /GRU000000100000088952B                                               
FP6528830401PN12094      12092022 5Z0/  941205/C /   000000100000043987 5U0/  941008/D /   000000100000056399 305/  611707/1 /   000000300000003763B                                               
FP6528830401PN12094      12092022 2H1/  941016/L /   000000100000064591                    000000000000000000                    000000000000000000B                                               
FP6528852211             12092022 5U5/  853995/  /739000000100000006783 5Z0/  807833/B /55U000000700000016576                    000000000000000000B                                               
FP6528964401PN13090      13092022 5U7/  945095/C /   000000100000025322 5U0/  941007/D /   000000100000056399 5G0/  853437/  /Y20000000200000003580B                                               
FP6528964401PN13090      13092022 5G0/  853437/  /82V000000200000003560 377/  807240/  /   000000300000003565 2GK/  807434/  /9B9000000100000065966B                                               
FP6528964401PN13090      13092022 1SB/  941016/A /   000000100000034011 1SB/  819703/  /ITZ000000200000003612                    000000000000000000B                                               
FP6529000811             13092022 04E/  998907/A /   000000400000012619 1H0/  253147/B /   000001200000001334 1JE/  945096/E /   000000200000039558B                                               
FP6529000811             13092022 5Z0/  955410/E /   000000200000005237 7X0/  129627/  /   000000100000007180                    000000000000000000B                                               
FP6529300911             15092022 1S0/  820803/E /   000000200000077972                    000000000000000000                    000000000000000000B                                               
FP6529380001PN1609       16092022   N/  013966/13/   000050000000000013 030/  109243/Q /   000002000000011357 032/  109101/AG/   000000200000040776B                                               
FP6529380001PN1609       16092022 032/  109101/AH/   000000200000039606 036/  103464/G /   000000500000015531 1SB/  805932/  /   000000100000001467B                                               
FP6529380001PN1609       16092022 5QM/  413031/AJ/   000000200000052960 5U7/  945095/C /   000000100000025322 5Z4/  853515/G /GRU000000100000008830B                                               
FP6529380001PN1609       16092022 6QE/  513353/  /   000003000000006392 APR/  807221/Q /GRU000000600000081081                    000000000000000000B                                               
FP6529449211             16092022   N/  013966/13/   000050000000000013                    000000000000000000                    000000000000000000B                                               
FP6529493511             17092022 JZZ/  413031/J /   000000300000034670                    000000000000000000                    000000000000000000B                                               
FP6529571601PN1909       19092022 2H1/  941016/K /   000000100000054669 5U7/  807421/D /GRU000000100000120011 5Z4/  831056/H /GRU000000200000152553B                                               
FP6529571601PN1909       19092022 6Q0/  867172/C /9B9000002000000000841                    000000000000000000                    000000000000000000B                                               
FP6529718501PN20091      20092022 2GJ/  854819/  /9B9000000100000023486                    000000000000000000                    000000000000000000B                                               
FP6529806701PN2109       21092022 6QE/  513353/  /   000001000000006392 5Z4/  853515/G /GRU000000200000008831 5U0/  880204/C /   000000100000027748B                                               
FP6529806701PN2109       21092022 5QM/  413031/AJ/   000000200000052960 2G5/  805911/A /   000000300000005822 1SB/  941016/A /   000000100000034011B                                               
FP6529806701PN2109       21092022 032/  109101/AH/   000000100000039607                    000000000000000000                    000000000000000000B                                               
FP6529821201PN21091      21092022 5U0/  941008/D /   000000100000056399                    000000000000000000                    000000000000000000B                                               
FP6529935511             21092022 1SB/  941015/F /   000000100000035796 5Z0/  122447/F /   000000100000005190 5Z6/  945105/A /   000000200000004119B                                               
FP6530160301PN23090      23092022 030/  129607/CH/   000000100000020563                    000000000000000000                    000000000000000000B                                               
FP6530209501PN23091      23092022 6EA/  853601/  /2ZZ000000100000005855 5Z6/  945701/A /   000000100000009606 5U0/  941008/D /   000000200000056400B                                               
FP6530209501PN23091      23092022 5U0/  880204/C /   000000100000027748 5U0/  513025/F /   000000400000012850 5QM/  413031/AJ/   000000300000052960B                                               
FP6530209501PN23091      23092022 2GP/  998002/A /   000000800000007144 032/  109101/AH/   000000100000039607                    000000000000000000B                                               
FP6530515301PN27096      27092022 6EA/  813301/  /GRU000000100000066394 5U1/  880202/F /BP0000000100000055124 2H1/  941016/K /   000000100000054669B                                               
FP6530515301PN27096      27092022 1SB/  941015/  /   000000100000037872 17B/  955426/  /03C000000100000012511 04C/  129601/B /   000000100000018694B                                               
FP6530515301PN27096      27092022 030/  129607/CH/   000000100000020563   D/  169300/M2/   000000100000009545                    000000000000000000B                                               
FP6530516703CP2709       27092022   G/  052150/A2/   000000100000007732                    000000000000000000                    000000000000000000B                                               
FP6530564303CP27091      27092022   G/  060567/A2/   000000100000032774   G/  065567/A2/   000000100000039468                    000000000000000000B                                               
FP6530577811             27092022   N/  100879/01/   000008000000000143 014/  311561/1 /   000000400000026644 1SB/  941015/F /   000000100000035796B                                               
FP6530609401PN27091      28092022 6QE/  513353/  /   000003000000006392 5Z0/  412331/C /   000000500000008218 5U0/  941008/D /   000000100000056399B                                               
FP6530609401PN27091      28092022 5U0/  513025/F /   000000400000012850 2Q0/  698451/B /   000000700000021792 2GP/  998002/A /   000000100000007144B                                               
FP6530609401PN27091      28092022 032/  121026/CP/   000003000000023058 032/  109101/AH/   000000100000039607 032/  109101/AG/   000000500000040776B                                               
FP6530714801PN2809       28092022 5U0/  513025/F /   000000500000012850 2Q0/  698451/B /   000000500000021793 2GP/  998002/A /   000000500000007144B                                               
FP6530714801PN2809       28092022 036/  103464/G /   000000500000015531 030/  109243/Q /   000001000000011357 032/  109101/AG/   000000200000040776B                                               
FP6530714801PN2809       28092022 032/  121026/CP/   000001500000023058 032/  109101/AH/   000000100000039607                    000000000000000000B                                               
FP6530720003CP2809       28092022 5Q0/  919275/B /9B9000000100000182249 2GJ/  854950/A /9B9000000100000023117                    000000000000000000B                                               
FP6530813811             29092022 1S0/  407152/A /   000000400000007638                    000000000000000000                    000000000000000000B                                               
FP6530865301Est2909      29092022 5U6/  827025/E /GRU000000200000130496                    000000000000000000                    000000000000000000B                                               
FP6530935503CP2909       29092022 5U1/  880202/F /NG9000000100000056889                    000000000000000000                    000000000000000000B                                               
FP6531015303CP3009       30092022 56D/  959442/  /   000000100000078329                    000000000000000000                    000000000000000000B                                               
FP6531109801Bestdrive 30.30092022 6EA/  071310/A /   000000100000010291                    000000000000000000                    000000000000000000B                                               
FP6531421103CP0410       04102022 2GJ/  858416/D /3LB000000100000228460 2GJ/  867012/G /ZLS000000100000244597                    000000000000000000B                                               
FP6531453203CP04101      04102022 6Q6/  839702/E /9B9000000100000007234 5Z9/  853685/  /   000000100000035849 5Z9/  807417/  /GRU000000100000385210B                                               
FP6531453203CP04101      04102022 1S0/  820803/E /   000000100000079563                    000000000000000000                    000000000000000000B                                               
FP6531461911             04102022 309/  201139/2 /   000001000000001928 7X0/  129627/  /   000000200000007181                    000000000000000000B                                               
FP6531507501PN0510       05102022 JZZ/  129620/B /   000010200000004994                    000000000000000000                    000000000000000000B                                               
FP6531701603CP0610       06102022   G/  052738/A2/   000000100000012205 5Q6/  407271/K /   000000100000194745                    000000000000000000B                                               
FP6531812003CP0710       07102022 2QB/  423510/Q /   000000100000281574                    000000000000000000                    000000000000000000B                                               
FP6532039301PE1110       11102022   G/  065175/A2/   000000300000033190                    000000000000000000                    000000000000000000B                                               
FP6532118603CP1110       11102022 1SB/  941016/A /   000000100000034011 2G5/  880241/D /   000000100000040767 5Z6/  853492/A /54V000000100000018907B                                               
FP6532125803CP11101      11102022 1JE/  945096/E /   000000100000040366 1SB/  819703/  /ITZ000000100000003613 1SB/  941016/A /   000000100000034011B                                               
FP6532125803CP11101      11102022 2GM/  821136/  /GRU000000100000004498 2H1/  941016/L /   000000100000064591                    000000000000000000B                                               
FP6532321503CP1310       13102022   G/  052145/S2/   000000100000019035 5QM/  413031/AJ/   000000100000052960                    000000000000000000B                                               
FP6532336311             13102022 5Z0/  941008/A /   000000100000069642 5U0/  805584/G /9B9000000200000005492 5U0/  413031/A /   000000200000033477B                                               
FP6532336311             13102022 1SB/  941015/A /   000000200000033331 1S0/  407151/A /   000000400000007638                    000000000000000000B                                               
FP6532403801PN1410       14102022 6EA/  941006/D /   000000200000060068 6EA/  880204/E /   000000100000032686 5Z4/  853515/G /GRU000000100000008830B                                               
FP6532403801PN1410       14102022 5Z0/  807217/K /GRU000000100000077753 5X0/  419775/  /   000002000000000299 5X0/  121333/B /   000000100000002923B                                               
FP6532403801PN1410       14102022 5U6/  945096/F /   000000100000027438 5C6/  807217/F /GRU000000100000186116 377/  823507/B /   000000100000009489B                                               
FP6532403801PN1410       14102022 1SB/  819703/  /ITZ000000400000003613 030/  107411/L /   000002400000003246 030/  103585/B /   000001000000000634B                                               
FP6532403801PN1410       14102022   N/  017738/6 /   000001000000001346                    000000000000000000                    000000000000000000B                                               
FP6532481103CP14101      14102022   G/  052145/S2/   000000100000019035 5QM/  413031/AJ/   000000200000052960                    000000000000000000B                                               
FP6532507111             14102022 5Z0/  807833/B /UY2000000100000019207                    000000000000000000                    000000000000000000B                                               
FP6532539103CP1510       15102022 WHT/  003860/  /   000000100000038196 6EA/  805903/A /9B9000000100000006390 5Z6/  807421/B /GRU000000100000088952B                                               
FP6532539103CP1510       15102022 5Z4/  853515/G /GRU000000100000008830 5Z0/  857121/A /FXJ000000100000005761 5Z0/  857121/A /FXJ000000100000005761B                                               
FP6532539103CP1510       15102022 5Z0/  807221/AD/GRU000000100000063919 5NA/  827025/J /   000000100000398856 2HH/  807489/B /RYP000000100000054785B                                               
FP6532540203CP15101      15102022 6Q0/  867172/C /9B9000000100000000841 6Q0/  857521/E /   000000100000006766 6EA/  823031/  /GRU000000100000124121B                                               
FP6532540203CP15101      15102022 5Z6/  945701/A /   000000100000009606 5Z6/  945106/A /   000000100000004536 5U1/  880202/F /QL2000000100000041247B                                               
FP6532540203CP15101      15102022 5U1/  880202/F /BP0000000100000055124 2H1/  941016/K /   000000100000054669 1S0/  820803/E /   000000100000079563B                                               
FP6532540203CP15101      15102022 1S0/  615301/F /   000000100000018586 030/  129607/CH/   000000100000020563                    000000000000000000B                                               
FP6532628503CP1710       17102022   G/  052522/A2/   000000100000010603 2GP/  858417/C /TCN000000100000123561 2GP/  858418/E /TQM000000100000169676B                                               
FP6532657003CP17101      17102022 APR/  807221/Q /GRU000000600000081081 6EA/  805903/A /9B9000000100000006390 5Z0/  955410/E /   000000100000005343B                                               
FP6532657003CP17101      17102022 5Z0/  853671/  /9B9000000100000149765 5Z0/  819022/A /   000000100000017429 5U7/  807421/D /GRU000000100000120011B                                               
FP6532657003CP17101      17102022 5U0/  819707/  /ZE6000000100000004852 5GB/  807217/  /GRU000000100000094949 1SB/  941016/A /   000000100000034011B                                               
FP6532657003CP17101      17102022 1SB/  819703/  /ITZ000000100000003613 1JE/  945096/E /   000000100000040366                    000000000000000000B                                               
FP6532663211             17102022 03L/  130755/R /   000000100000779419 5NN/  853666/B /041000000300000030329 5Z0/  601027/K /03C000000300000026565B                                               
FP6532663211             17102022 5Z1/  721480/D /   000000200000003252 6QE/  941700/A /   000000300000026655                    000000000000000000B                                               
FP6532809803CP1810       18102022 5Z0/  807221/AD/GRU000000100000063919                    000000000000000000                    000000000000000000B                                               
FP6532960303CP1910       19102022 5U0/  881805/CC/DRF000000200000013730 5U0/  881405/BR/DRF000000100000007060 5U0/  819707/  /ST3000000100000004760B                                               
FP6532960303CP1910       19102022 2GP/  827577/  /FOD000000100000085650 1SB/  941016/G /   000000100000038322                    000000000000000000B                                               
FP6532961903CP19101      19102022 2QB/  423510/Q /   000000100000281574                    000000000000000000                    000000000000000000B                                               
FP6532966311             19102022 2G0/  941661/  /   000000100000045554 2HH/  853347/A /9B9000000100000040188 5U0/  805583/G /9B9000000200000005492B                                               
FP6533065601PN2010       20102022 030/  107411/L /   000002000000003246 030/  109243/Q /   000007000000011357 032/  109101/AG/   000001000000040776B                                               
FP6533065601PN2010       20102022 032/  109101/AH/   000000200000039606 032/  121026/CP/   000003300000023058 036/  103464/G /   000000400000015531B                                               
FP6533065601PN2010       20102022 04E/  121119/P /   000002000000002250 059/  103085/L /   000001700000005537 06K/  109467/Q /   000000100000034463B                                               
FP6533065601PN2010       20102022 1JE/  945095/F /   000000100000046072 2G5/  805911/A /   000000300000005822 2Q0/  698451/B /   000001000000021793B                                               
FP6533076703CP2010       20102022 5Z0/  601025/AD/Z31000000100000084792 2GP/  858418/E /TQM000000100000169676 2GP/  858417/C /TCN000000100000123561B                                               
FP6533104503CP20101      20102022 2GP/  827577/  /FOD000000100000085650 2GP/  827577/  /FOD000000100000085650 2GP/  827577/  /FOD000000100000085650B                                               
FP6533117311             20102022 5Z0/  941206/C /   000000700000041715 6EA/  857706/A /RAA000000200000036861                    000000000000000000B                                               
FP6533205901PN2110       21102022 6Q0/  411314/Q /   000015000000002338 6EA/  941006/D /   000000300000060068 6EA/  880204/E /   000000100000032686B                                               
FP6533205901PN2110       21102022 6EA/  853601/  /2ZZ000000300000005855 5Z4/  853515/G /GRU000000100000008830 5Z0/  941205/C /   000000300000043987B                                               
FP6533205901PN2110       21102022 5Z0/  853671/D /EDW000000100000013844 5Z0/  412331/C /   000001700000008218 5U7/  945095/C /   000000200000025322B                                               
FP6533205901PN2110       21102022 5U0/  880204/C /   000000200000027748 2G5/  805912/A /   000000200000005823 1SB/  941015/A /   000000100000034011B                                               
FP6533205901PN2110       21102022 1JE/  945096/F /   000000300000046073   N/  106902/01/   000002000000000409   G/  052778/A2/   000000200000005559B                                               
FP6533240203CP2110       21102022 5Z0/  807305/A /   000000100000034438 5NN/  867011/AD/HXJ000000100000158738                    000000000000000000B                                               
FP6533312211             22102022 1J0/  018967/A /   000000600000005180                    000000000000000000                    000000000000000000B                                               
FP6533350501PN24101      24102022 WHT/  003862/  /   000000200000037341 6RD/  423057/N /   000000100000094245 6QE/  941700/A /   000000200000027199B                                               
FP6533350501PN24101      24102022 6QE/  941699/A /   000000100000027199 6QE/  805588/C /   000000100000106816 5Z1/  721480/D /   000000200000003319B                                               
FP6533350501PN24101      24102022 5Z0/  941007/C /   000000100000045013 5Z0/  809857/A /GRU000000100000011406 5Z0/  807221/R /GRU000000200000122269B                                               
FP6533350501PN24101      24102022 5Z0/  807217/K /GRU000000200000077753 5Z0/  807109/E /GRU000000200000047259 5W0/  807217/B /GRU000000100000088573B                                               
FP6533350501PN24101      24102022 5U5/  853995/  /739000000100000006922 5U5/  827505/D /   000000100000014722 5U0/  413031/AE/   000000200000034160B                                               
FP6533350501PN24101      24102022 5U0/  035501/H /   000000500000004868 5QM/  513029/AM/   000000100000052105 377/  807240/  /   000000100000003565B                                               
FP6533350501PN24101      24102022 2H1/  941016/K /   000000100000054669 1SB/  941016/  /   000000200000037872 1S0/  711049/G /   000000200000044231B                                               
FP6533350501PN24101      24102022 081/  301211/  /   000000200000010300 080/  141701/1 /   000000100000007338 04E/  133062/K /   000000200000047755B                                               
FP6533350501PN24101      24102022 04C/  903023/N /   000000100000064561 030/  103493/CE/   000000300000007722                    000000000000000000B                                               
FP6533396101PN24102      24102022 305/  411327/1 /   000003000000000644 357/  853999/B /   000000200000011230 5U0/  513025/F /   000000600000012850B                                               
FP6533396101PN24102      24102022 5U0/  611701/C /   000000200000003739 5U0/  880204/C /   000000400000027748 5W0/  201153/  /   000000100000006320B                                               
FP6533396101PN24102      24102022 5Z0/  412331/C /   000000600000008218 5Z0/  807184/B /   000000200000000910 5Z0/  853671/D /EDW000000300000013844B                                               
FP6533396101PN24102      24102022 5Z0/  941205/C /   000000100000043987 5Z4/  853515/G /GRU000000100000008830 6EA/  853601/  /2ZZ000000300000005855B                                               
FP6533396101PN24102      24102022 6EA/  857706/A /RAA000000200000037614 6EA/  941006/D /   000000200000060068 6Q0/  411314/Q /   000004000000002338B                                               
FP6533396101PN24102      24102022 2GP/  827577/  /FOD000001400000085649   G/  052565/A1/   000000200000018196   G/  052723/A2/   000000100000041742B                                               
FP6533396101PN24102      24102022   N/  106902/01/   000001000000000409 030/  107411/L /   000002000000003246 030/  109243/Q /   000002000000011357B                                               
FP6533396101PN24102      24102022 032/  109101/AG/   000000700000040776 032/  121026/CP/   000005000000023058 036/  103464/G /   000000500000015531B                                               
FP6533396101PN24102      24102022 04C/  129611/K /   000000100000018088 059/  103085/L /   000001200000005537 06K/  109467/Q /   000000400000034463B                                               
FP6533396101PN24102      24102022 1J0/  863323/P /2QL000000200000025924 1JE/  945095/F /   000000200000046073 1JE/  945096/F /   000000500000046073B                                               
FP6533396101PN24102      24102022 2G5/  805912/A /   000000100000005822                    000000000000000000                    000000000000000000B                                               
FP6533421203 CP2410      24102022 2GP/  827577/  /FOD000000100000085650                    000000000000000000                    000000000000000000B                                               
FP6533430011             24102022 5U7/  827565/  /MK1000000500000041259 5X0/  837581/  /1NN000001900000000775 6EA/  945257/  /   000000100000004331B                                               
FP6533696601PN2610       26102022 6Q0/  411314/Q /   000003000000002338 6EA/  857706/A /RAA000000200000037614 5Z0/  941205/C /   000000100000043987B                                               
FP6533696601PN2610       26102022 5U0/  880204/C /   000000200000027748 5U0/  853677/E /9B9000000100000006394 2G0/  941661/  /   000000200000046484B                                               
FP6533696601PN2610       26102022 1JE/  945095/F /   000000600000046073 1JE/  943021/  /   000000200000003406 04E/  145933/AG/   000001000000012697B                                               
FP6533696601PN2610       26102022   G/  052512/S1/   000000200000017251                    000000000000000000                    000000000000000000B                                               
FP6533733203CP2610       26102022 1K8/  827761/D /   000000100000004984 5Z0/  807109/E /GRU000000100000047259 5Z6/  945106/A /   000000100000004536B                                               
FP6533733203CP2610       26102022 6EA/  867233/D /Y20000000100000003603                    000000000000000000                    000000000000000000B                                               
FP6533742911             26102022 6EA/  945257/  /   000000100000004331 5Z0/  941007/A /   000000100000069642 5U5/  803907/  /CTR000000100000042761B                                               
FP6533742911             26102022 2GJ/  854970/A /9B9000000100000010012                    000000000000000000                    000000000000000000B                                               
FP6533860501PN2710       27102022 811/  711597/  /   000005000000000208 7X0/  253111/  /   000006000000000151 6QE/  941699/A /   000000200000027199B                                               
FP6533860501PN2710       27102022 6Q0/  853274/A /9B9000000300000006109 5Z4/  853515/G /GRU000000100000008830 5Z0/  853671/D /EDW000000300000013844B                                               
FP6533860501PN2710       27102022 5Z0/  807221/AD/GRU000000100000063919 5X0/  419775/  /   000001000000000299 5U4/  857706/M /HCP000000100000040672B                                               
FP6533860501PN2710       27102022 5U0/  853677/E /9B9000000100000006394 5U0/  513025/F /   000000400000012850 5U0/  121253/C /   000000100000047053B                                               
FP6533860501PN2710       27102022 5QM/  513029/AM/   000000100000052105   N/  106902/01/   000001000000000409 030/  103493/CE/   000000100000007722B                                               
FP6533860501PN2710       27102022 030/  109243/Q /   000000900000011357 032/  109101/AH/   000000100000039607 04E/  145933/AG/   000000300000012697B                                               
FP6533860501PN2710       27102022 059/  103085/L /   000000500000005538 06K/  109467/Q /   000000100000034463 1J0/  863323/P /2QL000000100000025924B                                               
FP6533860501PN2710       27102022 1JE/  943021/  /   000000600000003406 1JE/  945096/F /   000000400000046073 2G5/  805911/A /   000000400000005823B                                               
FP6533860501PN2710       27102022 2GK/  807434/  /9B9000000300000065966                    000000000000000000                    000000000000000000B                                               
FP6533906203CP2710       27102022 2GP/  827577/  /FOD000000100000085650 2H1/  945096/B /   000000100000036212                    000000000000000000B                                               
FP6533991001PN2810       28102022 6EA/  945257/  /   000000100000004420 5Z6/  807421/B /GRU000000100000088952 5Z1/  941607/  /   000000100000000825B                                               
FP6533991001PN2810       28102022 5W0/  823729/  /   000002000000000245 5U7/  945096/  /   000000100000022146 5U7/  945095/C /   000000100000025322B                                               
FP6533991001PN2810       28102022 5U7/  857705/G /HCP000000100000028485 5U7/  853308/A /9B9000000100000004103 5U7/  807421/D /GRU000000100000120011B                                               
FP6533991001PN2810       28102022 5U7/  807141/G /GRU000000100000042385 5U1/  941007/D /   000000100000044670 5GB/  807217/  /GRU000000100000094949B                                               
FP6533991001PN2810       28102022 5C6/  807217/F /GRU000000100000186116 2GJ/  854819/  /9B9000000100000023486 2G5/  807109/  /GRU000000100000044553B                                               
FP6533991001PN2810       28102022 1SB/  831055/A /GRU000000100000190953 1JE/  807421/  /GRU000000100000047955                    000000000000000000B                                               
FP6533993001PN28101      28102022 6EA/  823031/  /GRU000001000000124121                    000000000000000000                    000000000000000000B                                               
FP6533996501PN28102      28102022 6EA/  805588/J /   000000300000056142                    000000000000000000                    000000000000000000B                                               
FP6534022801PN28107      28102022 013/  141708/C /   000002000000008690                    000000000000000000                    000000000000000000B                                               
FP6534053703CP2810       28102022 2GP/  827577/  /FOD000000100000085650                    000000000000000000                    000000000000000000B                                               
FP6534155401769493       31102022 5W0/  601027/C /03C000000300000022623                    000000000000000000                    000000000000000000B                                               
FP6534174301PN3110       31102022 6EA/  941005/D /   000000200000060068 6EA/  853601/  /2ZZ000000200000005855 5Z0/  419669/  /1NN000000100000004720B                                               
FP6534174301PN3110       31102022 5W0/  201153/  /   000000100000006320 5U0/  880204/C /   000000400000027748 5U0/  513025/F /   000000800000012850B                                               
FP6534174301PN3110       31102022 5U0/  121253/C /   000000700000047054 5U0/  121073/  /   000000500000000814 06K/  109467/Q /   000000400000034463B                                               
FP6534174301PN3110       31102022 059/  103085/L /   000001200000005537 04E/  145933/M /   000001200000006714 04E/  145933/AG/   000001000000012697B                                               
FP6534174301PN3110       31102022 04C/  129611/K /   000000100000018088 036/  103464/G /   000000200000015531 032/  121026/CP/   000002400000023058B                                               
FP6534174301PN3110       31102022 032/  109101/AG/   000000100000040776                    000000000000000000                    000000000000000000B                                               
FP6534266112106- LEIL-O  31102022 06K/  115610/E /   000001000000006787 5X0/  614105/  /   000002600000014219                    000000000000000000B                                               
FP6534267903CP3110       31102022 5Q6/  407271/K /   000000100000194745 2GP/  827577/  /FOD000000100000085650 2GP/  827577/  /FOD000000100000085650B                                               
FP6534267903CP3110       31102022 19D/  877651/  /   000000100000089696   G/  052522/A2/   000000100000010603                    000000000000000000B                                               
FP6534269303CP31101      31102022   D/  009401/04/   000000100000015245   G/  052522/A2/   000000100000010603                    000000000000000000B                                               
FP6534401803CP0111       01112022 1SB/  819703/  /ITZ000000100000003613                    000000000000000000                    000000000000000000B                                               
FP6534408911             01112022 17A/  805705/D /   000000100000016014 237/  419091/1 /1NN000000600000019694 5Z0/  807833/B /UY2000000100000019207B                                               
FP6534408911             01112022 5Z0/  941007/A /   000000200000069643                    000000000000000000                    000000000000000000B                                               
FP6534538103CP0311       03112022 2GP/  827577/  /FOD000000100000038366                    000000000000000000                    000000000000000000B                                               
FP6534567701PN04112      04112022 7L0/  823633/H /   000001000000013480                    000000000000000000                    000000000000000000B                                               
FP6534641703CP0411       04112022   D/  009401/04/   000000100000015245   G/  060567/A2/   000000100000032774   G/  065567/A2/   000000100000039468B                                               
FP6534641703CP0411       04112022 2GP/  827577/  /FOD000000100000038366 2GP/  827577/  /FOD000000100000038366                    000000000000000000B                                               
FP6534646201PN0411       04112022 5U0/  121253/C /   000000200000047054 5U0/  611701/C /   000000300000003738 5U4/  837249/A /   000000200000003290B                                               
FP6534646201PN0411       04112022 5U5/  827505/B /   000000200000013109 5U7/  611763/B /   000000100000013162 5Z0/  412331/C /   000000800000008218B                                               
FP6534646201PN0411       04112022 5Z0/  807184/B /   000000200000000910 5Z0/  807221/Q /GRU000000500000098512 5Z0/  853671/D /EDW000000100000013844B                                               
FP6534646201PN0411       04112022 5Z0/  941205/C /   000000100000043987 6EA/  823031/  /GRU000000100000109300 6EA/  853601/  /2ZZ000000100000005855B                                               
FP6534646201PN0411       04112022 6EA/  857706/A /RAA000000100000037613 6EA/  941005/D /   000000200000060068 6Q0/  853274/A /9B9000001000000006109B                                               
FP6534646201PN0411       04112022 7L0/  823633/H /   000001000000013480 7X0/  253111/  /   000018000000000151   G/  052565/A1/   000000800000018195B                                               
FP6534646201PN0411       04112022   N/  106902/01/   000001000000000409 040/  101129/1 /   000015000000000066 04C/  129611/K /   000000100000018088B                                               
FP6534646201PN0411       04112022 04E/  121119/P /   000001000000002250 04E/  145933/AG/   000000700000013720 04E/  145933/M /   000000500000006714B                                               
FP6534646201PN0411       04112022 1JE/  943021/  /   000000200000003406 1JE/  945095/F /   000000100000046072 5U0/  121051/B /   000000100000007138B                                               
FP6534646201PN0411       04112022 5Q0/  122291/DA/   000000200000007242 5NN/  955427/  /03C000000500000010274 357/  853999/B /   000000200000011230B                                               
FP6534646201PN0411       04112022 1SB/  805932/  /   000000200000001467 211/  953162/5 /   000000200000001454 2G5/  805912/A /   000000200000005823B                                               
FP6534646201PN0411       04112022 2G0/  941661/  /   000000100000046484                    000000000000000000                    000000000000000000B                                               
FP6534668003CP04111      04112022   G/  052522/A2/   000000100000010603   D/  009401/04/   000000100000015245                    000000000000000000B                                               
FP6534690811             04112022 5Z0/  122051/K /   000000200000006162 5U6/  945311/  /   000000300000001710 5U0/  919087/A /   000000200000052527B                                               
FP6534690811             04112022 2H1/  941015/L /   000000300000063300 1SB/  805932/  /   000000500000001437 1JE/  853657/  /   000000100000007357B                                               
FP6534829801PN07116      07112022 6EA/  823031/  /GRU000000400000109301 5Z0/  941206/C /   000000200000042567 5Z0/  941205/C /   000000200000043987B                                               
FP6534829801PN07116      07112022 2GK/  941036/  /   000000100000212502 2GK/  839120/  /5AP000000100000011811 2GK/  837911/  /5AP000000100000012587B                                               
FP6534829801PN07116      07112022 2GK/  827550/  /   000000100000004071 2GK/  807434/  /9B9000000100000065966 2GK/  805901/  /9B9000000400000061413B                                               
FP6534829801PN07116      07112022 2G5/  807109/  /GRU000000200000057528 2G5/  805912/A /   000000300000005822                    000000000000000000B                                               
FP6534858903CP0711       07112022 2GJ/  853651/AF/ZLL000000100000182403 2GK/  941774/B /   000000100000421077                    000000000000000000B                                               
FP6534863811             07112022 5U7/  827023/C /GRU000000200000180217 5Z0/  945095/C /   000000200000021223 6EC/  827705/C /9B9000000300000009719B                                               
FP6534941201PN0811       08112022 5U0/  121073/  /   000000600000000814 5U0/  962125/  /9B9000000200000001388 5U4/  837249/A /   000000300000003290B                                               
FP6534941201PN0811       08112022 5U5/  827505/B /   000000100000013109 5U7/  853050/D /MX1000000200000003526 5X0/  201801/  /   000000100000006422B                                               
FP6534941201PN0811       08112022 5Z0/  419669/  /1NN000000100000004720 5Z0/  698545/B /   000000200000010044 5Z0/  807221/Q /GRU000000600000098512B                                               
FP6534941201PN0811       08112022 5Z0/  853671/D /EDW000000200000013844 5Z0/  941205/C /   000000300000043987 5Z0/  941206/C /   000000300000042566B                                               
FP6534941201PN0811       08112022 6EA/  823031/  /GRU000000200000109301 6EA/  853601/  /2ZZ000000200000005855 6EA/  941005/D /   000000300000060068B                                               
FP6534941201PN0811       08112022 6Q0/  853274/A /9B9000001000000006109 7X0/  253111/  /   000006000000000151   N/  106902/01/   000001000000000409B                                               
FP6534941201PN0811       08112022   N/  107069/01/   000001000000000159 030/  109243/Q /   000000800000011357 032/  109101/AG/   000000100000040776B                                               
FP6534941201PN0811       08112022 032/  121026/CP/   000001000000023058 036/  103464/G /   000000300000015530 04E/  115561/H /   000041000000005860B                                               
FP6534941201PN0811       08112022 04E/  145933/AG/   000000400000013720 04E/  145933/M /   000000200000006715 059/  103085/L /   000001000000005537B                                               
FP6534941201PN0811       08112022 059/  117070/J /   000000100000006898 1JE/  945095/F /   000000500000046073 1JE/  945096/F /   000000100000046072B                                               
FP6534941201PN0811       08112022 2G5/  805911/A /   000000200000005823 2Q0/  698451/B /   000001000000021793 2QB/  011031/  /   000000100000008404B                                               
FP6534941201PN0811       08112022 2QB/  615301/E /   000002000000018262                    000000000000000000                    000000000000000000B                                               
FP6535003401PN08116      08112022 7X0/  906034/D /   000000100000020443 6QE/  941700/A /   000000100000027199 6EA/  945257/  /   000000100000004420B                                               
FP6535003401PN08116      08112022 6EA/  880204/E /   000000100000032686 6EA/  858418/  /81U000000100000026497 6EA/  807217/D /GRU000000200000050642B                                               
FP6535003401PN08116      08112022 5Z6/  945312/  /   000000100000001314 5Z6/  807421/F /GRU000000100000072887 5Z0/  945095/C /   000000100000021656B                                               
FP6535003401PN08116      08112022 5Z0/  941008/A /   000000200000071064 5U7/  945095/B /   000000100000022689 5U7/  857705/G /HCP000000100000028485B                                               
FP6535003401PN08116      08112022 5U7/  853308/A /9B9000000100000004103 5U7/  827023/C /GRU000000100000183895 5U7/  807141/G /GRU000000200000042385B                                               
FP6535003401PN08116      08112022 5U7/  413031/D /   000000100000021674 5U0/  413031/A /   000000100000034160 2HH/  807489/B /RYP000000100000054785B                                               
FP6535003401PN08116      08112022 2GK/  805901/  /9B9000000100000061413 2GJ/  854819/  /9B9000000100000023486 2G5/  807109/  /GRU000000100000057527B                                               
FP6535003401PN08116      08112022 1S0/  615301/F /   000000100000018586 17B/  941035/E /   000000100000366276 04C/  903023/N /   000000100000064561B                                               
FP6535003401PN08116      08112022 04C/  109479/K /   000000100000030156                    000000000000000000                    000000000000000000B                                               
FP6535015903CP0811       08112022 2GJ/  809857/  /GRU000000100000019382                    000000000000000000                    000000000000000000B                                               
FP6535076201PN0911       09112022 06A/  141015/AH/   000000100000145511 113/  311245/A /   000004000000000248 1JE/  943021/  /   000000400000003406B                                               
FP6535076201PN0911       09112022 2G5/  805912/A /   000000100000005822 5U0/  422154/F /   000000100000053164 6EA/  941006/D /   000000200000060068B                                               
FP6535078303CP0911       09112022 5GB/  807417/A /GRU000000100000115951 2GP/  827577/  /FOD000000100000038366 2GP/  827577/  /FOD000000100000038366B                                               
FP6535078303CP0911       09112022 2GG/  877233/  /   000000100000013950                    000000000000000000                    000000000000000000B                                               
FP6535092501PN09111      09112022 2GJ/  854940/  /9B9000000100000026736 5U4/  857705/J /HCP000000100000028688 5U7/  941699/  /   000000100000038229B                                               
FP6535092501PN09111      09112022 5W6/  945102/  /   000000200000002781 5Z0/  809857/A /GRU000000100000011406                    000000000000000000B                                               
FP6535162601PN09111      09112022 7X0/  253111/  /   000006000000000151 5Z0/  698545/B /   000000100000010044 5X0/  201801/  /   000000200000006422B                                               
FP6535162601PN09111      09112022 5U4/  837249/A /   000000500000003289 5U0/  513025/F /   000000200000012851 5U0/  201153/A /   000000900000005825B                                               
FP6535162601PN09111      09112022 5U0/  121073/  /   000001000000000814 5NN/  853666/B /041000000100000030947 5GM/  886373/  /   000001200000000362B                                               
FP6535162601PN09111      09112022 2QB/  615301/E /   000001000000018262 2Q0/  698451/B /   000000400000021793 2G5/  805911/A /   000000100000005822B                                               
FP6535162601PN09111      09112022 1JE/  945096/F /   000000300000046073 1JE/  945095/F /   000000300000046073 113/  311531/1 /   000002000000008673B                                               
FP6535162601PN09111      09112022 06K/  109467/Q /   000000200000034463 059/  117070/J /   000000300000006898 059/  103085/L /   000000500000005538B                                               
