FHI00000000000000251120220000000000005101225         00                                                                                                                                            
FPI10000000000000241120220000000000005101225                                                                                                                                                       
FP95363882031592         656390932311202225122022 5X0/  121253/A /   RADIADOR     8708910000032500000000921000000034010000002834000000010001575002960235001000000      00000000000000      011102  
FP95363882031592         656390932311202225122022 5WA/  199315/F /   SUPORTE      8708999000032500000005472000000067350000016837400000010011216002991077911000000      00000000000000      011102  
FP95363882031592         656390932311202225122022 5W0/  941044/  /   FAROL        8512202300097500000004242000000052200000004350300000010001540002991077901000000      00000000000000      011102  
FP95363882031592         656390932311202225122022 5Q0/  611842/B /   SUPORTE      8708309000032500000000104000000001270000000318700000010000130002993132211000000      00000000000000      011102  
FP95363882031592         656390932311202225122022 2H5/  803921/B /   REBOQUE      8708999000032500000002021000000024870000006217700000010004200002993132211000000      00000000000000      011102  
FP95363882031592         656390932311202225122022 5W0/  941043/  /   FAROL        8512202300097500000004242000000052200000004350300000010001535002993132201000000      00000000000000      011102  
FP95363882031592         656390932311202225122022 5Z0/  955409/  /   BRACO        8512900000097500000000460000000005660000000472000000010000357002993132201000000      00000000000000      011102  
FP95363882031592         656390942311202225122022 5Z1/  941607/  /   CAPA COBER   3926909000097500000000080000000000990000000082500000010000025002991077901000000      00000000000000      011102  
FP95363882031592         656390942311202225122022 377/  121207/G /   DEFLETOR     8414902000032500000000523000000019300000001608000000010000755002993132201000000      00000000000000      011102  
FP9536473601PN2311       656401142411202226122022 5U7/  809961/C /   PROTETOR     8708299900032500000000423000000015620000001301300000020001040002993994701000000      00000000000000      011102  
FP9536473601PN2311       656405832411202226122022 2G5/  853856/  /9B9REVESTIMEN   8708299900032500000000371000000013680000001140200000010000778002994228901000000      00000000000000      011102  
FP9536473601PN2311       656405832411202226122022 2H6/  807217/A /GRUCOBERTURA    8708100000032500000007672000000094420000023605900000010004975002994239911000000      00000000000000      011102  
FP9536473601PN2311       656405882411202226122022 2G5/  853651/E /BMOGRADE        8708299200032500000001241000000045830000003819100000010000938002994229001000000      00000000000000      011102  
FP9536473601PN2311       656409492411202226122022 2G5/  807521/  /9B9SPOILER      8708299900032500000000931000000034370000002864400000010001892002994408801000000      00000000000000      011102  
FP9535864301PN17112      656410112411202226122022 032/  103383/N /   JUNTA CABE   8484100000078000000006886000000105930000008827800000100000077002991010301000000      00000000000000      011102  
FP9536473601PN2311       656410112411202226122022 JZZ/  109119/  /   CORREIA      4010350000065000000007297000000134720000011226400000200000210002991010301000000      00000000000000      011102  
FP9536473601PN2311       656410112411202226122022 4H0/  973703/A /   RECEPTACUL   8536901000097500000000347000000001420000000356100000010000000002991010311000000      00000000000000      011102  
FP9536473601PN2311       656410112411202226122022 3B0/  857561/B /Y20SUPORTE      3926909000097500000000491000000002010000000503600000010000001002991010311000000      00000000000000      011102  
FP9536473601PN2311       656410112411202226122022 5U0/  853601/B /OLPEMBLEMA VW   3926909000097500000000511000000006290000000524200000020000006002991010301000000      00000000000000      011102  
FP9536473601PN2311       656410112411202226122022   N/  905014/02/   PARAFUSO     7318150000065000000000062000000001140000000095000000100000024002993904701000000      00000000000000      011102  
FP9535864301PN17112      656410122411202226122022 030/  121016/A /   BOMBA AGUA   8413309000032500000000659000000024340000002028200000010000704002991010301000000      00000000000000      011102  
FP9536473601PN2311       656410122411202226122022 5U7/  807393/  /   GUIA         8708299900032500000000105000000003890000000323900000030000435002991010301000000      00000000000000      011102  
FP9536473601PN2311       656410122411202226122022 2H6/  698451/A /   PAST FREIO   8708301900032500000007837000000096460000024114000000040008240002991010311000000      00000000000000      011102  
FP9536473601PN2311       656410122411202226122022 030/  253039/L /   VEDACAO      8708999000032500000000676000000024960000002079800000040000356002991010301000000      00000000000000      011102  
FP9536473601PN2311       656410122411202226122022 5U7/  945095/F /   LANTERNA     8512202200097500000002854000000035130000002927500000010001050002991010301000000      00000000000000      011102  
FP9536473601PN2311       656410122411202226122022 5U1/  837015/AE/   FECHADURA    8301200000065000000003998000000073810000006150600000030001800002991010301000000      00000000000000      011102  
FP9536473601PN2311       656410122411202226122022 2GM/  854732/  /9B9COBERTURA    8708299900032500000000315000000011620000000968200000020000786002991010301000000      00000000000000      011102  
FP9536473601PN2311       656410122411202226122022 5U0/  807240/  /   REFORCO      8708100000032500000000088000000003270000000272100000010000105002991010301000000      00000000000000      011102  
FP9536473601PN2311       656410122411202226122022 5U0/  853677/  /1NNGRADE        8708100000032500000000231000000008510000000709500000010000830002991010301000000      00000000000000      011102  
FP9536473601PN2311       656410122411202226122022 5U4/  833721/J /1NNVEDACAO      4016101000117000000001027000000010530000000877700000010001060002991010301000000      00000000000000      011102  
FP9536473601PN2311       656410122411202226122022 2G5/  854940/  /9B9COBERTURA    8708299900032500000000257000000009510000000792300000010000260002991010301000000      00000000000000      011102  
FP9536473601PN2311       656410122411202226122022 2G5/  945208/A /   LANTERNA     8512202200097500000005013000000061700000005141400000010001386002991010301000000      00000000000000      011102  
FP9536473601PN2311       656410122411202226122022 2G5/  854817/  /   EXTENSOR     8708299900032500000000179000000006610000000550600000010000516002991010301000000      00000000000000      011102  
FP9536473601PN2311       656410122411202226122022 2G5/  854820/  /9B9COBERTURA    8708299900032500000000098000000003620000000301900000010000066002991010301000000      00000000000000      011102  
FP9536473601PN2311       656410122411202226122022 2H6/  853727/  /GRUCOBERTURA    8708299900032500000001609000000019800000004950100000010000395002991010311000000      00000000000000      011102  
FP9536473601PN2311       656410122411202226122022 2G5/  854734/  /   EXTENSOR     8708299900032500000000226000000008330000000694100000010000276002991010301000000      00000000000000      011102  
FP9536473601PN2311       656410122411202226122022 2G5/  955427/  /9B9PALHETA      8512900000097500000001884000000023190000001932800000050000170002991010301000000      00000000000000      011102  
FP9535864301PN17112      656410122411202226122022 2Q0/  698451/B /   PAST FREIO   8708301900032500000003541000000130760000010896300000050004670002993904701000000      00000000000000      011102  
FP9536473601PN2311       656410122411202226122022 6EA/  807651/  /   TRAVESSA     8708999000032500000000343000000012680000001056600000020002670002993904701000000      00000000000000      011102  
FP9536473601PN2311       656410122411202226122022 2Q0/  698451/B /   PAST FREIO   8708301900032500000003541000000130760000010896300000050004670002993904701000000      00000000000000      011102  
FP9536473601PN2311       656410132411202226122022 5U0/  959455/C /   VENTILADOR   8414599000000000000000000000000066180000005514900000010002265002991010301000000      00000000000000      011102  
FP9536473601PN2311       656410142411202226122022 06L/  103085/B /   RETENTOR     4016999000117000000001104000000003770000000943600000010000014002991010311000000      00000000000000      011102  
FP9536473601PN2311       656410152411202226122022 04E/  103464/AN/   SEPARADOR    8414903900000000000000000000000037820000009455100000030000210002993904711000000      00000000000000      011102  
FPF100000000000045                                                                                                                                                                                 
FPI10000000000000241120220000000000005101225                                                                                                                                                       
FP9535255201PN10112      001108761411202214122022 2G5/  061163/  /   TAPETE       40169990050325000000023240000000858000000073820000000423850000000000000000000005X223A12475660000108      011102  
FP9535255201PN10112      001108761411202214122022 2GP/  061163/B /   TAPETE       40169990050325000000022390000000826600000071123000000417620000000000000000000005X223A12475660000108      011102  
FPF100000000000004                                                                                                                                                                                 
FPI00000000000000241120220000000000005101225                                                                                                                                                       
FP6528940601PN1309       13092022 030/  109243/Q /   000000900000011357 5U0/  937537/A /   000000100000022302 6Q0/  411314/Q /   000002000000002338B                                               
FP6529011411             13092022 6Q0/  411314/Q /   000002000000002291                    000000000000000000                    000000000000000000B                                               
FP6529585101PN1909       19092022 2GP/  998002/A /   000000200000007144                    000000000000000000                    000000000000000000B                                               
FP6530631001PN2809       28092022 6Q0/  411314/Q /   000001000000002338 2Q0/  698451/B /   000001000000021793 2GP/  998002/A /   000000800000007144B                                               
FP6530631001PN2809       28092022 032/  121026/CP/   000000500000023058 030/  109243/Q /   000001000000011357                    000000000000000000B                                               
FP6531130101Bestdrive 30.30092022 6EA/  071310/A /   000000100000010291                    000000000000000000                    000000000000000000B                                               
FP65329434031554         19102022 2H1/  941016/P /   000000100000152034                    000000000000000000                    000000000000000000B                                               
FP6533165701PN21101      21102022 5U0/  937537/A /   000000100000022302 5U0/  941007/D /   000000100000056399                    000000000000000000B                                               
FP65332362031558         21102022 5Q4/  959592/P /   000000100000137182                    000000000000000000                    000000000000000000B                                               
FP6533315711             22102022 04C/  129620/A /   000004000000003351                    000000000000000000                    000000000000000000B                                               
FP65333990031562         24102022 5U7/  857507/E /1NN000000100000022012                    000000000000000000                    000000000000000000B                                               
FP65335656031563         25102022 5U0/  615301/C /   000000200000014767 5GB/  807217/  /GRU000000100000094949 2GK/  601025/A /Z31000000100000111423B                                               
FP65335656031563         25102022 2GJ/  854950/A /9B9000000100000023117                    000000000000000000                    000000000000000000B                                               
FP6533773101PN27101      27102022   G/  052565/A1/   000000100000018195 032/  121026/CP/   000000500000023058 04C/  129620/A /   000008000000003419B                                               
FP6533773101PN27101      27102022 04E/  145933/AG/   000000500000012697 04E/  145933/M /   000000400000006714 2GP/  998002/A /   000000400000007144B                                               
FP6533773101PN27101      27102022 2Q0/  698451/B /   000000500000021793                    000000000000000000                    000000000000000000B                                               
FP6534006901PN2810       28102022 6EA/  805588/J /   000000200000056142                    000000000000000000                    000000000000000000B                                               
FP65345026031575         03112022 6EA/  945257/  /   000000100000004420                    000000000000000000                    000000000000000000B                                               
FP6534909601PN08111      08112022 WHT/  007665/  /   000000200000001325 6Q0/  959858/  /9B9000000100000003450 5U0/  413031/A /   000000100000034160B                                               
FP6534909601PN08111      08112022 5Q0/  122291/DA/   000000100000007243 2GP/  998002/A /   000000500000007144 1S0/  035491/  /   000000200000005087B                                               
FP6534909601PN08111      08112022 04E/  145933/M /   000000400000006714 04E/  121119/P /   000001000000002250 032/  121026/CP/   000001000000023058B                                               
FP6535255201PN10112      10112022 2H6/  823033/C /GRU000000100000317462 5Q0/  122291/DA/   000000100000007243 5U0/  941007/D /   000000100000056399B                                               
FP6535255201PN10112      10112022 5U7/  853504/  /   000000100000011116 5Z0/  807221/Q /GRU000000400000098512 6EA/  823031/  /GRU000000200000109301B                                               
FP6535255201PN10112      10112022 6EC/  945258/  /   000000100000012208                    000000000000000000                    000000000000000000B                                               
FP65356051031984         14112022 5U7/  845521/  /   000000100000005542                    000000000000000000                    000000000000000000B                                               
FP6535864301PN17112      17112022 04C/  129620/D /   000001000000003419 04E/  145933/AG/   000000500000013720 04E/  145933/M /   000000400000006714B                                               
FP6535864301PN17112      17112022 5Q0/  122291/DA/   000000100000007243 WHT/  007665/  /   000000300000001324                    000000000000000000B                                               
FP6535867203771          17112022 5Q6/  407271/K /   000000100000194745                    000000000000000000                    000000000000000000B                                               
FP6535916311             17112022 5W0/  201153/  /   000000300000006194                    000000000000000000                    000000000000000000B                                               
FP65360363031986         18112022 2GJ/  854820/  /9B9000000100000023486 2GK/  941036/  /   000000100000212502 2H1/  941016/L /   000000100000064591B                                               
FP65360363031986         18112022 5U7/  845521/  /   000000100000005542                    000000000000000000                    000000000000000000B                                               
FP65363882031592         22112022 5QM/  611701/C /   000000100000009791   D/  316D38/A2/   000000100000020498                    000000000000000000B                                               
FP6536420311             22112022 JZZ/  129620/B /   000000600000004894                    000000000000000000                    000000000000000000B                                               
FP6536473601PN2311       23112022 030/  109243/Q /   000000500000011357 030/  121016/A /   000000400000020282 04C/  129620/D /   000002000000003419B                                               
FP6536473601PN2311       23112022 04E/  115561/H /   000010000000005860 04E/  145933/M /   000001000000006714 2G5/  854818/  /   000000100000005506B                                               
FP6536473601PN2311       23112022 5U0/  201153/A /   000001000000005825 6EA/  941006/D /   000000100000060068 6Q0/  411314/Q /   000002000000002338B                                               
FP6536541403773          23112022 1SB/  819703/  /ITZ000000100000003613 2Q1/  423961/B /   000000100000052007                    000000000000000000B                                               
FP75305503031533         27092022 2GJ/  867011/G /ZLT000000100000275663                    000000000000000000                    000000000000000000                                                
FP7530631001PN2809       28092022 5U0/  054620/B /   000000600000023092                    000000000000000000                    000000000000000000                                                
FP7531130101Bestdrive 30.30092022 1K0/  601173/  /9B9000002000000000404                    000000000000000000                    000000000000000000                                                
FP75320982031550         11102022 5U7/  201801/A /   000000100000043230                    000000000000000000                    000000000000000000                                                
FP7533754711             26102022 5U0/  122447/F /   000000500000002214                    000000000000000000                    000000000000000000                                                
FP7533926611             27102022 811/  711279/  /   000006000000000143                    000000000000000000                    000000000000000000                                                
FP75340463031572         28102022 5U0/  201218/  /   000000100000005074                    000000000000000000                    000000000000000000                                                
FP7534788701PS0711       07112022   G/  S55553/R2/BRA000060000000002835                    000000000000000000                    000000000000000000                                                
FP7534909601PN08111      08112022 1K0/  601173/  /9B9000002000000000404                    000000000000000000                    000000000000000000                                                
FP7535255201PN10112      10112022 6EA/  945258/  /   000000100000004420                    000000000000000000                    000000000000000000                                                
FP7535864301PN17112      17112022 1K0/  601173/  /9B9000002000000000404 5U0/  407625/B /   000000100000013050                    000000000000000000                                                
FP7536473601PN2311       23112022 032/  905409/B /   000000500000017730 03L/  130277/Q /   000000900000154820 5U0/  407625/B /   000000100000013050                                                
FP7536541403773          23112022 5Q0/  885682/K /   000000100000027493 5U0/  845011/M /   000000100000059722                    000000000000000000                                                
FPF000000000000052                                                                                                                                                                                 
FPI00000000000000241120220000000000005101225                                                                                                                                                       
FP6528940601PN1309       13092022 030/  109243/Q /   000000900000011357 5U0/  937537/A /   000000100000022302 6Q0/  411314/Q /   000002000000002338B                                               
FP6529011411             13092022 6Q0/  411314/Q /   000002000000002291                    000000000000000000                    000000000000000000B                                               
FP6529585101PN1909       19092022 2GP/  998002/A /   000000200000007144                    000000000000000000                    000000000000000000B                                               
FP6530631001PN2809       28092022 6Q0/  411314/Q /   000001000000002338 2Q0/  698451/B /   000001000000021793 2GP/  998002/A /   000000800000007144B                                               
FP6530631001PN2809       28092022 032/  121026/CP/   000000500000023058 030/  109243/Q /   000001000000011357                    000000000000000000B                                               
FP6531130101Bestdrive 30.30092022 6EA/  071310/A /   000000100000010291                    000000000000000000                    000000000000000000B                                               
FP65329434031554         19102022 2H1/  941016/P /   000000100000152034                    000000000000000000                    000000000000000000B                                               
FP6533165701PN21101      21102022 5U0/  937537/A /   000000100000022302 5U0/  941007/D /   000000100000056399                    000000000000000000B                                               
FP65332362031558         21102022 5Q4/  959592/P /   000000100000137182                    000000000000000000                    000000000000000000B                                               
FP6533315711             22102022 04C/  129620/A /   000004000000003351                    000000000000000000                    000000000000000000B                                               
FP65333990031562         24102022 5U7/  857507/E /1NN000000100000022012                    000000000000000000                    000000000000000000B                                               
FP65335656031563         25102022 2GJ/  854950/A /9B9000000100000023117 2GK/  601025/A /Z31000000100000111423 5GB/  807217/  /GRU000000100000094949B                                               
FP65335656031563         25102022 5U0/  615301/C /   000000200000014767                    000000000000000000                    000000000000000000B                                               
FP6533773101PN27101      27102022 2Q0/  698451/B /   000000500000021793 2GP/  998002/A /   000000400000007144 04E/  145933/M /   000000400000006714B                                               
FP6533773101PN27101      27102022 04E/  145933/AG/   000000500000012697 04C/  129620/A /   000008000000003419 032/  121026/CP/   000000500000023058B                                               
FP6533773101PN27101      27102022   G/  052565/A1/   000000100000018195                    000000000000000000                    000000000000000000B                                               
FP6534006901PN2810       28102022 6EA/  805588/J /   000000200000056142                    000000000000000000                    000000000000000000B                                               
FP65345026031575         03112022 6EA/  945257/  /   000000100000004420                    000000000000000000                    000000000000000000B                                               
FP6534909601PN08111      08112022 032/  121026/CP/   000001000000023058 04E/  121119/P /   000001000000002250 04E/  145933/M /   000000400000006714B                                               
FP6534909601PN08111      08112022 1S0/  035491/  /   000000200000005087 2GP/  998002/A /   000000500000007144 5Q0/  122291/DA/   000000100000007243B                                               
FP6534909601PN08111      08112022 5U0/  413031/A /   000000100000034160 6Q0/  959858/  /9B9000000100000003450 WHT/  007665/  /   000000200000001325B                                               
FP6535255201PN10112      10112022 6EC/  945258/  /   000000100000012208 6EA/  823031/  /GRU000000200000109301 5Z0/  807221/Q /GRU000000400000098512B                                               
FP6535255201PN10112      10112022 5U7/  853504/  /   000000100000011116 5U0/  941007/D /   000000100000056399 5Q0/  122291/DA/   000000100000007243B                                               
FP6535255201PN10112      10112022 2H6/  823033/C /GRU000000100000317462                    000000000000000000                    000000000000000000B                                               
FP65356051031984         14112022 5U7/  845521/  /   000000100000005542                    000000000000000000                    000000000000000000B                                               
FP6535864301PN17112      17112022 04C/  129620/D /   000001000000003419 04E/  145933/AG/   000000500000013720 04E/  145933/M /   000000400000006714B                                               
FP6535864301PN17112      17112022 5Q0/  122291/DA/   000000100000007243 WHT/  007665/  /   000000300000001324                    000000000000000000B                                               
FP6535867203771          17112022 5Q6/  407271/K /   000000100000194745                    000000000000000000                    000000000000000000B                                               
FP6535916311             17112022 5W0/  201153/  /   000000300000006194                    000000000000000000                    000000000000000000B                                               
FP65360363031986         18112022 2GJ/  854820/  /9B9000000100000023486 2GK/  941036/  /   000000100000212502 2H1/  941016/L /   000000100000064591B                                               
FP65360363031986         18112022 5U7/  845521/  /   000000100000005542                    000000000000000000                    000000000000000000B                                               
FP65363882031592         22112022   D/  316D38/A2/   000000100000020498 5QM/  611701/C /   000000100000009791                    000000000000000000B                                               
FP6536420311             22112022 JZZ/  129620/B /   000000600000004894                    000000000000000000                    000000000000000000B                                               
FP6536473601PN2311       23112022 6Q0/  411314/Q /   000002000000002338 6EA/  941006/D /   000000100000060068 5U0/  201153/A /   000001000000005825B                                               
FP6536473601PN2311       23112022 2G5/  854818/  /   000000100000005506 04E/  145933/M /   000001000000006714 04E/  115561/H /   000010000000005860B                                               
FP6536473601PN2311       23112022 04C/  129620/D /   000002000000003419 030/  121016/A /   000000400000020282 030/  109243/Q /   000000500000011357B                                               
FP6536541403773          23112022 1SB/  819703/  /ITZ000000100000003613 2Q1/  423961/B /   000000100000052007                    000000000000000000B                                               
FP75305503031533         27092022 2GJ/  867011/G /ZLT000000100000275663                    000000000000000000                    000000000000000000                                                
FP7530631001PN2809       28092022 5U0/  054620/B /   000000600000023092                    000000000000000000                    000000000000000000                                                
FP7531130101Bestdrive 30.30092022 1K0/  601173/  /9B9000002000000000404                    000000000000000000                    000000000000000000                                                
FP75320982031550         11102022 5U7/  201801/A /   000000100000043230                    000000000000000000                    000000000000000000                                                
FP7533754711             26102022 5U0/  122447/F /   000000500000002214                    000000000000000000                    000000000000000000                                                
FP7533926611             27102022 811/  711279/  /   000006000000000143                    000000000000000000                    000000000000000000                                                
FP75340463031572         28102022 5U0/  201218/  /   000000100000005074                    000000000000000000                    000000000000000000                                                
FP7534788701PS0711       07112022   G/  S55553/R2/BRA000060000000002835                    000000000000000000                    000000000000000000                                                
FP7534909601PN08111      08112022 1K0/  601173/  /9B9000002000000000404                    000000000000000000                    000000000000000000                                                
FP7535255201PN10112      10112022 6EA/  945258/  /   000000100000004420                    000000000000000000                    000000000000000000                                                
FP7535864301PN17112      17112022 5U0/  407625/B /   000000100000013050 1K0/  601173/  /9B9000002000000000404                    000000000000000000                                                
FP7536473601PN2311       23112022 032/  905409/B /   000000500000017730 03L/  130277/Q /   000000900000154820 5U0/  407625/B /   000000100000013050                                                
FP7536541403773          23112022 5Q0/  885682/K /   000000100000027493 5U0/  845011/M /   000000100000059722                    000000000000000000                                                
FPF000000000000052                                                                                                                                                                                 
FRI10000000000000241120220000000000005101225                                                                                                                                                       
FR111000000000000000000000009538000000000000000000000000271141189-00000000000000+N                                                                                                         010699  
FR111000000000000000000000000309999800000000309999800000025427007-00000000000000+O                                                                                                         010699  
FR111000000000000000000000000019000000000000009999900000000099999+00000000000000+C                                                                                                         010699  
FR2000138865450 P05112022000000000000000072200510000002167253980000000000000009BWAG45U3PT081819VW VEICULOS  VW/GOL MPI          202220230000000                                            025     
FR2000138869950 P05112022000000000000000112231800000003368879420000000000000009BWDH5BZ3NP056389VW VEICULOS  VW/VIRTUS CL TSI    202220220000000                                            025     
FR2000138913550 P07112022000000000000000070666740000002121214470000000000000009BWAG45U8PT082092VW VEICULOS  VW/GOL MPI          202220230000000                                            025     
FR2000139027550 P08112022000000000000000112774020000003385155290000000000000009BWCH6CHXPP006485VW VEICULOS  VW/NIVUS CL TSI     202220230000000                                            025     
FR2000139029850 P08112022000000000000000151272270000004540763320000000000000008AWBJ6B27NA835787VW VEICULOS  I/VW TAOS CL TSI    202220220000000                                            025     
FR2000139729050 P18112022000000000000000126921790000003809831160000000000000009BWCH6CH1PP013793VW VEICULOS  VW/NIVUS HL TSI     202220230000000                                            025     
FR2000139961250 P22112022000000000000000178030870000005343980130000000000000008AWBJ6B23NA841862VW VEICULOS  I/VW TAOS HL TSI    202220220000000                                            025     
FR2000139961350 P22112022000000000000000172779790000005186357880000000000000008AWBJ6B28NA841873VW VEICULOS  I/VW TAOS HL TSI    202220220000000                                            025     
FR2000139991350 P2211202200000000000000027841042000000835708875000000000000000WV1DA22H0PA002936VW VEICULOS  I/VW AMAROK V6 EXTRE202220230000000                                            025     
FR2000140062550 P23112022000000000000000177890080000005339754240000000000000008AWBJ6B26NA837949VW VEICULOS  I/VW TAOS HL TSI    202220220000000                                            025     
FR2000151480540 P10112022000000000000000156204230000004688806650000000000000009BWBJ6BF7P4020880VW VEICULOS  VW/T CROSS HL TSI   202220230000000                                            024     
FR2000175921270 P31102022000000000000000095091350000002854371800000000000000009BWAH5BZ4PP004856VW VEICULOS  VW/POLO CL AB       202220230000000                                            025     
FR2000175959670 P31102022000000000000000112007680000003362152080000000000000009BWCH6CH7PP017489VW VEICULOS  VW/NIVUS CL TSI     202220230000000                                            025     
FR2000176010870 P03112022000000000000000127259500000003819968310000000000000009BWCH6CHXPP009208VW VEICULOS  VW/NIVUS HL TSI     202220230000000                                            025     
FR2000176102870 P07112022000000000000000094790990000002845355810000000000000009BWAH5BZ4PP007093VW VEICULOS  VW/POLO CL AB       202220230000000                                            025     
FR2000176109270 P07112022000000000000000093296300000002800489450000000000000009BWAH5BZ9PP007168VW VEICULOS  VW/POLO CL AB       202220230000000                                            025     
FR2000176121770 P08112022000000000000000094037180000002822728760000000000000009BWAH5BZ6PP007290VW VEICULOS  VW/POLO CL AB       202220230000000                                            025     
FR2000176156870 P09112022000000000000000129399000000003884190020000000000000009BWCH6CH5PP018799VW VEICULOS  VW/NIVUS HL TSI     202220230000000                                            025     
FR2000176177270 P09112022000000000000000094641160000002840858400000000000000009BWAH5BZ8PP005881VW VEICULOS  VW/POLO CL AB       202220230000000                                            025     
FR2000176177370 P09112022000000000000000093962830000002820497060000000000000009BWAH5BZ8PP007307VW VEICULOS  VW/POLO CL AB       202220230000000                                            025     
FR2000176365370 P16112022000000000000000083837900000002516575280000000000000009BWAH5BZXPP008121VW VEICULOS  VW/POLO MB          202220230000000                                            025     
FR2000176531270 P18112022000000000000000083705360000002512596770000000000000009BWAH5BZ6PP008231VW VEICULOS  VW/POLO MB          202220230000000                                            025     
F060101 DOLAR REFERENCIAL DIARIO - VENDA                                                                                                                                                   300997  
F06022511202200000053149000000000000000000000000000000000000000000000000000000000000000000000000000000000000000000000000000000000000000000000000000000000000000000000000000000000          300997  
F060105 UFIR - UNIDADE FISCAL DE REFERENCIA                                                                                                                                                300997  
F06022511202200000010641000000000000000000000000000000000000000000000000000000000000000000000000000000000000000000000000000000000000000000000000000000000000000000000000000000000          300997  
F060114 IGPM - INDICE GERAL DE PRECOS DO MERCADO                                                                                                                                           300997  
F06022511202200008818318000000000000000000000000000000000000000000000000000000000000000000000000000000000000000000000000000000000000000000000000000000000000000000000000000000000          300997  
F060130 TRD - TAXA REFERENCIAL DIARIA                                                                                                                                                      300997  
F06022511202200000000134716200000000000000000000000000000000000000000000000000000000000000000000000000000000000000000000000000000000000000000000000000000000000000000000000000000          300997  
F060175 TABELA DE QCS PARA LIQUIDACAO DE DEBITOS EXCLUSIVAMENTE JUNTO AO CREDITO ROTATIVO                                                                                                  300997  
F06022511202200000261401231500000000000000000000000000000000000000000000000000000000000000000000000000000000000000000000000000000000000000000000000000000000000000000000000000000          300997  
F060178 TABELA DE QCIS PARA LIQUIDACAO DE DEBITOS EXCLUSIVAMENTE JUNTO AO CREDITO ROTATIVO - VEICULOS IMPORTADOS VW                                                                        300997  
F06022511202200000014729272000000000000000000000000000000000000000000000000000000000000000000000000000000000000000000000000000000000000000000000000000000000000000000000000000000          300997  
F060192 TABELA DE QCIS PARA LIQUIDACAO DE DEBITOS EXCLUSIVAMENTE JUNTO AO CREDITO ROTATIVO - VEICULOS IMPORT. SEAT                                                                         300997  
F06022511202200000014827648600000000000000000000000000000000000000000000000000000000000000000000000000000000000000000000000000000000000000000000000000000000000000000000000000000          300997  
F060196 TABELA DE QCIS PARA LIQUIDACAO DE DEBITOS EXCLUSIVAMENTE JUNTO AO CREDITO ROTATIVO - VEIC.IMPORT VW/96                                                                             300997  
F06022511202200000350306817500000000000000000000000000000000000000000000000000000000000000000000000000000000000000000000000000000000000000000000000000000000000000000000000000000          300997  
F0601101TABELA DE QCIS PARA LIQUIDACAO DE DEBITOS EXCLUSIVAMENTE JUNTO AO CREDITO ROTATIVO - VEICULO USADO                                                                                 300997  
F06022511202200000485229587800000000000000000000000000000000000000000000000000000000000000000000000000000000000000000000000000000000000000000000000000000000000000000000000000000          300997  
F0601105TABELA DE QCIS PARA LIQUIDACAO DE DEBITOS EXCLUSIVAMENTE JUNTO AO CREDITO ROTATIVO - VEICULOS AUDI                                                                                 300997  
F06022511202200000786340566400000000000000000000000000000000000000000000000000000000000000000000000000000000000000000000000000000000000000000000000000000000000000000000000000000          300997  
F0601106TABELA DE QCIS PARA LIQUIDACAO DE DEBITOS EXCLUSIVAMENTE JUNTO AO CREDITO ROTATIVO - PECAS                                                                                         300997  
F06022511202200001075379599800000000000000000000000000000000000000000000000000000000000000000000000000000000000000000000000000000000000000000000000000000000000000000000000000000          300997  
F0601109TABELA DE QCIS PARA LIQUIDACAO DE DEBITOS EXCLUSIVAMENTE JUNTO AO CREDITO ROTATIVO - CAMINHOES USADOS                                                                              300997  
F06022511202200001094751175400000000000000000000000000000000000000000000000000000000000000000000000000000000000000000000000000000000000000000000000000000000000000000000000000000          300997  
F0601110TABELA DE QCIS PARA LIQUIDACAO DE DEBITOS EXCLUSIVAMENTE JUNTO AO CREDITO ROTATIVO - AUDI USADOS                                                                                   300997  
F06022511202200000797339325500000000000000000000000000000000000000000000000000000000000000000000000000000000000000000000000000000000000000000000000000000000000000000000000000000          300997  
F0601111TABELA DE QCIS PARA LIQUIDACAO DE DEBITOS EXCLUSIVAMENTE JUNTO AO CREDITO ROTATIVO - SEAT USADOS                                                                                   300997  
F06022511202200000807565158900000000000000000000000000000000000000000000000000000000000000000000000000000000000000000000000000000000000000000000000000000000000000000000000000000          300997  
F0601115TABELA DE QCIS PARA LIQUIDACAO DE DEBITOS EXCLUSIVAMENTE JUNTO AO CREDITO ROTATIVO - QC COM BONUS                                                                                  300997  
F06022511202200000333407798200000000000000000000000000000000000000000000000000000000000000000000000000000000000000000000000000000000000000000000000000000000000000000000000000000          300997  
F0601116TABELA DE QCIS PARA LIQUIDACAO DE DEBITOS EXCLUSIVAMENTE JUNTO AO CREDITO ROTATIVO - QC DO BONUS ROTATIVO                                                                          300997  
F06022511202200000098453402600000000000000000000000000000000000000000000000000000000000000000000000000000000000000000000000000000000000000000000000000000000000000000000000000000          300997  
F0601117TABELA DE QCIS PARA LIQUIDACAO DE DEBITOS EXCLUSIVAMENTE JUNTO AO CREDITO ROTATIVO - QC FINANCIAMENTO ICMS                                                                         300997  
F06022511202200001075379602000000000000000000000000000000000000000000000000000000000000000000000000000000000000000000000000000000000000000000000000000000000000000000000000000000          300997  
F0601119TABELA DE QCIS PARA LIQUIDACAO DE DEBITOS EXCLUSIVAMENTE JUNTO AO CREDITO ROTATIVO - MULTA DE CONFISSAO DIV                                                                        300997  
F06022511202200000010000000000000000000000000000000000000000000000000000000000000000000000000000000000000000000000000000000000000000000000000000000000000000000000000000000000000          300997  
FRF100000000000063                                                                                                                                                                                 
FVI10060000000000251120220000000000005101225                                                                                                                                                       
F229BWAG5BZ3PP000932746759270920229BWAH5BZ6PP005300754076201020229BWAH5BZ4PP007093761028071120229BWJL45U5PP02525575745627102022                                                            300997  
F229BWAH5BZ5PP005093755041221020229BWAH5BZ1PP004216751728141020229BWAH5BZ6PP008231765312181120229BWAH5BZ8PP00525175638125102022                                                            300997  
F229BWAH5BZ4PP005859756756261020229BWDH5BZ7NP049557740905090920229BWAH5BZ9PP007168761092071120229BWCH6CHXPP00920876010803112022                                                            300997  
F229BWAH5BZ4PP004856759212311020229BWCH6CH2PP005475738765310820229BWCH6CH7PP017489759596311020229BWAH5BZ1PP00557575439021102022                                                            300997  
F229BWAH5BZ1PP005205754738211020228AWBJ6B21NA805443666493150920219BWCH6CH9PP015386751933151020229BWDH5BZXNP03788674194812092022                                                            300997  
F229BWDH5BZ2NP038417733287120820229BWAH5BZ8PP005881761772091120229BWAH5BZ8PP007307761773091120229BWAH5BZXPP00812176365316112022                                                            300997  
F229BWAH5BZ6PP007290761217081120229BWBH6BF2P4008762506217170920229BWAG45U8PT082092389135071120229BWCH6CH1PP01379339729018112022                                                            300997  
F22WV1DA22H1NA031973354098110820229BWBH6BF5P4010344507657270920228AWBJ6B26NA83794940062523112022WV1DA22H9PA00389140152224112022                                                            300997  
F229BWBH6BF5N4052574499519150820228AWBJ6B29NA833801386332281020229BWDH5BZ0NP047567382854241020229BWDH5BZ3NP05638938869905112022                                                            300997  
F228AWBJ6B27NA835787390298081120229BWBH6BF7N4004591427462290920219BWCH6CHXPP00648539027508112022WV1DA22H5NA03762937539030092022                                                            300997  
F229BWBH6BF8P4012105510801221020229BWBH6BF1P4003021504623020920229BWBH6BF8P4016218510324201020229BWBJ6BF1P401761851130525102022                                                            300997  
F229BWAG45U2PT070844375321300920229BWAG45U9PT070372375323300920229BWAG45U3PT081819388654051120229BWCH6CH2PP01417538342825102022                                                            300997  
F228AWBJ6B23NA84186239961222112022WV1DA22H3NA035331371201170920229BWBH6BF2N4050099498781120820229BWAG45U5PT07679738131020102022                                                            300997  
F229BWBJ6BF7P402088051480510112022WV1DA22H0PA002936399913221120229BWBJ6BF6P4016089510190201020229BWBH6BF8P400414850143124082022                                                            300997  
F22WV1DA22HXNA034659358440170820229BWBH6BF2P401022250850329092022                                                                                                                          300997  
FVF100000000000017                                                                                                                                                                                 
FAI10000000000000251120220000000000005101225                                                                                                                                                       
FA100000000000000+00000000000000+00000000000000+00000000000000+00000000000000+00000000000000+00000000000000+00000000000000+00000000000000+                                                         
FA200000000000000+00000000000000+00000000000000+00000000000000+00000000000000+00000000000000+00000000000000+00000000000000+00000000000000+                                                         
FA3000577904000011120220812202200000000007716400000000007716400000000000000000000000000000000000000000000081220220 88  ICMS ST PECAS                                                               
FA3000574851000011120220812202200000000000667800000000000667800000000000000000000000000000000000000000000081220220 88  ICMS ST PECAS                                                               
FA3000576688000011120220812202200000000001032700000000001032700000000000000000000000000000000000000000000081220220 88  ICMS ST PECAS                                                               
FA3000580108000031120220812202200000000000026200000000000026200000000000000000000000000000000000000000000081220220 88  ICMS ST PECAS                                                               
FA3000760108000031120220812202200000000032686100000000032686100000000000000000000000000000000000000000000081220220 99  ICMS ST VEICULOS                                                            
FA3000586243000041120220812202200000000000724100000000000724100000000000000000000000000000000000000000000081220220 88  ICMS ST PECAS                                                               
FA3000586244000041120220812202200000000000146100000000000146100000000000000000000000000000000000000000000081220220 88  ICMS ST PECAS                                                               
FA3000586245000041120220812202200000000000477100000000000477100000000000000000000000000000000000000000000081220220 88  ICMS ST PECAS                                                               
FA3000584840000041120220812202200000000000478600000000000478600000000000000000000000000000000000000000000081220220 88  ICMS ST PECAS                                                               
FA3000584841000041120220812202200000000001017900000000001017900000000000000000000000000000000000000000000081220220 88  ICMS ST PECAS                                                               
FA3000584098000041120220812202200000000000112200000000000112200000000000000000000000000000000000000000000081220220 88  ICMS ST PECAS                                                               
FA3000584097000041120220812202200000000000491000000000000491000000000000000000000000000000000000000000000081220220 88  ICMS ST PECAS                                                               
FA3000388654000051120220812202200000000020516000000000020516000000000000000000000000000000000000000000000081220220 99  ICMS ST VEICULOS                                                            
FA3000388699000051120220812202200000000028849100000000028849100000000000000000000000000000000000000000000081220220 99  ICMS ST VEICULOS                                                            
FA3000761028000071120220812202200000000024385300000000024385300000000000000000000000000000000000000000000081220220 99  ICMS ST VEICULOS                                                            
FA3000389135000071120220812202200000000020160200000000020160200000000000000000000000000000000000000000000081220220 99  ICMS ST VEICULOS                                                            
FA3000761092000071120220812202200000000024000800000000024000800000000000000000000000000000000000000000000081220220 99  ICMS ST VEICULOS                                                            
FA3000589859000071120220812202200000000001359700000000001359700000000000000000000000000000000000000000000081220220 88  ICMS ST PECAS                                                               
FA3000590063000071120220812202200000000000399700000000000399700000000000000000000000000000000000000000000081220220 88  ICMS ST PECAS                                                               
FA3000590064000071120220812202200000000000989100000000000989100000000000000000000000000000000000000000000081220220 88  ICMS ST PECAS                                                               
FA3000587025000071120220812202200000000001363400000000001363400000000000000000000000000000000000000000000081220220 88  ICMS ST PECAS                                                               
FA3000588432000071120220812202200000000000153000000000000153000000000000000000000000000000000000000000000081220220 88  ICMS ST PECAS                                                               
FA3000588021000071120220812202200000000000216800000000000216800000000000000000000000000000000000000000000081220220 88  ICMS ST PECAS                                                               
FA3000588027000071120220812202200000000001259600000000001259600000000000000000000000000000000000000000000081220220 88  ICMS ST PECAS                                                               
FA3000588028000071120220812202200000000000137500000000000137500000000000000000000000000000000000000000000081220220 88  ICMS ST PECAS                                                               
FA3000588529000071120220812202200000000001419700000000001419700000000000000000000000000000000000000000000081220220 88  ICMS ST PECAS                                                               
FA3000589251000071120220812202200000000000372400000000000372400000000000000000000000000000000000000000000081220220 88  ICMS ST PECAS                                                               
FA3000589961000071120220812202200000000001094200000000001094200000000000000000000000000000000000000000000081220220 88  ICMS ST PECAS                                                               
FA3000590298000071120220812202200000000005608800000000005608800000000000000000000000000000000000000000000081220220 88  ICMS ST PECAS                                                               
FA3000590299000071120220812202200000000005493500000000005493500000000000000000000000000000000000000000000081220220 88  ICMS ST PECAS                                                               
FA3000590300000071120220812202200000000000045500000000000045500000000000000000000000000000000000000000000081220220 88  ICMS ST PECAS                                                               
FA3000595252000081120220812202200000000001619400000000001619400000000000000000000000000000000000000000000081220220 88  ICMS ST PECAS                                                               
FA3000595878000081120220812202200000000012390900000000012390900000000000000000000000000000000000000000000081220220 88  ICMS ST PECAS                                                               
FA3000594061000081120220812202200000000012388600000000012388600000000000000000000000000000000000000000000081220220 88  ICMS ST PECAS                                                               
FA3000595513000081120220812202200000000000131000000000000131000000000000000000000000000000000000000000000081220220 88  ICMS ST PECAS                                                               
FA3000595514000081120220812202200000000001125900000000001125900000000000000000000000000000000000000000000081220220 88  ICMS ST PECAS                                                               
FA3000593190000081120220812202200000000000720200000000000720200000000000000000000000000000000000000000000081220220 88  ICMS ST PECAS                                                               
FA3000593191000081120220812202200000000000117900000000000117900000000000000000000000000000000000000000000081220220 88  ICMS ST PECAS                                                               
FA3000761217000081120220812202200000000024210500000000024210500000000000000000000000000000000000000000000081220220 99  ICMS ST VEICULOS                                                            
FA3000390275000081120220812202200000000029034300000000029034300000000000000000000000000000000000000000000081220220 99  ICMS ST VEICULOS                                                            
FA3000390298000081120220812202200000000168418900000000168418900000000000000000000000000000000000000000000081220220 99  ICMS ST VEICULOS                                                            
FA3000592530000081120220812202200000000000212000000000000212000000000000000000000000000000000000000000000081220220 88  ICMS ST PECAS                                                               
FA3000591755000081120220812202200000000000306100000000000306100000000000000000000000000000000000000000000081220220 88  ICMS ST PECAS                                                               
FA3000591631000081120220812202200000000000251700000000000251700000000000000000000000000000000000000000000081220220 88  ICMS ST PECAS                                                               
FA3000592293000081120220812202200000000000728100000000000728100000000000000000000000000000000000000000000081220220 88  ICMS ST PECAS                                                               
FA3000593097000081120220812202200000000008163100000000008163100000000000000000000000000000000000000000000081220220 88  ICMS ST PECAS                                                               
FA3000590579000081120220812202200000000005592600000000005592600000000000000000000000000000000000000000000081220220 88  ICMS ST PECAS                                                               
FA3000599533000091120220812202200000000001484100000000001484100000000000000000000000000000000000000000000081220220 88  ICMS ST PECAS                                                               
FA3000599534000091120220812202200000000000635600000000000635600000000000000000000000000000000000000000000081220220 88  ICMS ST PECAS                                                               
FA3000599535000091120220812202200000000001700200000000001700200000000000000000000000000000000000000000000081220220 88  ICMS ST PECAS                                                               
FA3000761532000091120220812202200000000033341000000000033341000000000000000000000000000000000000000000000081220220 99  ICMS ST VEICULOS                                                            
FA3000761568000091120220812202200000000033341000000000033341000000000000000000000000000000000000000000000081220220 99  ICMS ST VEICULOS                                                            
FA3000761773000091120220812202200000000024210500000000024210500000000000000000000000000000000000000000000081220220 99  ICMS ST VEICULOS                                                            
FA3000761772000091120220812202200000000024385300000000024385300000000000000000000000000000000000000000000081220220 99  ICMS ST VEICULOS                                                            
FA3000391463000091120220812202200000000199628500000000199628500000000000000000000000000000000000000000000081220220 99  ICMS ST VEICULOS                                                            
FA3000596633000091120220812202200000000001669500000000001669500000000000000000000000000000000000000000000081220220 88  ICMS ST PECAS                                                               
FA3000597729000091120220812202200000000000364000000000000364000000000000000000000000000000000000000000000081220220 88  ICMS ST PECAS                                                               
FA3000596496000091120220812202200000000006069900000000006069900000000000000000000000000000000000000000000081220220 88  ICMS ST PECAS                                                               
FA3000596128000091120220812202200000000000104700000000000104700000000000000000000000000000000000000000000081220220 88  ICMS ST PECAS                                                               
FA3000596607000091120220812202200000000000169400000000000169400000000000000000000000000000000000000000000081220220 88  ICMS ST PECAS                                                               
FA3000596608000091120220812202200000000000527000000000000527000000000000000000000000000000000000000000000081220220 88  ICMS ST PECAS                                                               
FA3000597639000091120220812202200000000000107700000000000107700000000000000000000000000000000000000000000081220220 88  ICMS ST PECAS                                                               
FA3000596611000091120220812202200000000000586700000000000586700000000000000000000000000000000000000000000081220220 88  ICMS ST PECAS                                                               
FA3000596150000091120220812202200000000000368100000000000368100000000000000000000000000000000000000000000081220220 88  ICMS ST PECAS                                                               
FA3000596872000091120220812202200000000011870900000000011870900000000000000000000000000000000000000000000081220220 88  ICMS ST PECAS                                                               
FA3000598160000091120220812202200000000002616400000000002616400000000000000000000000000000000000000000000081220220 88  ICMS ST PECAS                                                               
FA3000596873000091120220812202200000000004822100000000004822100000000000000000000000000000000000000000000081220220 88  ICMS ST PECAS                                                               
FA3000596874000091120220812202200000000000272000000000000272000000000000000000000000000000000000000000000081220220 88  ICMS ST PECAS                                                               
FA3000596875000091120220812202200000000000330200000000000330200000000000000000000000000000000000000000000081220220 88  ICMS ST PECAS                                                               
FA3000598161000091120220812202200000000009852400000000009852400000000000000000000000000000000000000000000081220220 88  ICMS ST PECAS                                                               
FA3000598162000091120220812202200000000000793000000000000793000000000000000000000000000000000000000000000081220220 88  ICMS ST PECAS                                                               
FA3000598163000091120220812202200000000001466600000000001466600000000000000000000000000000000000000000000081220220 88  ICMS ST PECAS                                                               
FA3000604227000101120220812202200000000000053200000000000053200000000000000000000000000000000000000000000081220220 88  ICMS ST PECAS                                                               
FA3000604228000101120220812202200000000000838700000000000838700000000000000000000000000000000000000000000081220220 88  ICMS ST PECAS                                                               
FA3000514805000101120220812202200000000038766600000000038766600000000000000000000000000000000000000000000081220220 99  ICMS ST VEICULOS                                                            
FA3000602142000101120220812202200000000000248800000000000248800000000000000000000000000000000000000000000081220220 88  ICMS ST PECAS                                                               
FA3000602429000101120220812202200000000000473000000000000473000000000000000000000000000000000000000000000081220220 88  ICMS ST PECAS                                                               
FA3000603080000101120220812202200000000000469000000000000469000000000000000000000000000000000000000000000081220220 88  ICMS ST PECAS                                                               
FA3000603081000101120220812202200000000000292000000000000292000000000000000000000000000000000000000000000081220220 88  ICMS ST PECAS                                                               
FA3000601938000101120220812202200000000000148300000000000148300000000000000000000000000000000000000000000081220220 88  ICMS ST PECAS                                                               
FA3000602134000101120220812202200000000003611600000000003611600000000000000000000000000000000000000000000081220220 88  ICMS ST PECAS                                                               
FA3000602135000101120220812202200000000001049500000000001049500000000000000000000000000000000000000000000081220220 88  ICMS ST PECAS                                                               
FA3000601402000101120220812202200000000000083000000000000083000000000000000000000000000000000000000000000081220220 88  ICMS ST PECAS                                                               
FA3000600681000101120220812202200000000000059900000000000059900000000000000000000000000000000000000000000081220220 88  ICMS ST PECAS                                                               
FA3000600682000101120220812202200000000000406400000000000406400000000000000000000000000000000000000000000081220220 88  ICMS ST PECAS                                                               
FA3000600173000101120220812202200000000012715600000000012715600000000000000000000000000000000000000000000081220220 88  ICMS ST PECAS                                                               
FA3000605875000111120220812202200000000000626100000000000626100000000000000000000000000000000000000000000081220220 88  ICMS ST PECAS                                                               
FA3000606789000111120220812202200000000002968800000000002968800000000000000000000000000000000000000000000081220220 88  ICMS ST PECAS                                                               
FA3000606790000111120220812202200000000000327200000000000327200000000000000000000000000000000000000000000081220220 88  ICMS ST PECAS                                                               
FA3000606791000111120220812202200000000002212200000000002212200000000000000000000000000000000000000000000081220220 88  ICMS ST PECAS                                                               
FA3000606792000111120220812202200000000000084200000000000084200000000000000000000000000000000000000000000081220220 88  ICMS ST PECAS                                                               
FA3000605216000111120220812202200000000000096500000000000096500000000000000000000000000000000000000000000081220220 88  ICMS ST PECAS                                                               
FA3000606793000111120220812202200000000000537600000000000537600000000000000000000000000000000000000000000081220220 88  ICMS ST PECAS                                                               
FA3000606794000111120220812202200000000004134000000000004134000000000000000000000000000000000000000000000081220220 88  ICMS ST PECAS                                                               
FA3000606795000111120220812202200000000000484400000000000484400000000000000000000000000000000000000000000081220220 88  ICMS ST PECAS                                                               
FA3000606796000111120220812202200000000000369600000000000369600000000000000000000000000000000000000000000081220220 88  ICMS ST PECAS                                                               
FA3000608148000111120220812202200000000000635600000000000635600000000000000000000000000000000000000000000081220220 88  ICMS ST PECAS                                                               
FA3000608149000111120220812202200000000001578700000000001578700000000000000000000000000000000000000000000081220220 88  ICMS ST PECAS                                                               
FA3000605544000111120220812202200000000000196100000000000196100000000000000000000000000000000000000000000081220220 88  ICMS ST PECAS                                                               
FA3000606797000111120220812202200000000006402700000000006402700000000000000000000000000000000000000000000081220220 88  ICMS ST PECAS                                                               
FA3000605772000111120220812202200000000000209400000000000209400000000000000000000000000000000000000000000081220220 88  ICMS ST PECAS                                                               
FA3000605555000111120220812202200000000001430900000000001430900000000000000000000000000000000000000000000081220220 88  ICMS ST PECAS                                                               
FA3000606032000111120220812202200000000001290900000000001290900000000000000000000000000000000000000000000081220220 88  ICMS ST PECAS                                                               
FA3000606033000111120220812202200000000002808100000000002808100000000000000000000000000000000000000000000081220220 88  ICMS ST PECAS                                                               
FA3000606034000111120220812202200000000000093900000000000093900000000000000000000000000000000000000000000081220220 88  ICMS ST PECAS                                                               
FA3000605559000111120220812202200000000003479800000000003479800000000000000000000000000000000000000000000081220220 88  ICMS ST PECAS                                                               
FA3000608657000111120220812202200000000006556400000000006556400000000000000000000000000000000000000000000081220220 88  ICMS ST PECAS                                                               
FA3000608658000111120220812202200000000000298100000000000298100000000000000000000000000000000000000000000081220220 88  ICMS ST PECAS                                                               
FA3000609666000121120220812202200000000002696300000000002696300000000000000000000000000000000000000000000081220220 88  ICMS ST PECAS                                                               
FA3000609524000121120220812202200000000004821100000000004821100000000000000000000000000000000000000000000081220220 88  ICMS ST PECAS                                                               
FA3000609190000121120220812202200000000000069500000000000069500000000000000000000000000000000000000000000081220220 88  ICMS ST PECAS                                                               
FA3000609660000121120220812202200000000000773900000000000773900000000000000000000000000000000000000000000081220220 88  ICMS ST PECAS                                                               
FA3000609199000121120220812202200000000012715600000000012715600000000000000000000000000000000000000000000081220220 88  ICMS ST PECAS                                                               
FA3000609839000141120220812202200000000008419800000000008419800000000000000000000000000000000000000000000081220220 88  ICMS ST PECAS                                                               
FA3000610756000141120220812202200000000000033100000000000033100000000000000000000000000000000000000000000081220220 88  ICMS ST PECAS                                                               
FA3000610757000141120220812202200000000001378100000000001378100000000000000000000000000000000000000000000081220220 88  ICMS ST PECAS                                                               
FA3000609729000141120220812202200000000002945300000000002945300000000000000000000000000000000000000000000081220220 88  ICMS ST PECAS                                                               
FA3000611595000141120220812202200000000000058500000000000058500000000000000000000000000000000000000000000081220220 88  ICMS ST PECAS                                                               
FA3000610328000141120220812202200000000001878300000000001878300000000000000000000000000000000000000000000081220220 88  ICMS ST PECAS                                                               
FA3000613391000141120220812202200000000002086900000000002086900000000000000000000000000000000000000000000081220220 88  ICMS ST PECAS                                                               
FA3000613460000141120220812202200000000000450400000000000450400000000000000000000000000000000000000000000081220220 88  ICMS ST PECAS                                                               
FA3000613156000141120220812202200000000000527200000000000527200000000000000000000000000000000000000000000081220220 88  ICMS ST PECAS                                                               
FA3000613157000141120220812202200000000000498900000000000498900000000000000000000000000000000000000000000081220220 88  ICMS ST PECAS                                                               
FA3000615067000151120220812202200000000001742600000000001742600000000000000000000000000000000000000000000081220220 88  ICMS ST PECAS                                                               
FA3000616459000161120220812202200000000000721100000000000721100000000000000000000000000000000000000000000081220220 88  ICMS ST PECAS                                                               
FA3000616460000161120220812202200000000000136500000000000136500000000000000000000000000000000000000000000081220220 88  ICMS ST PECAS                                                               
FA3000617136000161120220812202200000000000253800000000000253800000000000000000000000000000000000000000000081220220 88  ICMS ST PECAS                                                               
FA3000763653000161120220812202200000000021670300000000021670300000000000000000000000000000000000000000000081220220 99  ICMS ST VEICULOS                                                            
FA3000620411000171120220812202200000000000429400000000000429400000000000000000000000000000000000000000000081220220 88  ICMS ST PECAS                                                               
FA3000620416000171120220812202200000000000325200000000000325200000000000000000000000000000000000000000000081220220 88  ICMS ST PECAS                                                               
FA3000620417000171120220812202200000000000353700000000000353700000000000000000000000000000000000000000000081220220 88  ICMS ST PECAS                                                               
FA3000618862000171120220812202200000000001657800000000001657800000000000000000000000000000000000000000000081220220 88  ICMS ST PECAS                                                               
FA3000618863000171120220812202200000000001811200000000001811200000000000000000000000000000000000000000000081220220 88  ICMS ST PECAS                                                               
FA3000618864000171120220812202200000000000170900000000000170900000000000000000000000000000000000000000000081220220 88  ICMS ST PECAS                                                               
FA3000618866000171120220812202200000000001624600000000001624600000000000000000000000000000000000000000000081220220 88  ICMS ST PECAS                                                               
FA3000764240000171120220812202200000000032858600000000032858600000000000000000000000000000000000000000000081220220 99  ICMS ST VEICULOS                                                            
FA3000397290000181120220812202200000000032858600000000032858600000000000000000000000000000000000000000000081220220 99  ICMS ST VEICULOS                                                            
FA3000765312000181120220812202200000000021670300000000021670300000000000000000000000000000000000000000000081220220 99  ICMS ST VEICULOS                                                            
FA3000622819000181120220812202200000000004675000000000004675000000000000000000000000000000000000000000000081220220 88  ICMS ST PECAS                                                               
FA3000622507000181120220812202200000000003951200000000003951200000000000000000000000000000000000000000000081220220 88  ICMS ST PECAS                                                               
FA3000623352000181120220812202200000000000486900000000000486900000000000000000000000000000000000000000000081220220 88  ICMS ST PECAS                                                               
FA3000623417000181120220812202200000000009347000000000009347000000000000000000000000000000000000000000000081220220 88  ICMS ST PECAS                                                               
FA3000623418000181120220812202200000000004269600000000004269600000000000000000000000000000000000000000000081220220 88  ICMS ST PECAS                                                               
FA3000623419000181120220812202200000000001075300000000001075300000000000000000000000000000000000000000000081220220 88  ICMS ST PECAS                                                               
FA3000622521000181120220812202200000000000388800000000000388800000000000000000000000000000000000000000000081220220 88  ICMS ST PECAS                                                               
FA3000625386000181120220812202200000000001193800000000001193800000000000000000000000000000000000000000000081220220 88  ICMS ST PECAS                                                               
FA3000625387000181120220812202200000000001271300000000001271300000000000000000000000000000000000000000000081220220 88  ICMS ST PECAS                                                               
FA3000622532000181120220812202200000000000161400000000000161400000000000000000000000000000000000000000000081220220 88  ICMS ST PECAS                                                               
FA3000625388000181120220812202200000000001793100000000001793100000000000000000000000000000000000000000000081220220 88  ICMS ST PECAS                                                               
FA3000625389000181120220812202200000000000850100000000000850100000000000000000000000000000000000000000000081220220 88  ICMS ST PECAS                                                               
FA3000622665000181120220812202200000000000581900000000000581900000000000000000000000000000000000000000000081220220 88  ICMS ST PECAS                                                               
FA3000623961000181120220812202200000000002386100000000002386100000000000000000000000000000000000000000000081220220 88  ICMS ST PECAS                                                               
FA3000622358000181120220812202200000000000254800000000000254800000000000000000000000000000000000000000000081220220 88  ICMS ST PECAS                                                               
FA3000623325000181120220812202200000000000153000000000000153000000000000000000000000000000000000000000000081220220 88  ICMS ST PECAS                                                               
FA3000623392000181120220812202200000000000936600000000000936600000000000000000000000000000000000000000000081220220 88  ICMS ST PECAS                                                               
FA3000623393000181120220812202200000000004429800000000004429800000000000000000000000000000000000000000000081220220 88  ICMS ST PECAS                                                               
FA3000623394000181120220812202200000000012470000000000012470000000000000000000000000000000000000000000000081220220 88  ICMS ST PECAS                                                               
FA3000624682000181120220812202200000000002059000000000002059000000000000000000000000000000000000000000000081220220 88  ICMS ST PECAS                                                               
FA3000624683000181120220812202200000000000635200000000000635200000000000000000000000000000000000000000000081220220 88  ICMS ST PECAS                                                               
FA3000624684000181120220812202200000000000135100000000000135100000000000000000000000000000000000000000000081220220 88  ICMS ST PECAS                                                               
FA3000624685000181120220812202200000000006168300000000006168300000000000000000000000000000000000000000000081220220 88  ICMS ST PECAS                                                               
FA3000622300000181120220812202200000000006933000000000006933000000000000000000000000000000000000000000000081220220 88  ICMS ST PECAS                                                               
FA3000622810000181120220812202200000000001630300000000001630300000000000000000000000000000000000000000000081220220 88  ICMS ST PECAS                                                               
FA3000623395000181120220812202200000000002446700000000002446700000000000000000000000000000000000000000000081220220 88  ICMS ST PECAS                                                               
FA3000623402000181120220812202200000000000015000000000000015000000000000000000000000000000000000000000000081220220 88  ICMS ST PECAS                                                               
FA3000627160000191120220812202200000000000088900000000000088900000000000000000000000000000000000000000000081220220 88  ICMS ST PECAS                                                               
FA3000626128000191120220812202200000000000130600000000000130600000000000000000000000000000000000000000000081220220 88  ICMS ST PECAS                                                               
FA3000627161000191120220812202200000000000466900000000000466900000000000000000000000000000000000000000000081220220 88  ICMS ST PECAS                                                               
FA3000630592000211120220812202200000000000387000000000000387000000000000000000000000000000000000000000000081220220 88  ICMS ST PECAS                                                               
FA3000631149000211120220812202200000000001339200000000001339200000000000000000000000000000000000000000000081220220 88  ICMS ST PECAS                                                               
FA3000630222000211120220812202200000000003833500000000003833500000000000000000000000000000000000000000000081220220 88  ICMS ST PECAS                                                               
FA3000635586000221120220812202200000000001313900000000001313900000000000000000000000000000000000000000000081220220 88  ICMS ST PECAS                                                               
FA3000635587000221120220812202200000000000183600000000000183600000000000000000000000000000000000000000000081220220 88  ICMS ST PECAS                                                               
FA3000635994000221120220812202200000000000018600000000000018600000000000000000000000000000000000000000000081220220 88  ICMS ST PECAS                                                               
FA3000632388000221120220812202200000000000458000000000000458000000000000000000000000000000000000000000000081220220 88  ICMS ST PECAS                                                               
FA3000632389000221120220812202200000000001026000000000001026000000000000000000000000000000000000000000000081220220 88  ICMS ST PECAS                                                               
FA3000632390000221120220812202200000000000120700000000000120700000000000000000000000000000000000000000000081220220 88  ICMS ST PECAS                                                               
FA3000633643000221120220812202200000000000104100000000000104100000000000000000000000000000000000000000000081220220 88  ICMS ST PECAS                                                               
FA3000633644000221120220812202200000000000118400000000000118400000000000000000000000000000000000000000000081220220 88  ICMS ST PECAS                                                               
FA3000633645000221120220812202200000000000710600000000000710600000000000000000000000000000000000000000000081220220 88  ICMS ST PECAS                                                               
FA3000633646000221120220812202200000000001554300000000001554300000000000000000000000000000000000000000000081220220 88  ICMS ST PECAS                                                               
FA3000632813000221120220812202200000000000729500000000000729500000000000000000000000000000000000000000000081220220 88  ICMS ST PECAS                                                               
FA3000399612000221120220812202200000000199628500000000199628500000000000000000000000000000000000000000000081220220 99  ICMS ST VEICULOS                                                            
FA3000399613000221120220812202200000000193740400000000193740400000000000000000000000000000000000000000000081220220 99  ICMS ST VEICULOS                                                            
FA3000399913000221120220812202200000000308900900000000308900900000000000000000000000000000000000000000000081220220 99  ICMS ST VEICULOS                                                            
FA3000639093000231120220812202200000000007996800000000007996800000000000000000000000000000000000000000000081220220 88  ICMS ST PECAS                                                               
FA3000639094000231120220812202200000000000259000000000000259000000000000000000000000000000000000000000000081220220 88  ICMS ST PECAS                                                               
FA3000638087000231120220812202200000000004237900000000004237900000000000000000000000000000000000000000000081220220 88  ICMS ST PECAS                                                               
FA3000638088000231120220812202200000000000338400000000000338400000000000000000000000000000000000000000000081220220 88  ICMS ST PECAS                                                               
FA3000638096000231120220812202200000000000076700000000000076700000000000000000000000000000000000000000000081220220 88  ICMS ST PECAS                                                               
FA3000636470000231120220812202200000000000214200000000000214200000000000000000000000000000000000000000000081220220 88  ICMS ST PECAS                                                               
FA3000638097000231120220812202200000000000065400000000000065400000000000000000000000000000000000000000000081220220 88  ICMS ST PECAS                                                               
FA3000400625000231120220812202200000000199628500000000199628500000000000000000000000000000000000000000000081220220 99  ICMS ST VEICULOS                                                            
FA3000401522000241120220812202200000000307524300000000307524300000000000000000000000000000000000000000000081220220 99  ICMS ST VEICULOS                                                            
FA3000641011000241120220812202200000000003599000000000003599000000000000000000000000000000000000000000000081220220 88  ICMS ST PECAS                                                               
FA3000641012000241120220812202200000000015122200000000015122200000000000000000000000000000000000000000000081220220 88  ICMS ST PECAS                                                               
FA3000640949000241120220812202200000000000436400000000000436400000000000000000000000000000000000000000000081220220 88  ICMS ST PECAS                                                               
FA3000641013000241120220812202200000000000793000000000000793000000000000000000000000000000000000000000000081220220 88  ICMS ST PECAS                                                               
FA3000641014000241120220812202200000000000265600000000000265600000000000000000000000000000000000000000000081220220 88  ICMS ST PECAS                                                               
FA3000641015000241120220812202200000000002342800000000002342800000000000000000000000000000000000000000000081220220 88  ICMS ST PECAS                                                               
FA3000640114000241120220812202200000000000198300000000000198300000000000000000000000000000000000000000000081220220 88  ICMS ST PECAS                                                               
FA3000640583000241120220812202200000000006243600000000006243600000000000000000000000000000000000000000000081220220 88  ICMS ST PECAS                                                               
FA3000640588000241120220812202200000000000581900000000000581900000000000000000000000000000000000000000000081220220 88  ICMS ST PECAS                                                               
FA3000762953000111120222911202200000000740050800000000740050800000000000000000000000000000000000000000000291120220 01  VENDAS DE VEICULOS                                                          
FA3716791     0181120222511202200000000003380000000000003380000000000000000000000000000000000000000000000251120220 44  NOTA DE DEBITO                                                              
FA3726826     0211120222811202200000000003380000000000003380000000000000000000000000000000000000000000000281120220 44  NOTA DE DEBITO                                                              
FA3772858     0031120222012202200000000005710100000000005444600000000000000000000000000000000000000000000201220220 DZRVFAT. MISCELANEOUS                                                           
FA3773850     0041120222012202200000000005880000000000005606600000000000000000000000000000000000000000000201220220 DZRVFAT. MISCELANEOUS                                                           
FA3774312     0081120222012202200000000012890000000000012097200000000000000000000000000000000000000000000201220220 DZRVFAT. MISCELANEOUS                                                           
FA3774734     0231120222012202200000000007201100000000006758300000000000000000000000000000000000000000000201220220 DZRVFAT. MISCELANEOUS                                                           
FA40000SALDO INICIAL                           000000000024112022C000000019206864DZT4LIQUIDACAO - TRANSF.NF VENDA CORP        00039043624112022D000000006850768                            040213  
FA4DZ44LIQUIDACAO - NOTA DE DEBITO             180269792524112022D000000000033800DM  IPPR PECAS                              180275340024112022C000000000015316                            040213  
FA4DM  IPPR PECAS                              180275391824112022C000000000095649DT  DEPOSITO TEMPO REAL                      00149070024112022C000000006000000                            040213  
FA4D1  IMPOSTO DE RENDA                         00039043624112022D000000000004110D5  CREDITO DE COMISSOES                     00039043624112022C000000000274031                            040213  
FA4HB  HOLD BACK                                00039043624112022D0000000000685079999SALDO FINAL                             000000000024112022C000000018634675                            040213  
FAF100000000000219                                                                                                                                                                                 
FPI10000000000000251120220000000000005101225                                                                                                                                                       
F1000001225153665900000000154023225.11.2022                                                                                                                                                110199  
F1001001225153665964101200000000096234224.11.202264101300000000006307924.11.202264101400000000001319624.11.202264101500000000011797924.11.2022                                             110199  
F1001001225153665964011400000000001541924.11.202264058300000000031794024.11.202264058800000000004525124.11.202264094900000000003393924.11.202264101100000000026691524.11.2022              110199  
FPF100000000000005                                                                                                                                                                                 
FVI10000000000000241120220000000000005101225                                                                                                                                                       
FVD0002411202240152235  53612010F 00000000000000000000SERVOPA S.A. COMERCIO E INDUST2411202250005401225                                                                                    230103  
FVD0022411202240152235  53L          TES7BD8A0B4B4BRANCO CRISTAL                          202320223 YI2 YI3 ZBF                                                                     0258C          
FVD0032411202240152235  53WV1DA22H9PA00389100200367042221711733031120222231295140      02112022DDX200051           I/VW AMAROK V6 EXTREME                                                          
FVD0042411202240152235  53000000030748286000000000000000000000000000030752430000000339570000000000009995970000000249899150052000000002630517400000000136786900520000000000000000000000000000000    
FVD0052411202240152235  53000000001059209851000000000000000000000000000000000000000000016967000000000000000000000000000000000000000000000000000000000000000000000000000000000000000000             
FVD0002411202276736937  51709683FF00000000000036792701SUPERMERCADO MATEUS LTDA      0912202290122502024SUPERMERCADO MATEUS LTDA                S                                           230103  
FVD0012411202276736937  51    13494238/0001-62SUPERMERCADO MATEUS LTDA                AV SERTANEJA                            JARDIM PRIMAVERA III84200000JAGUARIAIVA         PR                   
FVD0022411202276736937  51V          UQ5UFNU40B4B4BRANCO CRISTAL                          202320228                                                                                 0116C          
FVD0032411202276736937  519BWKL45U7PP0292800020028204          00000000                00000000CNX209682           VW/SAVEIRO CS RB MPI                                                            
FVD0042411202276736937  51000000008122509000000000000000000000000000001079650000000081225000000000009073480000000062575740052000000000688202300000000035786500520000000000000000000000000000000    
FVD0052411202276736937  51000000000000000000000000000000000000000000000000000000000000000000000000000000000000000000000000000000000000000000000000000000000000000000000000000000000000             
FVF100000000000013                                                                                                                                                                                 
FVI10000000000000241120220000000000005101225                                                                                                                                                       
FVW0002411202240152235  53612010F 00000000000000000000SERVOPA S.A. COMERCIO E INDUST2411202250005401225                                                                                    230103  
FVW0022411202240152235  53L          TES7BD8A0B4B4BRANCO CRISTAL                          202320223 YI2 YI3 ZBF                                                                     0258C          
FVW0032411202240152235  53WV1DA22H9PA00389100200367042221711733031120222231295140      02112022DDX200051           I/VW AMAROK V6 EXTREME                                                          
FVW0042411202240152235  53000000030748286000000000000000000000000000030752430000000339570000000000009995970000000249899150052000000002630517400000000136786900520000000000000000000000000000000    
FVW0052411202240152235  53000000001059209851000000000000000000000000000000000000000000016967000000000000000000000000000000000000000000000000000000000000000000000000000000000000000000             
FVW0072411202240152235  53                                        35221159104422002446550350004015221307030632                                                                                     
FVW0002411202276736937  51709683FF00000000000036792701SUPERMERCADO MATEUS LTDA      0912202290122502024SUPERMERCADO MATEUS LTDA                S                                           230103  
FVW0012411202276736937  51    13494238/0001-62SUPERMERCADO MATEUS LTDA                AV SERTANEJA                            JARDIM PRIMAVERA III84200000JAGUARIAIVA         PR                   
FVW0022411202276736937  51V          UQ5UFNU40B4B4BRANCO CRISTAL                          202320228                                                                                 0116C          
FVW0032411202276736937  519BWKL45U7PP0292800020028204          00000000                00000000CNX209682           VW/SAVEIRO CS RB MPI                                                            
FVW0042411202276736937  51000000008122509000000000000000000000000000001079650000000081225000000000009073480000000062575740052000000000688202300000000035786500520000000000000000000000000000000    
FVW0052411202276736937  51000000000000000000000000000000000000000000000000000000000000000000000000000000000000000000000000000000000000000000000000000000000000000000000000000000000000             
FVW0072411202276736937  51                                        35221159104422005704550370007673691734689604                                                                                     
FVF100000000000015                                                                                                                                                                                 
FAI10000000000000251120220000000000005101225                                                                                                                                                       
FNT00001225SERVOPA S.A. COMERCIO E IR.LEOPOLDO GUIMARAES DA CUNHA, 233      PONTA GROSSA        OFICINAS                      PR84035-31                                                   101202  
FNT01CVOLKSWAGEN DO BRASIL LTDA59.104.422/0001-50ISENTO            ESTRADA MARGINAL DA VIA ANCHIETA                  7551741802241122241122KLENIO DA SILVA LEAO     2853           0000            
FNT02CREDITAMOS SUA CONTA CORRENTE REFERENTE A COMISSAO SOBRE VENDA                                                                                                                                
FNT02DIRETA, CONFORME DADOS:                                                                                                                                                                       
FNT02          T O T A L  D O  C R E D I T O        2740.31                                                                                                                                        
FNT02          IR  SOBRE COMISSOES          41.10                                                                                                                                                  
FNT02CREDITAMOS SUA CONTA CORRENTE REFERENTE A COMISS                                                                                                                                              
FNT02AO SOBRE VENDA DIRETA, CONFORME DADOS:                                                                                                                                                        
FNT02 NOTA: 00039043635  000                                                                                                                                                                       
FNT02 CHASSI: 9BWAG45U7PT029271                                                                                                                                                                    
FNT02 AVEIF: 0036351401                                                                                                                                                                            
FNT02          TOTAL LIQUIDO              2740.31                                                                                                                                                  
FNT02          VOLKSWAGEN - VAI MAIS LONGE POR VOCE                                                                                                                                                
FNT02          EM CASO DE DUVIDAS, FAVOR CONTATAR O EMITENTE                                                                                                                                       
FAF100000000000016                                                                                                                                                                                 
FHF000000000000503                                                                                                                                                                                 
