FHI00000000000000251120220000000000005100032         00                                                                                                                                            
FPI10000000000000241120220000000000005100032                                                                                                                                                       
FP9536217303CP2111       656410802411202226122022 2G6/  959752/BA/AIFCHAVE        8301600000000000000000000000000118480000009873300000010000038002993589801000000      00000000000000      011102  
FPF100000000000003                                                                                                                                                                                 
FPI00000000000000241120220000000000005100032                                                                                                                                                       
FP6510607303Pvex Abril/2201042022 V03/  839900/BF/   000000100000039080                    000000000000000000                    000000000000000000B                                               
FP6531108101Bestdrive 30.30092022 6EA/  071310/A /   000000100000010291                    000000000000000000                    000000000000000000B                                               
FP6535942303PVEX nov-22  18112022 V03/  839124/AS/   000000100000233854                    000000000000000000                    000000000000000000B                                               
FP7534969001PVEXDSH      08112022   G/  S55545/M2/BRA000009600000004810                    000000000000000000                    000000000000000000                                                
FP7536555603CP2311       23112022   N/  105145/04/   000000400000019330   N/  106296/02/   000000500000000936 2H6/  399151/A /   000000100000062537                                                
FP7536555603CP2311       23112022 2QB/  919051/F /   000000100000077636                    000000000000000000                    000000000000000000                                                
FPF000000000000008                                                                                                                                                                                 
FPI00000000000000241120220000000000005100032                                                                                                                                                       
FP6510607303Pvex Abril/2201042022 V03/  839900/BF/   000000100000039080                    000000000000000000                    000000000000000000B                                               
FP6531108101Bestdrive 30.30092022 6EA/  071310/A /   000000100000010291                    000000000000000000                    000000000000000000B                                               
FP6535942303PVEX nov-22  18112022 V03/  839124/AS/   000000100000233854                    000000000000000000                    000000000000000000B                                               
FP7534969001PVEXDSH      08112022   G/  S55545/M2/BRA000009600000004810                    000000000000000000                    000000000000000000                                                
FP7536555603CP2311       23112022   N/  105145/04/   000000400000019330   N/  106296/02/   000000500000000936 2H6/  399151/A /   000000100000062537                                                
FP7536555603CP2311       23112022 2QB/  919051/F /   000000100000077636                    000000000000000000                    000000000000000000                                                
FPF000000000000008                                                                                                                                                                                 
FRI10000000000000241120220000000000005100032                                                                                                                                                       
FR111000000000000000000000000000000000000000000000000000000000000+00000000000000+C                                                                                                         010699  
FR111000000000000000000000000000000000000000000000000000001102994-00000000000000+O                                                                                                         010699  
FR111000000000000000000000000000000000000000000000000000064061298-00000000000000+N                                                                                                         010699  
FR2000139135050 P09112022000000000000000072029400000002162117630000000000000009BWAG45U9PT083557VW VEICULOS  VW/GOL MPI          202220230000000                                            026     
FR2000139958050 P22112022000000000000000146304300000004391639030000000000000008AWBJ6B24NA836508VW VEICULOS  I/VW TAOS CL TSI    202220220000000                                            026     
FR2000151444840 P09112022000000000000000158777220000004766040490000000000000009BWBJ6BF0P4020820VW VEICULOS  VW/T CROSS HL TSI   202220230000000                                            026     
FR2000176643570 P22112022000000000000000112957070000003390650080000000000000009BWCH6CHXPP017325VW VEICULOS  VW/NIVUS CL TSI     202220230000000                                            026     
FR2000139277950 P10112022000000000000000150544950000004518931180000000000000008AWBJ6B20NA835789VW VEICULOS  I/VW TAOS CL TSI    202220220000000                                            026     
F060101 DOLAR REFERENCIAL DIARIO - VENDA                                                                                                                                                   300997  
F06022511202200000053149000000000000000000000000000000000000000000000000000000000000000000000000000000000000000000000000000000000000000000000000000000000000000000000000000000000          300997  
F060105 UFIR - UNIDADE FISCAL DE REFERENCIA                                                                                                                                                300997  
F06022511202200000010641000000000000000000000000000000000000000000000000000000000000000000000000000000000000000000000000000000000000000000000000000000000000000000000000000000000          300997  
F060114 IGPM - INDICE GERAL DE PRECOS DO MERCADO                                                                                                                                           300997  
F06022511202200008818318000000000000000000000000000000000000000000000000000000000000000000000000000000000000000000000000000000000000000000000000000000000000000000000000000000000          300997  
F060130 TRD - TAXA REFERENCIAL DIARIA                                                                                                                                                      300997  
F06022511202200000000134716200000000000000000000000000000000000000000000000000000000000000000000000000000000000000000000000000000000000000000000000000000000000000000000000000000          300997  
F060175 TABELA DE QCS PARA LIQUIDACAO DE DEBITOS EXCLUSIVAMENTE JUNTO AO CREDITO ROTATIVO                                                                                                  300997  
F06022511202200000261401231500000000000000000000000000000000000000000000000000000000000000000000000000000000000000000000000000000000000000000000000000000000000000000000000000000          300997  
F060178 TABELA DE QCIS PARA LIQUIDACAO DE DEBITOS EXCLUSIVAMENTE JUNTO AO CREDITO ROTATIVO - VEICULOS IMPORTADOS VW                                                                        300997  
F06022511202200000014729272000000000000000000000000000000000000000000000000000000000000000000000000000000000000000000000000000000000000000000000000000000000000000000000000000000          300997  
F060192 TABELA DE QCIS PARA LIQUIDACAO DE DEBITOS EXCLUSIVAMENTE JUNTO AO CREDITO ROTATIVO - VEICULOS IMPORT. SEAT                                                                         300997  
F06022511202200000014827648600000000000000000000000000000000000000000000000000000000000000000000000000000000000000000000000000000000000000000000000000000000000000000000000000000          300997  
F060196 TABELA DE QCIS PARA LIQUIDACAO DE DEBITOS EXCLUSIVAMENTE JUNTO AO CREDITO ROTATIVO - VEIC.IMPORT VW/96                                                                             300997  
F06022511202200000350306817500000000000000000000000000000000000000000000000000000000000000000000000000000000000000000000000000000000000000000000000000000000000000000000000000000          300997  
F0601101TABELA DE QCIS PARA LIQUIDACAO DE DEBITOS EXCLUSIVAMENTE JUNTO AO CREDITO ROTATIVO - VEICULO USADO                                                                                 300997  
F06022511202200000485229587800000000000000000000000000000000000000000000000000000000000000000000000000000000000000000000000000000000000000000000000000000000000000000000000000000          300997  
F0601105TABELA DE QCIS PARA LIQUIDACAO DE DEBITOS EXCLUSIVAMENTE JUNTO AO CREDITO ROTATIVO - VEICULOS AUDI                                                                                 300997  
F06022511202200000786340566400000000000000000000000000000000000000000000000000000000000000000000000000000000000000000000000000000000000000000000000000000000000000000000000000000          300997  
F0601106TABELA DE QCIS PARA LIQUIDACAO DE DEBITOS EXCLUSIVAMENTE JUNTO AO CREDITO ROTATIVO - PECAS                                                                                         300997  
F06022511202200001075379599800000000000000000000000000000000000000000000000000000000000000000000000000000000000000000000000000000000000000000000000000000000000000000000000000000          300997  
F0601109TABELA DE QCIS PARA LIQUIDACAO DE DEBITOS EXCLUSIVAMENTE JUNTO AO CREDITO ROTATIVO - CAMINHOES USADOS                                                                              300997  
F06022511202200001094751175400000000000000000000000000000000000000000000000000000000000000000000000000000000000000000000000000000000000000000000000000000000000000000000000000000          300997  
F0601110TABELA DE QCIS PARA LIQUIDACAO DE DEBITOS EXCLUSIVAMENTE JUNTO AO CREDITO ROTATIVO - AUDI USADOS                                                                                   300997  
F06022511202200000797339325500000000000000000000000000000000000000000000000000000000000000000000000000000000000000000000000000000000000000000000000000000000000000000000000000000          300997  
F0601111TABELA DE QCIS PARA LIQUIDACAO DE DEBITOS EXCLUSIVAMENTE JUNTO AO CREDITO ROTATIVO - SEAT USADOS                                                                                   300997  
F06022511202200000807565158900000000000000000000000000000000000000000000000000000000000000000000000000000000000000000000000000000000000000000000000000000000000000000000000000000          300997  
F0601115TABELA DE QCIS PARA LIQUIDACAO DE DEBITOS EXCLUSIVAMENTE JUNTO AO CREDITO ROTATIVO - QC COM BONUS                                                                                  300997  
F06022511202200000333407798200000000000000000000000000000000000000000000000000000000000000000000000000000000000000000000000000000000000000000000000000000000000000000000000000000          300997  
F0601116TABELA DE QCIS PARA LIQUIDACAO DE DEBITOS EXCLUSIVAMENTE JUNTO AO CREDITO ROTATIVO - QC DO BONUS ROTATIVO                                                                          300997  
F06022511202200000098453402600000000000000000000000000000000000000000000000000000000000000000000000000000000000000000000000000000000000000000000000000000000000000000000000000000          300997  
F0601117TABELA DE QCIS PARA LIQUIDACAO DE DEBITOS EXCLUSIVAMENTE JUNTO AO CREDITO ROTATIVO - QC FINANCIAMENTO ICMS                                                                         300997  
F06022511202200001075379602000000000000000000000000000000000000000000000000000000000000000000000000000000000000000000000000000000000000000000000000000000000000000000000000000000          300997  
F0601119TABELA DE QCIS PARA LIQUIDACAO DE DEBITOS EXCLUSIVAMENTE JUNTO AO CREDITO ROTATIVO - MULTA DE CONFISSAO DIV                                                                        300997  
F06022511202200000010000000000000000000000000000000000000000000000000000000000000000000000000000000000000000000000000000000000000000000000000000000000000000000000000000000000000          300997  
FRF100000000000046                                                                                                                                                                                 
FVI10060000000000251120220000000000005100032                                                                                                                                                       
F229BWCH6CH7PP012115747746290920229BWAG5BZ9PP002040752423171020229BWCH6CHXPP017325766435221120229BWAG5BZ5PP00397675889628102022                                                            300997  
F229BWCH6CH7PP020568767523241120229BWAG5BZ5PP004092752685171020229BWAG5BZ2PP002199752660171020229BWAG5BZ6PP00234975244617102022                                                            300997  
F228AWBJ6B2XNA839784401549241120229BWCH6CH8PP013239384516261020229BWAG45U5PT078842385864281020228AWBJ6B20NA83578939277910112022                                                            300997  
F22WV1DA22H8NA035552369281130920229BWBJ6BF0P4020820514448091120229BWAG45U5PT078713385492271020229BWAG45U6PT07845938547827102022                                                            300997  
F229BWAG45U2PT078457385476271020229BWBH6BF9N4062640508785300920229BWBH6BFXP401683551083722102022WV1DA22H3NA03787237213921092022                                                            300997  
F229BWBH6BF2P4017249511331251020229BWBH6BF8P4003176504624020920229BWAG45U9PT083557391350091120229BWAG45U1PT07250537534330092022                                                            300997  
F22WV1DA22H5NA03524836856110092022WV1DA22H8NA035602368562100920229BWBH6BF9P4016650510709211020228AWBJ6B24NA83650839958022112022                                                            300997  
FVF100000000000009                                                                                                                                                                                 
FAI10000000000000251120220000000000005100032                                                                                                                                                       
FA100000000000000+00000000000000+00000000000000+00000000000000+00000000000000+00000000000000+00000000000000+00000000000000+00000000000000+                                                         
FA200000000000000+00000000000000+00000000000000+00000000000000+00000000000000+00000000000000+00000000000000+00000000000000+00000000000000+                                                         
FA3000577925000011120220812202200000000000092400000000000092400000000000000000000000000000000000000000000081220220 88  ICMS ST PECAS                                                               
FA3000577530000011120220812202200000000000122500000000000122500000000000000000000000000000000000000000000081220220 88  ICMS ST PECAS                                                               
FA3000760106000031120220812202200000000028920100000000028920100000000000000000000000000000000000000000000081220220 99  ICMS ST VEICULOS                                                            
FA3000586507000041120220812202200000000000672300000000000672300000000000000000000000000000000000000000000081220220 88  ICMS ST PECAS                                                               
FA3000589841000071120220812202200000000000307400000000000307400000000000000000000000000000000000000000000081220220 88  ICMS ST PECAS                                                               
FA3000594525000081120220812202200000000000272300000000000272300000000000000000000000000000000000000000000081220220 88  ICMS ST PECAS                                                               
FA3000591201000081120220812202200000000000695600000000000695600000000000000000000000000000000000000000000081220220 88  ICMS ST PECAS                                                               
FA3000591202000081120220812202200000000000216800000000000216800000000000000000000000000000000000000000000081220220 88  ICMS ST PECAS                                                               
FA3000591976000081120220812202200000000001470500000000001470500000000000000000000000000000000000000000000081220220 88  ICMS ST PECAS                                                               
FA3000599766000091120220812202200000000000018400000000000018400000000000000000000000000000000000000000000081220220 88  ICMS ST PECAS                                                               
FA3000599767000091120220812202200000000000661600000000000661600000000000000000000000000000000000000000000081220220 88  ICMS ST PECAS                                                               
FA3000391350000091120220812202200000000020516000000000020516000000000000000000000000000000000000000000000081220220 99  ICMS ST VEICULOS                                                            
FA3000514448000091120220812202200000000039373900000000039373900000000000000000000000000000000000000000000081220220 99  ICMS ST VEICULOS                                                            
FA3000391414000091120220812202200000000199628500000000199628500000000000000000000000000000000000000000000081220220 99  ICMS ST VEICULOS                                                            
FA3000392779000101120220812202200000000167874900000000167874900000000000000000000000000000000000000000000081220220 99  ICMS ST VEICULOS                                                            
FA3000602611000101120220812202200000000001501000000000001501000000000000000000000000000000000000000000000081220220 88  ICMS ST PECAS                                                               
FA3000603784000101120220812202200000000000026700000000000026700000000000000000000000000000000000000000000081220220 88  ICMS ST PECAS                                                               
FA3000603785000101120220812202200000000000088700000000000088700000000000000000000000000000000000000000000081220220 88  ICMS ST PECAS                                                               
FA3000615001000151120220812202200000000000180400000000000180400000000000000000000000000000000000000000000081220220 88  ICMS ST PECAS                                                               
FA3000615030000151120220812202200000000002397800000000002397800000000000000000000000000000000000000000000081220220 88  ICMS ST PECAS                                                               
FA3000615031000151120220812202200000000000480300000000000480300000000000000000000000000000000000000000000081220220 88  ICMS ST PECAS                                                               
FA3000634939000221120220812202200000000000940100000000000940100000000000000000000000000000000000000000000081220220 88  ICMS ST PECAS                                                               
FA3000634940000221120220812202200000000001157800000000001157800000000000000000000000000000000000000000000081220220 88  ICMS ST PECAS                                                               
FA3000632942000221120220812202200000000002475200000000002475200000000000000000000000000000000000000000000081220220 88  ICMS ST PECAS                                                               
FA3000399580000221120220812202200000000164053100000000164053100000000000000000000000000000000000000000000081220220 99  ICMS ST VEICULOS                                                            
FA3000766435000221120220812202200000000029289500000000029289500000000000000000000000000000000000000000000081220220 99  ICMS ST VEICULOS                                                            
FA3000767523000241120220812202200000000032941300000000032941300000000000000000000000000000000000000000000081220220 99  ICMS ST VEICULOS                                                            
FA3000401549000241120220812202200000000164053100000000164053100000000000000000000000000000000000000000000081220220 99  ICMS ST VEICULOS                                                            
FA3000641080000241120220812202200000000001419700000000001419700000000000000000000000000000000000000000000081220220 88  ICMS ST PECAS                                                               
FA3772862     0031120222012202200000000005710100000000005444600000000000000000000000000000000000000000000201220220 DZRVFAT. MISCELANEOUS                                                           
FA3773854     0041120222012202200000000005880000000000005606600000000000000000000000000000000000000000000201220220 DZRVFAT. MISCELANEOUS                                                           
FA3774316     0081120222012202200000000012890000000000012097200000000000000000000000000000000000000000000201220220 DZRVFAT. MISCELANEOUS                                                           
FA3774737     0231120222012202200000000007201100000000006758300000000000000000000000000000000000000000000201220220 DZRVFAT. MISCELANEOUS                                                           
FA40000SALDO INICIAL                           000000000024112022C000000012124622DZRVLIQUIDACAO - VENDAS DIVERSOS                      24112022D000000000573066                            040213  
FA49999SALDO FINAL                             000000000024112022C000000011551556                                                                                                          040213  
FAF100000000000039                                                                                                                                                                                 
FVI10000000000000241120220000000000005100032                                                                                                                                                       
FVD0002411202240154935  53589344F 00000000000000000000SERVOPA S/A COMERCIO E INDUSTR2411202250149400032                                                                                    230103  
FVD0022411202240154935  53L          UZCQ13LY3K2K2PRATA PYRIT                             202220228                                                                                 0150C          
FVD0032411202240154935  538AWBJ6B2XNA83978400200278102222030713071120222231863784      07112022CWL142996           I/VW TAOS CL TSI                                                                
FVD0042411202240154935  53000000016247770000000000000000000000000000016405310000000179430000000000005126290000000128157350082800000001349024700000000111699200828000000000000000000000000000000    
FVD0052411202240154935  53000000000559104880000000000000000000000000000000000000000000008956000000000000000000000000000000000000000000000000000000000000000000000000000000000000000000             
FVD0002411202276752337  51681832F 00000000000000000000SERVOPA S/A COMERCIO E INDUSTR2411202250132900032                                                                                    230103  
FVD0022411202276752337  51V          ZCCH14BY07Q7QAZUL BISCAY                             202320228                                                                                 0128C          
FVD0032411202276752337  519BWCH6CH7PP0205680010024502          00000000                00000000DHS486271           VW/NIVUS HL TSI                                                                 
FVD0042411202276752337  51000000013013294000000000000000000000000000003294130000000141355000000000013668470000000113903950052700000001204890400000000063497700527000000000000000000000000000000    
FVD0052411202276752337  51000000000485486653000000000000000000000000000000000000000000009195000000000000000000000000000000000000000000000000000000000000000000000000000000000000000000             
FVF100000000000012                                                                                                                                                                                 
FVI10000000000000241120220000000000005100032                                                                                                                                                       
FVW0002411202240154935  53589344F 00000000000000000000SERVOPA S/A COMERCIO E INDUSTR2411202250149400032                                                                                    230103  
FVW0022411202240154935  53L          UZCQ13LY3K2K2PRATA PYRIT                             202220228                                                                                 0150C          
FVW0032411202240154935  538AWBJ6B2XNA83978400200278102222030713071120222231863784      07112022CWL142996           I/VW TAOS CL TSI                                                                
FVW0042411202240154935  53000000016247770000000000000000000000000000016405310000000179430000000000005126290000000128157350082800000001349024700000000111699200828000000000000000000000000000000    
FVW0052411202240154935  53000000000559104880000000000000000000000000000000000000000000008956000000000000000000000000000000000000000000000000000000000000000000000000000000000000000000             
FVW0072411202240154935  53                                        35221159104422002446550350004015491290080770                                                                                     
FVW0002411202276752337  51681832F 00000000000000000000SERVOPA S/A COMERCIO E INDUSTR2411202250132900032                                                                                    230103  
FVW0022411202276752337  51V          ZCCH14BY07Q7QAZUL BISCAY                             202320228                                                                                 0128C          
FVW0032411202276752337  519BWCH6CH7PP0205680010024502          00000000                00000000DHS486271           VW/NIVUS HL TSI                                                                 
FVW0042411202276752337  51000000013013294000000000000000000000000000003294130000000141355000000000013668470000000113903950052700000001204890400000000063497700527000000000000000000000000000000    
FVW0052411202276752337  51000000000485486653000000000000000000000000000000000000000000009195000000000000000000000000000000000000000000000000000000000000000000000000000000000000000000             
FVW0072411202276752337  51                                        35221159104422005704550370007675231686513825                                                                                     
FVF100000000000014                                                                                                                                                                                 
FAI10000000000000251120220000000000005100032                                                                                                                                                       
FNT00000032SERVOPA S/A COMERCIO E INAV. PARANA, 1525 1525                   PARANAVAI           TRES MARIAS                   PR87704-10                                                   101202  
FAF100000000000003                                                                                                                                                                                 
FHF000000000000144                                                                                                                                                                                 
