FHI00000000000000251120220000000000005101329         00                                                                                                                                            
FPI10000000000000241120220000000000005101329                                                                                                                                                       
FP9533757411             656387942311202225122022 5U1/  820045/B /9B9REGULAGEM    8537109000097500000002796000000034410000002867600000010000220002992660401000000      00000000000000      011102  
FP9533757411             656387942311202225122022 5U1/  820045/B /9B9REGULAGEM    8537109000097500000002796000000034410000002867600000010000220002992670901000000      00000000000000      011102  
FP9534782801PN0711       656387952311202225122022 5U1/  820045/B /9B9REGULAGEM    8537109000097500000002853000000035110000002926100000010000220002993282801000000      00000000000000      011102  
FP9536501503CP2311       656398002311202225122022 7X0/  129627/  /   MANGUEIRA    4009229000065000000000476000000008790000000732700000010000437002993687001000000      00000000000000      011102  
FP9536501503CP2311       656398012311202225122022 02K/  498210/  /   JG. DISCO    7318220000065000000002260000000013910000003476500000010000090002993687011000000      00000000000000      011102  
FP9536501503CP2311       656398012311202225122022 5N0/  121341/B /   COBERTURA    3926909000097500000001182000000004850000001212800000010000300002993687011000000      00000000000000      011102  
FP9536501503CP2311       656398022311202225122022 096/  323981/P /   ROLAMENTO    8482201000078000000001870000000009590000002397900000010000240002993687011000000      00000000000000      011102  
FP9536490701Est2311      656399562411202226122022 5U0/  821021/  /   paralama     8708299100032500000000890000000032870000002739300000010001800002993846101000000      00000000000000      011102  
FP9536490701Est2311      656399562411202226122022 5U0/  821021/  /   paralama     8708299100032500000000890000000032870000002739300000010001800002993846201000000      00000000000000      011102  
FP9536490701Est2311      656399562411202226122022 5U0/  821021/  /   paralama     8708299100032500000000890000000032870000002739300000010001800002993846301000000      00000000000000      011102  
FP9536490701Est2311      656399562411202226122022 5U0/  821021/  /   paralama     8708299100032500000000890000000032870000002739300000010001800002993846401000000      00000000000000      011102  
FP9536490701Est2311      656399562411202226122022 5U0/  821021/  /   paralama     8708299100032500000000890000000032870000002739300000010001800002993846501000000      00000000000000      011102  
FP9536490701Est2311      656400202411202226122022 5U0/  821022/  /   paralama     8708299100032500000000891000000032870000002739300000010001770002993815701000000      00000000000000      011102  
FP9536490701Est2311      656400202411202226122022 5U0/  821022/  /   paralama     8708299100032500000000891000000032870000002739300000010001770002993815801000000      00000000000000      011102  
FP9536490701Est2311      656400612411202226122022 5Z0/  819415/  /   DEFLETOR     8708299900032500000000634000000023410000001950600000050000400002993671001000000      00000000000000      011102  
FP9536490701Est2311      656403722411202226122022 6EC/  833055/C /GRUPORTA        8708299300032500000002641000000097520000008126800000010011415002938999701000000      00000000000000      011102  
FP9536490701Est2311      656405452411202226122022 6EA/  833055/L /GRUPORTA        8708299300032500000001632000000060270000005022200000010010370002994278901000000      00000000000000      011102  
FP9536490701Est2311      656405452411202226122022 6EA/  833055/L /GRUPORTA        8708299300032500000001632000000060270000005022200000010010370002994279101000000      00000000000000      011102  
FP9536490701Est2311      656409382411202226122022 5Z0/  821021/G /   paralama     8708299100032500000001632000000060270000005022200000010002400002994321701000000      00000000000000      011102  
FP9536490701Est2311      656409452411202226122022 2G5/  821021/  /GRUparalama     8708299100032500000000772000000028490000002374100000010001698002958954201000000      00000000000000      011102  
FP9536490701Est2311      656409872411202226122022 5Q0/  121251/HS/   RADIADOR     8708910000032500000003252000000040020000010005900000010002186002994361211000000      00000000000000      011102  
FP9536490701Est2311      656409912411202226122022 5U4/  833056/D /GRUPORTA        8708299300032500000003561000000131490000010957400000010012600002994280701000000      00000000000000      011102  
FP9536490701Est2311      656409912411202226122022 5U4/  833056/D /GRUPORTA        8708299300032500000003561000000131490000010957400000010012600002994280801000000      00000000000000      011102  
FP9530956711             656410202411202226122022 04E/  109601/AH/   VALVULA      8409911400032500000001276000000047130000003927200000180000026002990976201000000      00000000000000      011102  
FP9533440411             656410202411202226122022 036/  115636/D /   GUIA         8409919000032500000000528000000019510000001625900000250000002002992864001000000      00000000000000      011102  
FP9536423211             656410212411202226122022 5U0/  937548/A /   CAIXA        8538100000097500000001170000000014390000001199500000010000213002992864001000000      00000000000000      011102  
FP9533757411             656410222411202226122022 1K0/  122291/C /   CONEXAO      3917409000000000000000000000000009720000002430100000030000030002992864011000000      00000000000000      011102  
FP9533834901PN27102      656410282411202226122022 6Q0/  959858/  /9B9INTERRUPTO   8536509000097500000003364000000041400000003450200000100000017002992864001000000      00000000000000      011102  
FP9536128201PN21112      656410282411202226122022 032/  103383/N /   JUNTA CABE   8484100000078000000013771000000211870000017655600000200000154002992864001000000      00000000000000      011102  
FP9532776901PN18100      656410292411202226122022 1K0/  122291/C /   CONEXAO      3917409000000000000000000000000003310000000826500000010000030002992864010000000      00000000000000      011102  
FP9534782801PN0711       656410292411202226122022 1K0/  122291/C /   CONEXAO      3917409000000000000000000000000006610000001653000000020000060002992864011000000      00000000000000      011102  
FP9536490701Est2311      656410302411202226122022 2Q0/  121321/A /   TAMPA        8708999000032500000000999000000012300000003075000000030000065002990047111000000      00000000000000      011102  
FPF100000000000034                                                                                                                                                                                 
FPI10000000000000241120220000000000005101329                                                                                                                                                       
FP9533834901PN27102      014051482810202226112022   G/  JZZ250/R2/BRAOLEO MOTOR   27101932000000000000000000000000000000000263160000012003330000000000000000000005X4H8341778008000160      011102  
FP9533834901PN27102      014076361811202217122022   G/  JZZ502/M2/BRAOLEO MOTOR   27101932000000000000000000000000000000000465480000012008500000000000000000000005X4H8341778008000160      011102  
FP9534782801PN0711       001106620811202208122022 2G5/  061163/  /   TAPETE       40169990050325000000058090000002144900000184549000001023850000000000000000000005X223A12475660000108      011102  
FP9534885701AC00811      010631432111202221122022 V04/  010057/C /A3XFRISOS       87082999000325000000016700000000616500000053048000000203330000000000000000000005X884F10628798000174      011102  
FP9534885701AC00811      010631432111202221122022 V04/  010057/C /D7XFRISOS       87082999000325000000016700000000616500000053048000000203330000000000000000000005X884F10628798000174      011102  
FP9534885701AC00811      010631432111202221122022 V04/  010057/C /B9AFRISOS       87082999000325000000008350000000308300000026524000000103330000000000000000000005X884F10628798000174      011102  
FP9534885701AC00811      010631432111202221122022 V04/  010057/  /C9AFRISOS       87082999000325000000016700000000616500000053048000000203330000000000000000000005X884F10628798000174      011102  
FP9536128201PN21112      014080642111202220122022   G/  S55545/M2/BRAOLEO MOTOR   27101932000000000000000000000000000000000079956000001209100000000000000000000005X4H8341778008000160      011102  
FPF100000000000010                                                                                                                                                                                 
FPI00000000000000241120220000000000005101329                                                                                                                                                       
FP5536652503CP2411       2411202224112022 5Z0/  612041/L /   00000010000000  5U0/  937537/A /   00000010000000  5G6/  959752/DD/AIF00000010000000                                          220800  
FP5536652503CP2411       2411202224112022 377/  881292/A /71N00000010000000  2H0/  906028/  /   00000010000000  2G4/  867012/Q /QBG00000010000000                                          220800  
FP6527045811             25082022 231/  711155/3 /   000000100000012579                    000000000000000000                    000000000000000000B                                               
FP6527234311             26082022 036/  103464/G /   000000300000015220 5Z0/  807221/AD/GRU000000200000056141                    000000000000000000B                                               
FP6527574411             30082022 5Z0/  807109/E /GRU000000200000046314                    000000000000000000                    000000000000000000B                                               
FP6528309901PN06091      06092022 5Z4/  853515/G /GRU000000200000008831 5Z0/  941206/C /   000000100000042566 5Z0/  807109/E /GRU000000100000047259B                                               
FP6528309901PN06091      06092022 5U7/  827565/  /MK1000000100000042101 5U1/  880202/F /QL2000000100000041247 377/  823507/B /   000000100000009489B                                               
FP6528309901PN06091      06092022 377/  807240/  /   000000100000003565 2H1/  941016/L /   000000100000064591 1SB/  941016/  /   000000100000037872B                                               
FP6528309901PN06091      06092022 1SB/  941015/  /   000000200000037872 1S0/  820803/E /   000000100000079563 036/  103464/G /   000000100000015531B                                               
FP6528309901PN06091      06092022 030/  129607/BG/   000000100000016825                    000000000000000000                    000000000000000000B                                               
FP6528871901PN1209       13092022 030/  109243/Q /   000000800000011357 032/  109101/AG/   000000400000040776 1SB/  945095/  /   000000100000018394B                                               
FP6528871901PN1209       13092022 5U7/  807421/D /GRU000000100000120011 6Q0/  411315/P /   000000200000012488 6QE/  941700/A /   000000100000027199B                                               
FP6529014011             13092022 5U0/  937537/A /   000000200000021855                    000000000000000000                    000000000000000000B                                               
FP6529414701PN16092      16092022 6EA/  823031/  /GRU000000100000124121 5U7/  827565/  /MK1000000100000042101 5U1/  880202/F /QL2000000100000041247B                                               
FP6529414701PN16092      16092022 5U0/  937537/A /   000000100000022302 5U0/  121051/C /   000000100000005089 2H1/  941016/L /   000000100000064591B                                               
FP6529414701PN16092      16092022 2G5/  880241/D /   000000100000040767 1SB/  941015/  /   000000100000037872 032/  109101/AH/   000000200000039606B                                               
FP6529414701PN16092      16092022 030/  129607/BG/   000000100000016825 030/  109243/Q /   000000400000011358                    000000000000000000B                                               
FP6529461611             16092022 6QE/  513353/  /   000000300000006264                    000000000000000000                    000000000000000000B                                               
FP6529496611             17092022 6QE/  513353/  /   000000500000006264                    000000000000000000                    000000000000000000B                                               
FP6529820401PN21091      21092022 1JE/  945096/E /   000000100000040366 5U0/  941008/D /   000000100000056399 5Z0/  807221/Q /GRU000000200000098512B                                               
FP6529820401PN21091      21092022 5Z4/  831055/J /GRU000000100000152553 6EA/  823031/  /GRU000000100000124121 6QE/  941700/A /   000000100000027199B                                               
FP6529949511             21092022 030/  129607/CH/   000000300000020153                    000000000000000000                    000000000000000000B                                               
FP6530210301PN23097      23092022 6EA/  823031/  /GRU000000200000124121                    000000000000000000                    000000000000000000B                                               
FP6530398001PN26091      26092022 5Z0/  955409/  /   000000100000004720 5Z0/  807109/E /GRU000000100000047259 5U1/  880202/F /QL2000000100000041247B                                               
FP6530398001PN26091      26092022 5U0/  941007/D /   000000100000056399 5U0/  413031/AE/   000000100000034160 5U0/  121051/C /   000000100000005089B                                               
FP6530398001PN26091      26092022 2GP/  998002/A /   000000400000007144 1SB/  805932/  /   000000200000001467 032/  109101/AG/   000000200000040776B                                               
FP6530398001PN26091      26092022 030/  109243/Q /   000000400000011358                    000000000000000000                    000000000000000000B                                               
FP6530592911             27092022 1SB/  819703/  /ITZ000000100000003541 5Z1/  721480/D /   000000200000003252                    000000000000000000B                                               
FP6530701601PN28091      28092022 2G5/  941662/  /   000000100000041250 2G5/  945207/  /   000000200000044287 2GK/  805901/  /9B9000000200000061413B                                               
FP6530701601PN28091      28092022 2GK/  839120/  /5AP000000100000011811 2GK/  839912/  /5AP000000100000012300                    000000000000000000B                                               
FP6530829811             29092022 377/  819129/B /   000000300000000549 5U0/  601027/  /03C000000100000026565                    000000000000000000B                                               
FP6530874301PN29094      29092022 5Z1/  941007/M /   000000100000062328 5Z0/  941206/C /   000000100000042566 5Z0/  807109/E /GRU000000100000047259B                                               
FP6530874301PN29094      29092022 5U0/  941007/D /   000000100000056399 5U0/  937537/A /   000000100000022302 377/  807240/  /   000000100000003565B                                               
FP6530874301PN29094      29092022 2H1/  941016/L /   000000100000064591 2GP/  998002/A /   000000200000007144 1SB/  941016/  /   000000200000037872B                                               
FP6530874301PN29094      29092022 1S0/  820803/E /   000000100000079563 032/  121026/CP/   000003000000023058                    000000000000000000B                                               
FP6531052203CP3009       30092022 5U5/  945095/B /   000000100000018953                    000000000000000000                    000000000000000000B                                               
FP6531135301Bestdrive 30.30092022 6EA/  071310/A /   000000100000010291                    000000000000000000                    000000000000000000B                                               
FP6531272703CP0310       03102022 5U0/  615301/C /   000000200000014767                    000000000000000000                    000000000000000000B                                               
FP6531404203CP0410       04102022   G/  052145/S2/   000000100000019035                    000000000000000000                    000000000000000000B                                               
FP6531540403CP0510       05102022 377/  422887/A /   000000200000002895                    000000000000000000                    000000000000000000B                                               
FP6531778203CP0710       07102022 2H1/  945096/H /   000000100000051294                    000000000000000000                    000000000000000000B                                               
FP6532349711             13102022 5U0/  941008/D /   000000100000055271 6Q0/  411314/Q /   000004000000002291                    000000000000000000B                                               
FP6532673911             17102022 5Z0/  698545/B /   000000200000009843 5Z1/  721480/D /   000000200000003252                    000000000000000000B                                               
FP6532776901PN18100      18102022 5Z1/  721480/D /   000000100000003318 5Z0/  941206/C /   000000100000042566 5U7/  945095/C /   000000200000025322B                                               
FP6532776901PN18100      18102022 5U7/  853308/A /9B9000000100000004103 5U7/  807421/D /GRU000000100000120011 5U0/  941008/D /   000000100000056399B                                               
FP6532776901PN18100      18102022 377/  807240/  /   000000100000003565 2Q0/  698451/B /   000000100000021793 2G0/  941661/  /   000000100000046484B                                               
FP6532776901PN18100      18102022 1SB/  941015/F /   000000100000036526 1SB/  805932/  /   000000100000001467 1JE/  945096/F /   000000100000046072B                                               
FP6532776901PN18100      18102022   D/  169300/M2/   000000100000009545                    000000000000000000                    000000000000000000B                                               
FP6532828711             18102022 5W0/  201153/  /   000000300000006194                    000000000000000000                    000000000000000000B                                               
FP6533070901PN20101      20102022 6QE/  941700/A /   000000100000027199 6QE/  941699/A /   000000100000027199 6Q0/  411314/Q /   000001000000002338B                                               
FP6533070901PN20101      20102022 6EA/  941006/D /   000000200000060068 6EA/  823031/  /GRU000000100000124121 5Z1/  721480/D /   000000100000003318B                                               
FP6533070901PN20101      20102022 5Z0/  941206/C /   000000300000042566 5Z0/  853671/D /EDW000000300000013844 5W0/  807217/B /GRU000000100000088573B                                               
FP6533070901PN20101      20102022 5U1/  941007/D /   000000100000044670 5U1/  880202/F /QL2000000200000041247 5U0/  941008/D /   000000100000056399B                                               
FP6533070901PN20101      20102022 5U0/  937537/A /   000000300000022302 5U0/  919087/A /   000000100000053598 5U0/  413031/AE/   000000100000034160B                                               
FP6533070901PN20101      20102022 2GP/  998002/A /   000000200000007144 1SB/  941016/  /   000000100000037872 1SB/  941015/  /   000000100000037872B                                               
FP6533070901PN20101      20102022 1SB/  853687/  /739000000100000001076 1SB/  805932/  /   000000200000001467 1JE/  945096/F /   000000200000046073B                                               
FP6533070901PN20101      20102022 04E/  121119/P /   000001000000002250 032/  121026/CP/   000004000000023058 032/  109101/AJ/   000000300000054346B                                               
FP6533070901PN20101      20102022 032/  109101/AG/   000000200000040776 030/  109243/Q /   000000400000011358 030/  103493/CE/   000000200000007722B                                               
FP6533373903CP2410       24102022 2GJ/  827940/B /041000000100000047075                    000000000000000000                    000000000000000000B                                               
FP6533386801PN24101      24102022 032/  109101/AJ/   000000100000054346 04C/  129620/A /   000004000000003419 04E/  145933/M /   000001000000006714B                                               
FP6533386801PN24101      24102022 2GP/  998002/A /   000000200000007144 5Z0/  807221/Q /GRU000000100000098513 5Z0/  941206/C /   000000200000042567B                                               
FP6533440411             24102022 5U0/  601027/  /03C000000200000026566                    000000000000000000                    000000000000000000B                                               
FP6533535703CP2510       25102022   N/  017738/6 /   000001000000001346                    000000000000000000                    000000000000000000B                                               
FP6533683303CP2610       26102022 5U0/  614117/L /BEF000000100000079513                    000000000000000000                    000000000000000000B                                               
FP6533757411             26102022 032/  109101/AG/   000001300000039960                    000000000000000000                    000000000000000000B                                               
FP6533834901PN27102      27102022 030/  109243/Q /   000000500000011357 032/  109101/AG/   000000500000040776 032/  109101/AJ/   000000200000054346B                                               
FP6533834901PN27102      27102022 04C/  129620/A /   000005000000003419 04E/  121119/P /   000001000000002250 1JE/  945095/F /   000000200000046073B                                               
FP6533834901PN27102      27102022 1SB/  805932/  /   000000100000001467 2G5/  805911/A /   000000200000005823 2G5/  807109/  /GRU000000100000044553B                                               
FP6533834901PN27102      27102022 2G5/  853273/  /9B9000000100000001115 2GP/  998002/A /   000001000000007144 5Z0/  807221/Q /GRU000000400000098512B                                               
FP6533834901PN27102      27102022 5Z0/  853671/D /EDW000000500000013844 5Z0/  941206/C /   000000200000042567 6EA/  941005/D /   000000200000060068B                                               
FP6534008701PN2810       28102022 6EA/  805588/J /   000000200000056142                    000000000000000000                    000000000000000000B                                               
FP6534419911             01112022 5Z0/  941205/C /   000000300000043107                    000000000000000000                    000000000000000000B                                               
FP6534702211             04112022 6EA/  857706/A /RAA000000100000036861                    000000000000000000                    000000000000000000B                                               
FP6534782801PN0711       07112022 JZZ/  413031/J /   000000400000035378 811/  711597/  /   000005000000000208 6Q0/  411314/Q /   000002000000002338B                                               
FP6534782801PN0711       07112022 6EA/  941006/D /   000000400000060068 6EA/  941005/D /   000000200000060068 6EA/  853601/  /2ZZ000000300000005855B                                               
FP6534782801PN0711       07112022 6EA/  823031/  /GRU000000100000109300 6EA/  805912/A /   000001000000011761 5Z6/  807421/B /GRU000000200000088952B                                               
FP6534782801PN0711       07112022 5Z1/  721480/D /   000000200000003319 5Z0/  941007/C /   000000200000045014 5Z0/  807221/Q /GRU000000100000098513B                                               
FP6534782801PN0711       07112022 5Z0/  698545/B /   000000200000010044 5X0/  201801/  /   000000200000006422 5W0/  201153/  /   000000300000006320B                                               
FP6534782801PN0711       07112022 5U7/  945095/C /   000000100000025322 5U7/  857521/  /   000000200000005746 5U7/  807141/G /GRU000000200000042385B                                               
FP6534782801PN0711       07112022 013/  141708/C /   000000300000008690 014/  311561/1 /   000000400000027188 030/  103493/CE/   000000200000007722B                                               
FP6534782801PN0711       07112022 030/  109243/Q /   000001000000011357 032/  109101/AG/   000000500000040776 032/  109101/AH/   000000200000039606B                                               
FP6534782801PN0711       07112022 036/  103464/G /   000000200000015531 04E/  145933/AG/   000000500000013720 113/  311531/1 /   000000500000008673B                                               
FP6534782801PN0711       07112022 1JE/  945094/E /   000000200000022796 1JE/  945095/F /   000000400000046073 1JE/  945096/F /   000000100000046072B                                               
FP6534782801PN0711       07112022 1SB/  941015/F /   000000100000036526 5U0/  121073/  /   000002000000000814 5U0/  853677/E /9B9000000300000006394B                                               
FP6534782801PN0711       07112022 5U0/  937537/A /   000000100000022302 5U0/  941007/D /   000000100000056399 5U0/  941008/D /   000000200000056400B                                               
FP6534809603CP0711       07112022 6EA/  823031/  /GRU000000100000109300                    000000000000000000                    000000000000000000B                                               
FP6534875511             07112022   N/  105524/04/   000000500000001264                    000000000000000000                    000000000000000000B                                               
FP6534949203CP0811       08112022   G/  052145/S2/   000000100000019035 1S0/  820803/E /   000000100000079563                    000000000000000000B                                               
FP6535145003CP0911       09112022 2H1/  945096/H /   000000100000051294                    000000000000000000                    000000000000000000B                                               
FP6535204211             09112022 5Z0/  201801/A /   000000100000004876 377/  819371/F /   000000400000003347 04E/  998907/A /   000000300000012619B                                               
FP6535279101PN10114      10112022 1S0/  698151/A /   000000200000023625                    000000000000000000                    000000000000000000B                                               
FP6535415003CP1111       11112022 1S0/  820803/E /   000000100000079563                    000000000000000000                    000000000000000000B                                               
FP6535568301PN14112      14112022 6EA/  941006/D /   000000200000060068 6EA/  941005/D /   000000200000060068 6EA/  853601/  /2ZZ000000100000005855B                                               
FP6535568301PN14112      14112022 6EA/  823031/  /GRU000000100000109300 6EA/  805912/A /   000000200000011761 5Z1/  721480/D /   000000200000003319B                                               
FP6535568301PN14112      14112022 5Z0/  941007/C /   000000100000045013 5U7/  945095/C /   000000100000025322 5U7/  807141/G /GRU000000100000042385B                                               
FP6535568301PN14112      14112022 5U3/  837439/  /9B9000000100000008629 5U0/  941008/D /   000000200000056400 5U0/  941007/D /   000000200000056400B                                               
FP6535568301PN14112      14112022 5U0/  880204/C /   000000100000027748 014/  311561/1 /   000000200000027188 030/  103493/CE/   000000100000007722B                                               
FP6535568301PN14112      14112022 036/  103464/G /   000000200000015531 04C/  129620/A /   000005000000003419 04C/  129620/D /   000001000000003419B                                               
FP6535568301PN14112      14112022 04E/  998907/A /   000000100000012876 06H/  103517/D /   000000100000005140 1JE/  945096/F /   000000200000046073B                                               
FP6535568301PN14112      14112022 1SB/  941015/F /   000000100000036526 2Q0/  698451/B /   000000400000021793 5NN/  837016/  /   000000100000043581B                                               
FP6535568301PN14112      14112022 5NN/  955427/  /03C000000200000010274 5U0/  853677/E /9B9000000100000006394                    000000000000000000B                                               
FP6535772711             16112022 5Z0/  853666/H /9B9000000200000004022                    000000000000000000                    000000000000000000B                                               
FP6535794601PN1711       17112022 6QE/  941699/A /   000000100000027199 6QE/  721388/A /   000000100000006722 6Q0/  959858/  /9B9000000500000003450B                                               
FP6535794601PN1711       17112022 6Q0/  411314/Q /   000004000000002338 5Z0/  853767/A /ZI5000000100000006552 5U7/  857705/G /HCP000000100000028485B                                               
FP6535794601PN1711       17112022 5U7/  413031/C /   000000200000025136 5U6/  945311/  /   000000100000001745 5U4/  837249/A /   000000100000003290B                                               
FP6535794601PN1711       17112022 5U0/  880204/C /   000000200000027748 5U0/  853653/B /JZA000000100000029288 5U0/  615301/E /   000000200000022551B                                               
FP6535794601PN1711       17112022 5U0/  201153/A /   000001200000005825 5C6/  807217/F /GRU000000100000186116 2H1/  941015/K /   000000100000054669B                                               
FP6535794601PN1711       17112022 113/  311531/1 /   000000500000008673 04E/  998907/A /   000000100000012876 04E/  145933/M /   000000400000006714B                                               
FP6535794601PN1711       17112022 032/  121110/K /   000000200000009842 032/  109101/AJ/   000000200000054346 032/  103063/AD/   000000500000199065B                                               
FP6535794601PN1711       17112022 026/  103483/2 /   000001000000005163   N/  106902/01/   000001000000000409                    000000000000000000B                                               
FP6535840203 CP1711      17112022 2H0/  011031/D /   000000100000075542   N/  012536/1 /   000005000000000156                    000000000000000000B                                               
FP6535918711             17112022 211/  401273/1 /   000001200000003363 5X0/  837581/  /1NN000000400000000776                    000000000000000000B                                               
FP6535995101PN18116      18112022 5Z0/  807221/R /GRU000000100000122268                    000000000000000000                    000000000000000000B                                               
FP6536005003CP1811       18112022 5Z0/  035411/R /   000000100000004319                    000000000000000000                    000000000000000000B                                               
FP6536115411             19112022 377/  721335/K /   000000200000006174                    000000000000000000                    000000000000000000B                                               
FP6536128201PN21112      21112022 6EA/  805912/A /   000001000000011761 5Z0/  853671/D /EDW000000200000013844 5U0/  962125/  /9B9000001000000001387B                                               
FP6536128201PN21112      21112022 5U0/  919052/A /   000000400000009843 5U0/  201153/A /   000005000000005825 2QB/  615301/E /   000002000000018262B                                               
FP6536128201PN21112      21112022 04E/  145933/M /   000001000000006714 04E/  145933/AG/   000001000000013720 04C/  129620/D /   000002000000003419B                                               
FP6536128201PN21112      21112022 030/  109243/Q /   000003000000011357                    000000000000000000                    000000000000000000B                                               
FP6536194003CP2111       21112022   D/  176404/M2/   000000100000009550   G/  052565/A1/   000000100000018195   G/  052565/A1/   000000100000018195B                                               
FP6536194003CP2111       21112022 036/  103464/G /   000000100000015531 1S0/  820803/E /   000000100000079563 5U6/  945095/AE/   000000100000021422B                                               
FP6536261811             21112022 2Q0/  915429/A /   000000200000000650                    000000000000000000                    000000000000000000B                                               
FP6536339903CP2211       22112022   D/  169300/M2/   000000100000009545                    000000000000000000                    000000000000000000B                                               
FP6536423211             22112022 030/  105255/G /   000000200000008909 5Z4/  854939/A /BAJ000000200000013094                    000000000000000000B                                               
FP6536490701Est2311      23112022 2G5/  823031/  /GRU000000200000099530 2G5/  827025/  /GRU000000100000136968 6EA/  831055/J /GRU000000100000100443B                                               
FP6536490701Est2311      23112022 6EA/  833056/L /GRU000000100000050222                    000000000000000000                    000000000000000000B                                               
FP6536501503CP2311       23112022 5Q6/  407271/K /   000000100000194745                    000000000000000000                    000000000000000000B                                               
FP7530210301PN23097      23092022 5GM/  886373/  /   000001200000000362 032/  121026/CP/   000003000000023058                    000000000000000000                                                
FP7530592911             27092022 5U0/  953509/A /1QB000000200000002377                    000000000000000000                    000000000000000000                                                
FP7531135301Bestdrive 30.30092022 1K0/  601173/  /9B9000002000000000404                    000000000000000000                    000000000000000000                                                
FP7532313101PVEXDSH      13102022 APR/  071128/A /   000000200000043374                    000000000000000000                    000000000000000000                                                
FP7532913703CP1910       19102022 3G0/  971582/  /   000000100000027118                    000000000000000000                    000000000000000000                                                
FP7533070901PN20101      20102022 1K0/  601173/  /9B9000010000000000404 5GM/  886373/  /   000001200000000362 5Z0/  820411/E /   000000400000033581                                                
FP7533386801PN24101      24102022 1K0/  601173/  /9B9000010000000000404                    000000000000000000                    000000000000000000                                                
FP7533834901PN27102      27102022 5Z0/  820411/E /   000000200000033581 1K0/  601173/  /9B9000012000000000404                    000000000000000000                                                
FP7534782801PN0711       07112022 5U0/  407625/B /   000000200000013050                    000000000000000000                    000000000000000000                                                
FP7534789701PS0711       07112022   G/  S55553/R2/BRA000120000000002835                    000000000000000000                    000000000000000000                                                
FP7535568301PN14112      14112022 6EA/  805588/G /   000000200000080538                    000000000000000000                    000000000000000000                                                
FP7535794601PN1711       17112022 5Z0/  820411/E /   000000400000033581                    000000000000000000                    000000000000000000                                                
FP7536128201PN21112      21112022   G/  JZZ502/M2/BRA000012000000002801 5Z0/  820411/E /   000000200000033581                    000000000000000000                                                
FP7536423211             22112022 867/  129669/  /   000000400000000785                    000000000000000000                    000000000000000000                                                
FP7536438901AC02311      23112022 V04/  010057/  /A7W000000300000025689 V04/  010057/A /041000000100000025689 V04/  010057/A /D7X000000100000025689                                                
FP7536438901AC02311      23112022 V04/  010057/C /B9A000000200000025689                    000000000000000000                    000000000000000000                                                
FP7536490701Est2311      23112022 5U7/  821021/  /CTR000000100000022828                    000000000000000000                    000000000000000000                                                
FP7536652503CP2411       24112022 2G4/  867012/Q /QBG000000100000027028 2H0/  906028/  /   000000100000040319 377/  881292/A /71N000000100000002698                                                
FP7536652503CP2411       24112022 5G6/  959752/DD/AIF000000100000090070 5U0/  937537/A /   000000100000022302 5Z0/  612041/L /   000000100000005331                                                
FPF000000000000148                                                                                                                                                                                 
FPI00000000000000241120220000000000005101329                                                                                                                                                       
FP6527045811             25082022 231/  711155/3 /   000000100000012579                    000000000000000000                    000000000000000000B                                               
FP6527234311             26082022 5Z0/  807221/AD/GRU000000200000056141 036/  103464/G /   000000300000015220                    000000000000000000B                                               
FP6527574411             30082022 5Z0/  807109/E /GRU000000200000046314                    000000000000000000                    000000000000000000B                                               
FP6528309901PN06091      06092022 5U7/  827565/  /MK1000000100000042101 5U1/  880202/F /QL2000000100000041247 377/  823507/B /   000000100000009489B                                               
FP6528309901PN06091      06092022 5Z0/  807109/E /GRU000000100000047259 5Z0/  941206/C /   000000100000042566 5Z4/  853515/G /GRU000000200000008831B                                               
FP6528309901PN06091      06092022 377/  807240/  /   000000100000003565 2H1/  941016/L /   000000100000064591 1SB/  941016/  /   000000100000037872B                                               
FP6528309901PN06091      06092022 1SB/  941015/  /   000000200000037872 1S0/  820803/E /   000000100000079563 036/  103464/G /   000000100000015531B                                               
FP6528309901PN06091      06092022 030/  129607/BG/   000000100000016825                    000000000000000000                    000000000000000000B                                               
FP6528871901PN1209       13092022 030/  109243/Q /   000000800000011357 032/  109101/AG/   000000400000040776 1SB/  945095/  /   000000100000018394B                                               
FP6528871901PN1209       13092022 5U7/  807421/D /GRU000000100000120011 6Q0/  411315/P /   000000200000012488 6QE/  941700/A /   000000100000027199B                                               
FP6529014011             13092022 5U0/  937537/A /   000000200000021855                    000000000000000000                    000000000000000000B                                               
FP6529414701PN16092      16092022 6EA/  823031/  /GRU000000100000124121 5U7/  827565/  /MK1000000100000042101 5U1/  880202/F /QL2000000100000041247B                                               
FP6529414701PN16092      16092022 5U0/  937537/A /   000000100000022302 5U0/  121051/C /   000000100000005089 2H1/  941016/L /   000000100000064591B                                               
FP6529414701PN16092      16092022 2G5/  880241/D /   000000100000040767 1SB/  941015/  /   000000100000037872 032/  109101/AH/   000000200000039606B                                               
FP6529414701PN16092      16092022 030/  129607/BG/   000000100000016825 030/  109243/Q /   000000400000011358                    000000000000000000B                                               
FP6529461611             16092022 6QE/  513353/  /   000000300000006264                    000000000000000000                    000000000000000000B                                               
FP6529496611             17092022 6QE/  513353/  /   000000500000006264                    000000000000000000                    000000000000000000B                                               
FP6529820401PN21091      21092022 1JE/  945096/E /   000000100000040366 5U0/  941008/D /   000000100000056399 5Z0/  807221/Q /GRU000000200000098512B                                               
FP6529820401PN21091      21092022 5Z4/  831055/J /GRU000000100000152553 6EA/  823031/  /GRU000000100000124121 6QE/  941700/A /   000000100000027199B                                               
FP6529949511             21092022 030/  129607/CH/   000000300000020153                    000000000000000000                    000000000000000000B                                               
FP6530210301PN23097      23092022 6EA/  823031/  /GRU000000200000124121                    000000000000000000                    000000000000000000B                                               
FP6530398001PN26091      26092022 5Z0/  955409/  /   000000100000004720 5Z0/  807109/E /GRU000000100000047259 5U1/  880202/F /QL2000000100000041247B                                               
FP6530398001PN26091      26092022 5U0/  941007/D /   000000100000056399 5U0/  413031/AE/   000000100000034160 5U0/  121051/C /   000000100000005089B                                               
FP6530398001PN26091      26092022 2GP/  998002/A /   000000400000007144 1SB/  805932/  /   000000200000001467 032/  109101/AG/   000000200000040776B                                               
FP6530398001PN26091      26092022 030/  109243/Q /   000000400000011358                    000000000000000000                    000000000000000000B                                               
FP6530592911             27092022 1SB/  819703/  /ITZ000000100000003541 5Z1/  721480/D /   000000200000003252                    000000000000000000B                                               
FP6530701601PN28091      28092022 2G5/  941662/  /   000000100000041250 2G5/  945207/  /   000000200000044287 2GK/  805901/  /9B9000000200000061413B                                               
FP6530701601PN28091      28092022 2GK/  839120/  /5AP000000100000011811 2GK/  839912/  /5AP000000100000012300                    000000000000000000B                                               
FP6530829811             29092022 377/  819129/B /   000000300000000549 5U0/  601027/  /03C000000100000026565                    000000000000000000B                                               
FP6530874301PN29094      29092022 5Z1/  941007/M /   000000100000062328 5Z0/  941206/C /   000000100000042566 5Z0/  807109/E /GRU000000100000047259B                                               
FP6530874301PN29094      29092022 5U0/  941007/D /   000000100000056399 5U0/  937537/A /   000000100000022302 377/  807240/  /   000000100000003565B                                               
FP6530874301PN29094      29092022 2H1/  941016/L /   000000100000064591 2GP/  998002/A /   000000200000007144 1SB/  941016/  /   000000200000037872B                                               
FP6530874301PN29094      29092022 1S0/  820803/E /   000000100000079563 032/  121026/CP/   000003000000023058                    000000000000000000B                                               
FP6531052203CP3009       30092022 5U5/  945095/B /   000000100000018953                    000000000000000000                    000000000000000000B                                               
FP6531135301Bestdrive 30.30092022 6EA/  071310/A /   000000100000010291                    000000000000000000                    000000000000000000B                                               
FP6531272703CP0310       03102022 5U0/  615301/C /   000000200000014767                    000000000000000000                    000000000000000000B                                               
FP6531404203CP0410       04102022   G/  052145/S2/   000000100000019035                    000000000000000000                    000000000000000000B                                               
FP6531540403CP0510       05102022 377/  422887/A /   000000200000002895                    000000000000000000                    000000000000000000B                                               
FP6531778203CP0710       07102022 2H1/  945096/H /   000000100000051294                    000000000000000000                    000000000000000000B                                               
FP6532349711             13102022 5U0/  941008/D /   000000100000055271 6Q0/  411314/Q /   000004000000002291                    000000000000000000B                                               
FP6532673911             17102022 5Z0/  698545/B /   000000200000009843 5Z1/  721480/D /   000000200000003252                    000000000000000000B                                               
FP6532776901PN18100      18102022 5Z1/  721480/D /   000000100000003318 5Z0/  941206/C /   000000100000042566 5U7/  945095/C /   000000200000025322B                                               
FP6532776901PN18100      18102022 5U7/  853308/A /9B9000000100000004103 5U7/  807421/D /GRU000000100000120011 5U0/  941008/D /   000000100000056399B                                               
FP6532776901PN18100      18102022 377/  807240/  /   000000100000003565 2Q0/  698451/B /   000000100000021793 2G0/  941661/  /   000000100000046484B                                               
FP6532776901PN18100      18102022 1SB/  941015/F /   000000100000036526 1SB/  805932/  /   000000100000001467 1JE/  945096/F /   000000100000046072B                                               
FP6532776901PN18100      18102022   D/  169300/M2/   000000100000009545                    000000000000000000                    000000000000000000B                                               
FP6532828711             18102022 5W0/  201153/  /   000000300000006194                    000000000000000000                    000000000000000000B                                               
FP6533070901PN20101      20102022 6QE/  941700/A /   000000100000027199 6QE/  941699/A /   000000100000027199 6Q0/  411314/Q /   000001000000002338B                                               
FP6533070901PN20101      20102022 6EA/  941006/D /   000000200000060068 6EA/  823031/  /GRU000000100000124121 5Z1/  721480/D /   000000100000003318B                                               
FP6533070901PN20101      20102022 5Z0/  941206/C /   000000300000042566 5Z0/  853671/D /EDW000000300000013844 5W0/  807217/B /GRU000000100000088573B                                               
FP6533070901PN20101      20102022 5U1/  941007/D /   000000100000044670 5U1/  880202/F /QL2000000200000041247 5U0/  941008/D /   000000100000056399B                                               
FP6533070901PN20101      20102022 5U0/  937537/A /   000000300000022302 5U0/  919087/A /   000000100000053598 5U0/  413031/AE/   000000100000034160B                                               
FP6533070901PN20101      20102022 2GP/  998002/A /   000000200000007144 1SB/  941016/  /   000000100000037872 1SB/  941015/  /   000000100000037872B                                               
FP6533070901PN20101      20102022 1SB/  853687/  /739000000100000001076 1SB/  805932/  /   000000200000001467 1JE/  945096/F /   000000200000046073B                                               
FP6533070901PN20101      20102022 04E/  121119/P /   000001000000002250 032/  121026/CP/   000004000000023058 032/  109101/AJ/   000000300000054346B                                               
FP6533070901PN20101      20102022 032/  109101/AG/   000000200000040776 030/  109243/Q /   000000400000011358 030/  103493/CE/   000000200000007722B                                               
FP6533373903CP2410       24102022 2GJ/  827940/B /041000000100000047075                    000000000000000000                    000000000000000000B                                               
FP6533386801PN24101      24102022 5Z0/  941206/C /   000000200000042567 5Z0/  807221/Q /GRU000000100000098513 2GP/  998002/A /   000000200000007144B                                               
FP6533386801PN24101      24102022 04E/  145933/M /   000001000000006714 04C/  129620/A /   000004000000003419 032/  109101/AJ/   000000100000054346B                                               
FP6533440411             24102022 5U0/  601027/  /03C000000200000026566                    000000000000000000                    000000000000000000B                                               
FP6533535703CP2510       25102022   N/  017738/6 /   000001000000001346                    000000000000000000                    000000000000000000B                                               
FP6533683303CP2610       26102022 5U0/  614117/L /BEF000000100000079513                    000000000000000000                    000000000000000000B                                               
FP6533757411             26102022 032/  109101/AG/   000001300000039960                    000000000000000000                    000000000000000000B                                               
FP6533834901PN27102      27102022 6EA/  941005/D /   000000200000060068 5Z0/  941206/C /   000000200000042567 5Z0/  853671/D /EDW000000500000013844B                                               
FP6533834901PN27102      27102022 5Z0/  807221/Q /GRU000000400000098512 2GP/  998002/A /   000001000000007144 2G5/  853273/  /9B9000000100000001115B                                               
FP6533834901PN27102      27102022 2G5/  807109/  /GRU000000100000044553 2G5/  805911/A /   000000200000005823 1SB/  805932/  /   000000100000001467B                                               
FP6533834901PN27102      27102022 1JE/  945095/F /   000000200000046073 04E/  121119/P /   000001000000002250 04C/  129620/A /   000005000000003419B                                               
FP6533834901PN27102      27102022 032/  109101/AJ/   000000200000054346 032/  109101/AG/   000000500000040776 030/  109243/Q /   000000500000011357B                                               
FP6534008701PN2810       28102022 6EA/  805588/J /   000000200000056142                    000000000000000000                    000000000000000000B                                               
FP6534419911             01112022 5Z0/  941205/C /   000000300000043107                    000000000000000000                    000000000000000000B                                               
FP6534702211             04112022 6EA/  857706/A /RAA000000100000036861                    000000000000000000                    000000000000000000B                                               
FP6534782801PN0711       07112022 5U7/  807141/G /GRU000000200000042385 5U7/  857521/  /   000000200000005746 5U7/  945095/C /   000000100000025322B                                               
FP6534782801PN0711       07112022 5W0/  201153/  /   000000300000006320 5X0/  201801/  /   000000200000006422 5Z0/  698545/B /   000000200000010044B                                               
FP6534782801PN0711       07112022 5Z0/  807221/Q /GRU000000100000098513 5Z0/  941007/C /   000000200000045014 5Z1/  721480/D /   000000200000003319B                                               
FP6534782801PN0711       07112022 5Z6/  807421/B /GRU000000200000088952 6EA/  805912/A /   000001000000011761 6EA/  823031/  /GRU000000100000109300B                                               
FP6534782801PN0711       07112022 6EA/  853601/  /2ZZ000000300000005855 6EA/  941005/D /   000000200000060068 6EA/  941006/D /   000000400000060068B                                               
FP6534782801PN0711       07112022 6Q0/  411314/Q /   000002000000002338 811/  711597/  /   000005000000000208 JZZ/  413031/J /   000000400000035378B                                               
FP6534782801PN0711       07112022 5U0/  941008/D /   000000200000056400 5U0/  941007/D /   000000100000056399 5U0/  937537/A /   000000100000022302B                                               
FP6534782801PN0711       07112022 5U0/  853677/E /9B9000000300000006394 5U0/  121073/  /   000002000000000814 1SB/  941015/F /   000000100000036526B                                               
FP6534782801PN0711       07112022 1JE/  945096/F /   000000100000046072 1JE/  945095/F /   000000400000046073 1JE/  945094/E /   000000200000022796B                                               
FP6534782801PN0711       07112022 113/  311531/1 /   000000500000008673 04E/  145933/AG/   000000500000013720 036/  103464/G /   000000200000015531B                                               
FP6534782801PN0711       07112022 032/  109101/AH/   000000200000039606 032/  109101/AG/   000000500000040776 030/  109243/Q /   000001000000011357B                                               
FP6534782801PN0711       07112022 030/  103493/CE/   000000200000007722 014/  311561/1 /   000000400000027188 013/  141708/C /   000000300000008690B                                               
FP6534809603CP0711       07112022 6EA/  823031/  /GRU000000100000109300                    000000000000000000                    000000000000000000B                                               
FP6534875511             07112022   N/  105524/04/   000000500000001264                    000000000000000000                    000000000000000000B                                               
FP6534949203CP0811       08112022 1S0/  820803/E /   000000100000079563   G/  052145/S2/   000000100000019035                    000000000000000000B                                               
FP6535145003CP0911       09112022 2H1/  945096/H /   000000100000051294                    000000000000000000                    000000000000000000B                                               
FP6535204211             09112022 04E/  998907/A /   000000300000012619 377/  819371/F /   000000400000003347 5Z0/  201801/A /   000000100000004876B                                               
FP6535279101PN10114      10112022 1S0/  698151/A /   000000200000023625                    000000000000000000                    000000000000000000B                                               
FP6535415003CP1111       11112022 1S0/  820803/E /   000000100000079563                    000000000000000000                    000000000000000000B                                               
FP6535568301PN14112      14112022 6EA/  941006/D /   000000200000060068 6EA/  941005/D /   000000200000060068 6EA/  853601/  /2ZZ000000100000005855B                                               
FP6535568301PN14112      14112022 6EA/  823031/  /GRU000000100000109300 6EA/  805912/A /   000000200000011761 5Z1/  721480/D /   000000200000003319B                                               
FP6535568301PN14112      14112022 5Z0/  941007/C /   000000100000045013 5U7/  945095/C /   000000100000025322 5U7/  807141/G /GRU000000100000042385B                                               
FP6535568301PN14112      14112022 5U3/  837439/  /9B9000000100000008629 5U0/  941008/D /   000000200000056400 5U0/  941007/D /   000000200000056400B                                               
FP6535568301PN14112      14112022 5U0/  880204/C /   000000100000027748 014/  311561/1 /   000000200000027188 030/  103493/CE/   000000100000007722B                                               
FP6535568301PN14112      14112022 036/  103464/G /   000000200000015531 04C/  129620/A /   000005000000003419 04C/  129620/D /   000001000000003419B                                               
FP6535568301PN14112      14112022 04E/  998907/A /   000000100000012876 06H/  103517/D /   000000100000005140 1JE/  945096/F /   000000200000046073B                                               
FP6535568301PN14112      14112022 1SB/  941015/F /   000000100000036526 2Q0/  698451/B /   000000400000021793 5NN/  837016/  /   000000100000043581B                                               
FP6535568301PN14112      14112022 5NN/  955427/  /03C000000200000010274 5U0/  853677/E /9B9000000100000006394                    000000000000000000B                                               
FP6535772711             16112022 5Z0/  853666/H /9B9000000200000004022                    000000000000000000                    000000000000000000B                                               
FP6535794601PN1711       17112022 6QE/  941699/A /   000000100000027199 6QE/  721388/A /   000000100000006722 6Q0/  959858/  /9B9000000500000003450B                                               
FP6535794601PN1711       17112022 6Q0/  411314/Q /   000004000000002338 5Z0/  853767/A /ZI5000000100000006552 5U7/  857705/G /HCP000000100000028485B                                               
FP6535794601PN1711       17112022 5U7/  413031/C /   000000200000025136 5U6/  945311/  /   000000100000001745 5U4/  837249/A /   000000100000003290B                                               
FP6535794601PN1711       17112022 5U0/  880204/C /   000000200000027748 5U0/  853653/B /JZA000000100000029288 5U0/  615301/E /   000000200000022551B                                               
FP6535794601PN1711       17112022 5U0/  201153/A /   000001200000005825 5C6/  807217/F /GRU000000100000186116 2H1/  941015/K /   000000100000054669B                                               
FP6535794601PN1711       17112022 113/  311531/1 /   000000500000008673 04E/  998907/A /   000000100000012876 04E/  145933/M /   000000400000006714B                                               
FP6535794601PN1711       17112022 032/  121110/K /   000000200000009842 032/  109101/AJ/   000000200000054346 032/  103063/AD/   000000500000199065B                                               
FP6535794601PN1711       17112022 026/  103483/2 /   000001000000005163   N/  106902/01/   000001000000000409                    000000000000000000B                                               
FP6535840203 CP1711      17112022 2H0/  011031/D /   000000100000075542   N/  012536/1 /   000005000000000156                    000000000000000000B                                               
FP6535918711             17112022 211/  401273/1 /   000001200000003363 5X0/  837581/  /1NN000000400000000776                    000000000000000000B                                               
FP6535995101PN18116      18112022 5Z0/  807221/R /GRU000000100000122268                    000000000000000000                    000000000000000000B                                               
FP6536005003CP1811       18112022 5Z0/  035411/R /   000000100000004319                    000000000000000000                    000000000000000000B                                               
FP6536115411             19112022 377/  721335/K /   000000200000006174                    000000000000000000                    000000000000000000B                                               
FP6536128201PN21112      21112022 6EA/  805912/A /   000001000000011761 5Z0/  853671/D /EDW000000200000013844 5U0/  962125/  /9B9000001000000001387B                                               
FP6536128201PN21112      21112022 5U0/  919052/A /   000000400000009843 5U0/  201153/A /   000005000000005825 2QB/  615301/E /   000002000000018262B                                               
FP6536128201PN21112      21112022 04E/  145933/M /   000001000000006714 04E/  145933/AG/   000001000000013720 04C/  129620/D /   000002000000003419B                                               
FP6536128201PN21112      21112022 030/  109243/Q /   000003000000011357                    000000000000000000                    000000000000000000B                                               
FP6536194003CP2111       21112022   D/  176404/M2/   000000100000009550   G/  052565/A1/   000000100000018195   G/  052565/A1/   000000100000018195B                                               
FP6536194003CP2111       21112022 036/  103464/G /   000000100000015531 1S0/  820803/E /   000000100000079563 5U6/  945095/AE/   000000100000021422B                                               
FP6536261811             21112022 2Q0/  915429/A /   000000200000000650                    000000000000000000                    000000000000000000B                                               
FP6536339903CP2211       22112022   D/  169300/M2/   000000100000009545                    000000000000000000                    000000000000000000B                                               
FP6536423211             22112022 030/  105255/G /   000000200000008909 5Z4/  854939/A /BAJ000000200000013094                    000000000000000000B                                               
FP6536490701Est2311      23112022 2G5/  823031/  /GRU000000200000099530 2G5/  827025/  /GRU000000100000136968 6EA/  831055/J /GRU000000100000100443B                                               
FP6536490701Est2311      23112022 6EA/  833056/L /GRU000000100000050222                    000000000000000000                    000000000000000000B                                               
FP6536501503CP2311       23112022 5Q6/  407271/K /   000000100000194745                    000000000000000000                    000000000000000000B                                               
FP7530210301PN23097      23092022 5GM/  886373/  /   000001200000000362 032/  121026/CP/   000003000000023058                    000000000000000000                                                
FP7530592911             27092022 5U0/  953509/A /1QB000000200000002377                    000000000000000000                    000000000000000000                                                
FP7531135301Bestdrive 30.30092022 1K0/  601173/  /9B9000002000000000404                    000000000000000000                    000000000000000000                                                
FP7532313101PVEXDSH      13102022 APR/  071128/A /   000000200000043374                    000000000000000000                    000000000000000000                                                
FP7532913703CP1910       19102022 3G0/  971582/  /   000000100000027118                    000000000000000000                    000000000000000000                                                
FP7533070901PN20101      20102022 1K0/  601173/  /9B9000010000000000404 5GM/  886373/  /   000001200000000362 5Z0/  820411/E /   000000400000033581                                                
FP7533386801PN24101      24102022 1K0/  601173/  /9B9000010000000000404                    000000000000000000                    000000000000000000                                                
FP7533834901PN27102      27102022 1K0/  601173/  /9B9000012000000000404 5Z0/  820411/E /   000000200000033581                    000000000000000000                                                
FP7534782801PN0711       07112022 5U0/  407625/B /   000000200000013050                    000000000000000000                    000000000000000000                                                
FP7534789701PS0711       07112022   G/  S55553/R2/BRA000120000000002835                    000000000000000000                    000000000000000000                                                
FP7535568301PN14112      14112022 6EA/  805588/G /   000000200000080538                    000000000000000000                    000000000000000000                                                
FP7535794601PN1711       17112022 5Z0/  820411/E /   000000400000033581                    000000000000000000                    000000000000000000                                                
FP7536128201PN21112      21112022   G/  JZZ502/M2/BRA000012000000002801 5Z0/  820411/E /   000000200000033581                    000000000000000000                                                
FP7536423211             22112022 867/  129669/  /   000000400000000785                    000000000000000000                    000000000000000000                                                
FP7536438901AC02311      23112022 V04/  010057/C /B9A000000200000025689 V04/  010057/A /D7X000000100000025689 V04/  010057/A /041000000100000025689                                                
FP7536438901AC02311      23112022 V04/  010057/  /A7W000000300000025689                    000000000000000000                    000000000000000000                                                
FP7536490701Est2311      23112022 5U7/  821021/  /CTR000000100000022828                    000000000000000000                    000000000000000000                                                
FP7536652503CP2411       24112022 2G4/  867012/Q /QBG000000100000027028 2H0/  906028/  /   000000100000040319 377/  881292/A /71N000000100000002698                                                
FP7536652503CP2411       24112022 5G6/  959752/DD/AIF000000100000090070 5U0/  937537/A /   000000100000022302 5Z0/  612041/L /   000000100000005331                                                
FPF000000000000146                                                                                                                                                                                 
FRI10000000000000241120220000000000005101329                                                                                                                                                       
FR111000000000000000000000000009999800000000009999900000000099999+00000000000000+C                                                                                                         010699  
FR111000000000000000000000000029999600000000029999700000064853053-00000000000000+O                                                                                                         010699  
FR111000000000000000000000000009999800000000009999900000408361726-00000000000000+N                                                                                                         010699  
FR2000138916650 P07112022000000000000000093296300000002800489450000000000000009BWAH5BZ4PP006932VW VEICULOS  VW/POLO CL AB       202220230000000                                            025     
FR2000176101770 P07112022000000000000000101132120000003035698520000000000000009BWAH5BZ8PP006979VW VEICULOS  VW/POLO HL AB       202220230000000                                            025     
FR2000176102070 P07112022000000000000000101132120000003035698520000000000000009BWAH5BZ7PP007086VW VEICULOS  VW/POLO HL AB       202220230000000                                            025     
FR2000176102270 P07112022000000000000000101132120000003035698520000000000000009BWAH5BZ9PP006893VW VEICULOS  VW/POLO HL AB       202220230000000                                            026     
FR2000176103370 P07112022000000000000000093205730000002797770890000000000000009BWAH5BZ9PP006697VW VEICULOS  VW/POLO CL AB       202220230000000                                            026     
FR2000176137670 P08112022000000000000000101052160000003033298440000000000000009BWAH5BZ8PP007341VW VEICULOS  VW/POLO HL AB       202220230000000                                            025     
FR2000176137770 P08112022000000000000000084985560000002551024900000000000000009BWAH5BZ7PP007380VW VEICULOS  VW/POLO MB          202220230000000                                            025     
FR2000176137870 P08112022000000000000000085664420000002571402360000000000000009BWAH5BZ8PP007159VW VEICULOS  VW/POLO MB          202220230000000                                            025     
FR2000176137970 P08112022000000000000000084985560000002551024900000000000000009BWAH5BZ1PP007326VW VEICULOS  VW/POLO MB          202220230000000                                            025     
FR2000176159970 P09112022000000000000000112241670000003369175680000000000000009BWCH6CH1PP018752VW VEICULOS  VW/NIVUS CL TSI     202220230000000                                            026     
FR2000176176070 P09112022000000000000000085596700000002569369350000000000000009BWAH5BZ9PP007509VW VEICULOS  VW/POLO MB          202220230000000                                            025     
FR2000176176270 P09112022000000000000000100972270000003030900250000000000000009BWAH5BZ9PP007316VW VEICULOS  VW/POLO HL AB       202220230000000                                            025     
FR2000176178970 P09112022000000000000000093962830000002820497060000000000000009BWAH5BZ4PP007501VW VEICULOS  VW/POLO CL AB       202220230000000                                            025     
FR2000176180170 P09112022000000000000000094641160000002840858400000000000000009BWAH5BZ0PP007589VW VEICULOS  VW/POLO CL AB       202220230000000                                            025     
FR2000176196370 P09112022000000000000000093962830000002820497060000000000000009BWAH5BZ8PP007436VW VEICULOS  VW/POLO CL AB       202220230000000                                            025     
FR2000176285370 P11112022000000000000000083971030000002520571420000000000000009BWAH5BZ5PP007894VW VEICULOS  VW/POLO MB          202220230000000                                            025     
FR2000176285470 P11112022000000000000000100812180000003026095030000000000000009BWAH5BZ6PP007595VW VEICULOS  VW/POLO HL AB       202220230000000                                            025     
FR2000176430070 P17112022000000000000000099086340000002974290050000000000000009BWAH5BZ7PP008383VW VEICULOS  VW/POLO HL AB       202220230000000                                            026     
FR2000176495870 P18112022000000000000000100493230000003016520990000000000000009BWAH5BZ3PP005352VW VEICULOS  VW/POLO HL AB       202220230000000                                            025     
FR2000176497070 P18112022000000000000000099818120000002996255940000000000000009BWAH5BZ1PP005365VW VEICULOS  VW/POLO HL AB       202220230000000                                            025     
FR2000176498270 P18112022000000000000000108722320000003263534870000000000000009BWJL45UXPP027826VW VEICULOS  VW/SAVEIRO CD CROSS 202220230000000                                            026     
FR2000176504670 P18112022000000000000000083705360000002512596770000000000000009BWAH5BZ2PP008081VW VEICULOS  VW/POLO MB          202220230000000                                            025     
FR2000176578770 P19112022000000000000000100493230000003016520990000000000000009BWAH5BZ1PP008623VW VEICULOS  VW/POLO HL AB       202220230000000                                            026     
FR2000176645970 P22112022000000000000000108550440000003258375470000000000000009BWJL45UXPP028118VW VEICULOS  VW/SAVEIRO CD CROSS 202220230000000                                            026     
FR2000176648470 P22112022000000000000000099660310000002991519080000000000000009BWAH5BZXPP008880VW VEICULOS  VW/POLO HL AB       202220230000000                                            025     
FR2000176648670 P22112022000000000000000099660310000002991519080000000000000009BWAH5BZ5PP008866VW VEICULOS  VW/POLO HL AB       202220230000000                                            025     
FR2000176700270 P23112022000000000000000099581500000002989153460000000000000009BWAH5BZ5PP009208VW VEICULOS  VW/POLO HL AB       202220230000000                                            025     
FR2000176700770 P23112022000000000000000100255020000003009370470000000000000009BWAH5BZ6PP009024VW VEICULOS  VW/POLO HL AB       202220230000000                                            025     
FR2000176702270 P23112022000000000000000099581500000002989153460000000000000009BWAH5BZ9PP009051VW VEICULOS  VW/POLO HL AB       202220230000000                                            025     
FR2000139022050 P08112022000000000000000099558650000002988467550000000000000009BWAH5BZ8PP006884VOLKSWAGEN   POLO HIGHLINE 170 1.202220230000000                                            025     
FR2000139024250 P08112022000000000000000101052160000003033298440000000000000009BWAH5BZ2PP006878VW VEICULOS  VW/POLO HL AB       202220230000000                                            025     
FR2000139511150 P16112022000000000000000178595110000005360917150000000000000008AWBJ6B21NA841083VW VEICULOS  I/VW TAOS HL TSI    202220220000000                                            026     
FR2000139574850 P17112022000000000000000150554630000004519221620000000000000008AWBJ6B20NA838742VW VEICULOS  I/VW TAOS CL TSI    202220220000000                                            026     
FR2000140062350 P23112022000000000000000150742990000004524875740000000000000008AWBJ6B26NA836221VW VEICULOS  I/VW TAOS CL TSI    202220220000000                                            026     
FR2000151413040 P08112022000000000000000104688190000003142441690000000000000009BWBH6BF8P4019779VW VEICULOS  VW/T CROSS SENSE TSI202220230000000                                            025     
FR2000175937670 P31102022000000000000000086003860000002581591330000000000000009BWAH5BZ0PP006670VW VEICULOS  VW/POLO MB          202220230000000                                            026     
FR2000175944370 P31102022000000000000000095091350000002854371800000000000000009BWAH5BZ3PP005870VW VEICULOS  VW/POLO CL AB       202220230000000                                            025     
FR2000176003170 P03112022000000000000000113041930000003393197110000000000000009BWCH6CH5PP006376VW VEICULOS  VW/NIVUS CL TSI     202220230000000                                            026     
FR2000176097770 P07112022000000000000000099637430000002990832160000000000000009BWAH5BZ5PP007054VW VEICULOS  VW/POLO HL AB       202220230000000                                            026     
FR2000176101170 P07112022000000000000000093296300000002800489450000000000000009BWAH5BZXPP007020VW VEICULOS  VW/POLO CL AB       202220230000000                                            025     
F060101 DOLAR REFERENCIAL DIARIO - VENDA                                                                                                                                                   300997  
F06022511202200000053149000000000000000000000000000000000000000000000000000000000000000000000000000000000000000000000000000000000000000000000000000000000000000000000000000000000          300997  
F060105 UFIR - UNIDADE FISCAL DE REFERENCIA                                                                                                                                                300997  
F06022511202200000010641000000000000000000000000000000000000000000000000000000000000000000000000000000000000000000000000000000000000000000000000000000000000000000000000000000000          300997  
F060114 IGPM - INDICE GERAL DE PRECOS DO MERCADO                                                                                                                                           300997  
F06022511202200008818318000000000000000000000000000000000000000000000000000000000000000000000000000000000000000000000000000000000000000000000000000000000000000000000000000000000          300997  
F060130 TRD - TAXA REFERENCIAL DIARIA                                                                                                                                                      300997  
F06022511202200000000134716200000000000000000000000000000000000000000000000000000000000000000000000000000000000000000000000000000000000000000000000000000000000000000000000000000          300997  
F060175 TABELA DE QCS PARA LIQUIDACAO DE DEBITOS EXCLUSIVAMENTE JUNTO AO CREDITO ROTATIVO                                                                                                  300997  
F06022511202200000261401231500000000000000000000000000000000000000000000000000000000000000000000000000000000000000000000000000000000000000000000000000000000000000000000000000000          300997  
F060178 TABELA DE QCIS PARA LIQUIDACAO DE DEBITOS EXCLUSIVAMENTE JUNTO AO CREDITO ROTATIVO - VEICULOS IMPORTADOS VW                                                                        300997  
F06022511202200000014729272000000000000000000000000000000000000000000000000000000000000000000000000000000000000000000000000000000000000000000000000000000000000000000000000000000          300997  
F060192 TABELA DE QCIS PARA LIQUIDACAO DE DEBITOS EXCLUSIVAMENTE JUNTO AO CREDITO ROTATIVO - VEICULOS IMPORT. SEAT                                                                         300997  
F06022511202200000014827648600000000000000000000000000000000000000000000000000000000000000000000000000000000000000000000000000000000000000000000000000000000000000000000000000000          300997  
F060196 TABELA DE QCIS PARA LIQUIDACAO DE DEBITOS EXCLUSIVAMENTE JUNTO AO CREDITO ROTATIVO - VEIC.IMPORT VW/96                                                                             300997  
F06022511202200000350306817500000000000000000000000000000000000000000000000000000000000000000000000000000000000000000000000000000000000000000000000000000000000000000000000000000          300997  
F0601101TABELA DE QCIS PARA LIQUIDACAO DE DEBITOS EXCLUSIVAMENTE JUNTO AO CREDITO ROTATIVO - VEICULO USADO                                                                                 300997  
F06022511202200000485229587800000000000000000000000000000000000000000000000000000000000000000000000000000000000000000000000000000000000000000000000000000000000000000000000000000          300997  
F0601105TABELA DE QCIS PARA LIQUIDACAO DE DEBITOS EXCLUSIVAMENTE JUNTO AO CREDITO ROTATIVO - VEICULOS AUDI                                                                                 300997  
F06022511202200000786340566400000000000000000000000000000000000000000000000000000000000000000000000000000000000000000000000000000000000000000000000000000000000000000000000000000          300997  
F0601106TABELA DE QCIS PARA LIQUIDACAO DE DEBITOS EXCLUSIVAMENTE JUNTO AO CREDITO ROTATIVO - PECAS                                                                                         300997  
F06022511202200001075379599800000000000000000000000000000000000000000000000000000000000000000000000000000000000000000000000000000000000000000000000000000000000000000000000000000          300997  
F0601109TABELA DE QCIS PARA LIQUIDACAO DE DEBITOS EXCLUSIVAMENTE JUNTO AO CREDITO ROTATIVO - CAMINHOES USADOS                                                                              300997  
F06022511202200001094751175400000000000000000000000000000000000000000000000000000000000000000000000000000000000000000000000000000000000000000000000000000000000000000000000000000          300997  
F0601110TABELA DE QCIS PARA LIQUIDACAO DE DEBITOS EXCLUSIVAMENTE JUNTO AO CREDITO ROTATIVO - AUDI USADOS                                                                                   300997  
F06022511202200000797339325500000000000000000000000000000000000000000000000000000000000000000000000000000000000000000000000000000000000000000000000000000000000000000000000000000          300997  
F0601111TABELA DE QCIS PARA LIQUIDACAO DE DEBITOS EXCLUSIVAMENTE JUNTO AO CREDITO ROTATIVO - SEAT USADOS                                                                                   300997  
F06022511202200000807565158900000000000000000000000000000000000000000000000000000000000000000000000000000000000000000000000000000000000000000000000000000000000000000000000000000          300997  
F0601115TABELA DE QCIS PARA LIQUIDACAO DE DEBITOS EXCLUSIVAMENTE JUNTO AO CREDITO ROTATIVO - QC COM BONUS                                                                                  300997  
F06022511202200000333407798200000000000000000000000000000000000000000000000000000000000000000000000000000000000000000000000000000000000000000000000000000000000000000000000000000          300997  
F0601116TABELA DE QCIS PARA LIQUIDACAO DE DEBITOS EXCLUSIVAMENTE JUNTO AO CREDITO ROTATIVO - QC DO BONUS ROTATIVO                                                                          300997  
F06022511202200000098453402600000000000000000000000000000000000000000000000000000000000000000000000000000000000000000000000000000000000000000000000000000000000000000000000000000          300997  
F0601117TABELA DE QCIS PARA LIQUIDACAO DE DEBITOS EXCLUSIVAMENTE JUNTO AO CREDITO ROTATIVO - QC FINANCIAMENTO ICMS                                                                         300997  
F06022511202200001075379602000000000000000000000000000000000000000000000000000000000000000000000000000000000000000000000000000000000000000000000000000000000000000000000000000000          300997  
F0601119TABELA DE QCIS PARA LIQUIDACAO DE DEBITOS EXCLUSIVAMENTE JUNTO AO CREDITO ROTATIVO - MULTA DE CONFISSAO DIV                                                                        300997  
F06022511202200000010000000000000000000000000000000000000000000000000000000000000000000000000000000000000000000000000000000000000000000000000000000000000000000000000000000000000          300997  
FRF100000000000081                                                                                                                                                                                 
FVI10060000000000251120220000000000005101329                                                                                                                                                       
F229BWAH5BZ9PP007316761762091120229BWAH5BZ2PP005682756788261020229BWAH5BZ9PP007509761760091120229BWDH5BZ9NP04483175648225102022                                                            300997  
F229BWAH5BZ4PP005134753768191020229BWAH5BZ3PP005352764958181120229BWAH5BZ9PP006697761033071120229BWAH5BZ4PP00380575677026102022                                                            300997  
F229BWAH5BZ8PP005699756771261020229BWAH5BZ3PP002998752067171020229BWCH6CH5PP006376760031031120229BWAH5BZ0PP00514675579224102022                                                            300997  
F229BWAH5BZ9PP006893761022071120229BWAH5BZ3PP005710756765261020229BWAH5BZ8PP003998751306131020229BWAH5BZ6PP00902476700723112022                                                            300997  
F229BWAH5BZ7PP007086761020071120229BWAH5BZ5PP009208767002231120229BWAH5BZ8PP006979761017071120229BWAH5BZ3PP00587075944331102022                                                            300997  
F229BWAH5BZ7PP005788756758261020229BWAH5BZ8PP007436761963091120229BWAH5BZXPP007020761011071120229BWAH5BZ6PP00325575168614102022                                                            300997  
F229BWAH5BZ3PP005593754428211020229BWAH5BZ1PP008623765787191120229BWAH5BZ2PP008081765046181120229BWCH6CH1PP01875276159909112022                                                            300997  
F229BWCH6CH2PP016556754418211020229BWCH6CH1PP016256756122251020229BWAH5BZ2PP005441754413211020229BWAH5BZ7PP00838376430017112022                                                            300997  
F229BWAH5BZ0PP006670759376311020229BWJL45UXPP027826764982181120229BWAH5BZ0PP007589761801091120229BWAH5BZ0PP00381775474221102022                                                            300997  
F229BWAH5BZ4PP007501761789091120229BWAH5BZ5PP004168754739211020229BWAH5BZ1PP005883757677271020229BWAH5BZ5PP00886676648622112022                                                            300997  
F229BWAH5BZXPP008880766484221120229BWAH5BZ1PP005365764970181120229BWAH5BZ5PP007894762853111120229BWAH5BZ6PP00759576285411112022                                                            300997  
F229BWAH5BZ8PP007341761376081120229BWAH5BZ7PP007380761377081120229BWAH5BZ8PP007159761378081120229BWAH5BZ1PP00732676137908112022                                                            300997  
F229BWAH5BZ5PP007054760977071120229BWAH5BZ8PP006366757986281020229BWAH5BZ9PP003928752344171020229BWAH5BZ9PP00905176702223112022                                                            300997  
F229BWCH6CH6PP015734753233181020229BWJL45UXPP028118766459221120229BWAG5BZ8PP000926746769270920229BWBH6BF2N407435449845712082022                                                            300997  
F229BWBH6BF0P4017492511491251020229BWBH6BF2P401617951088822102022WV1DA22H3NA035586367936080920228AWBJ6B26NA83622140062323112022                                                            300997  
F229BWAH5BZ2PP003074378601131020228AWBJ6B21NA841083395111161120229BWBH6BFXP400674350486705092022WV1DA22H8NA02636533406014072022                                                            300997  
F228AWBJ6B20NA838742395748171120229BWBH6BF4P4012165509278041020229BWAG45U6PT07813738438126102022WV1DA22H1NA03824437538730092022                                                            300997  
F229BWBH6BFXP4003230504625020920229BWAH5BZ2PP006878390242081120229BWAH5BZ2PP003317378328131020229BWAG45U6PT07047437531930092022                                                            300997  
F229BWBH6BF0P4014074510305201020229BWBH6BF6P4004178501473240820229BWBJ6BF0P4015150510194201020229BWAH5BZ4PP00693238916607112022                                                            300997  
F229BWAH5BZ0PP002814378265131020229BWAG45U2PT078068384555261020229BWBH6BF9P4015613510900221020229BWBH6BF8P401977951413008112022                                                            300997  
FVF100000000000022                                                                                                                                                                                 
FAI10000000000000251120220000000000005101329                                                                                                                                                       
FA100000000000000+00000000000000+00000000000000+00000000000000+00000000000000+00000000000000+00000000000000+00000000000000+00000000000000+                                                         
FA200000000000000+00000000000000+00000000000000+00000000000000+00000000000000+00000000000000+00000000000000+00000000000000+00000000000000+                                                         
FA3000577616000011120220812202200000000000009300000000000009300000000000000000000000000000000000000000000081220220 88  ICMS ST PECAS                                                               
FA3000577617000011120220812202200000000000988500000000000988500000000000000000000000000000000000000000000081220220 88  ICMS ST PECAS                                                               
FA3000574326000011120220812202200000000000239100000000000239100000000000000000000000000000000000000000000081220220 88  ICMS ST PECAS                                                               
FA3000574852000011120220812202200000000000255900000000000255900000000000000000000000000000000000000000000081220220 88  ICMS ST PECAS                                                               
FA3000574853000011120220812202200000000000549600000000000549600000000000000000000000000000000000000000000081220220 88  ICMS ST PECAS                                                               
FA3000574854000011120220812202200000000000099200000000000099200000000000000000000000000000000000000000000081220220 88  ICMS ST PECAS                                                               
FA3000576698000011120220812202200000000001032700000000001032700000000000000000000000000000000000000000000081220220 88  ICMS ST PECAS                                                               
FA3000576699000011120220812202200000000000266600000000000266600000000000000000000000000000000000000000000081220220 88  ICMS ST PECAS                                                               
FA3000577953000011120220812202200000000000051000000000000051000000000000000000000000000000000000000000000081220220 88  ICMS ST PECAS                                                               
FA3000582086000031120220812202200000000000371700000000000371700000000000000000000000000000000000000000000081220220 88  ICMS ST PECAS                                                               
FA3000581833000031120220812202200000000000052400000000000052400000000000000000000000000000000000000000000081220220 88  ICMS ST PECAS                                                               
FA3000582498000031120220812202200000000000954500000000000954500000000000000000000000000000000000000000000081220220 88  ICMS ST PECAS                                                               
FA3000582499000031120220812202200000000000113500000000000113500000000000000000000000000000000000000000000081220220 88  ICMS ST PECAS                                                               
FA3000582500000031120220812202200000000000074700000000000074700000000000000000000000000000000000000000000081220220 88  ICMS ST PECAS                                                               
FA3000581641000031120220812202200000000000362300000000000362300000000000000000000000000000000000000000000081220220 88  ICMS ST PECAS                                                               
FA3000581642000031120220812202200000000000082500000000000082500000000000000000000000000000000000000000000081220220 88  ICMS ST PECAS                                                               
FA3000581643000031120220812202200000000001289900000000001289900000000000000000000000000000000000000000000081220220 88  ICMS ST PECAS                                                               
FA3000581645000031120220812202200000000000091000000000000091000000000000000000000000000000000000000000000081220220 88  ICMS ST PECAS                                                               
FA3000579154000031120220812202200000000001365000000000001365000000000000000000000000000000000000000000000081220220 88  ICMS ST PECAS                                                               
FA3000579155000031120220812202200000000002175700000000002175700000000000000000000000000000000000000000000081220220 88  ICMS ST PECAS                                                               
FA3000579543000031120220812202200000000001120600000000001120600000000000000000000000000000000000000000000081220220 88  ICMS ST PECAS                                                               
FA3000578639000031120220812202200000000001796300000000001796300000000000000000000000000000000000000000000081220220 88  ICMS ST PECAS                                                               
FA3000580113000031120220812202200000000000958600000000000958600000000000000000000000000000000000000000000081220220 88  ICMS ST PECAS                                                               
FA3000580114000031120220812202200000000003496300000000003496300000000000000000000000000000000000000000000081220220 88  ICMS ST PECAS                                                               
FA3000580776000031120220812202200000000000973900000000000973900000000000000000000000000000000000000000000081220220 88  ICMS ST PECAS                                                               
FA3000579164000031120220812202200000000000641600000000000641600000000000000000000000000000000000000000000081220220 88  ICMS ST PECAS                                                               
FA3000578646000031120220812202200000000000603800000000000603800000000000000000000000000000000000000000000081220220 88  ICMS ST PECAS                                                               
FA3000579988000031120220812202200000000000765200000000000765200000000000000000000000000000000000000000000081220220 88  ICMS ST PECAS                                                               
FA3000580712000031120220812202200000000000879000000000000879000000000000000000000000000000000000000000000081220220 88  ICMS ST PECAS                                                               
FA3000580713000031120220812202200000000000112700000000000112700000000000000000000000000000000000000000000081220220 88  ICMS ST PECAS                                                               
FA3000760031000031120220812202200000000029034300000000029034300000000000000000000000000000000000000000000081220220 99  ICMS ST VEICULOS                                                            
FA3000760006000031120220812202200000000032941300000000032941300000000000000000000000000000000000000000000081220220 99  ICMS ST VEICULOS                                                            
FA3000760576000041120220812202200000000025841700000000025841700000000000000000000000000000000000000000000081220220 99  ICMS ST VEICULOS                                                            
FA3000760544000041120220812202200000000021670300000000021670300000000000000000000000000000000000000000000081220220 99  ICMS ST VEICULOS                                                            
FA3000584854000041120220812202200000000001226100000000001226100000000000000000000000000000000000000000000081220220 88  ICMS ST PECAS                                                               
FA3000584855000041120220812202200000000000953700000000000953700000000000000000000000000000000000000000000081220220 88  ICMS ST PECAS                                                               
FA3000584856000041120220812202200000000008404800000000008404800000000000000000000000000000000000000000000081220220 88  ICMS ST PECAS                                                               
FA3000584857000041120220812202200000000000119900000000000119900000000000000000000000000000000000000000000081220220 88  ICMS ST PECAS                                                               
FA3000584858000041120220812202200000000000162800000000000162800000000000000000000000000000000000000000000081220220 88  ICMS ST PECAS                                                               
FA3000584859000041120220812202200000000000135200000000000135200000000000000000000000000000000000000000000081220220 88  ICMS ST PECAS                                                               
FA3000584860000041120220812202200000000000478700000000000478700000000000000000000000000000000000000000000081220220 88  ICMS ST PECAS                                                               
FA3000584861000041120220812202200000000002704200000000002704200000000000000000000000000000000000000000000081220220 88  ICMS ST PECAS                                                               
FA3000584862000041120220812202200000000000317500000000000317500000000000000000000000000000000000000000000081220220 88  ICMS ST PECAS                                                               
FA3000584863000041120220812202200000000002461700000000002461700000000000000000000000000000000000000000000081220220 88  ICMS ST PECAS                                                               
FA3000584174000041120220812202200000000002182000000000002182000000000000000000000000000000000000000000000081220220 88  ICMS ST PECAS                                                               
FA3000585607000041120220812202200000000000032800000000000032800000000000000000000000000000000000000000000081220220 88  ICMS ST PECAS                                                               
FA3000585608000041120220812202200000000019951300000000019951300000000000000000000000000000000000000000000081220220 88  ICMS ST PECAS                                                               
FA3000586263000041120220812202200000000001550800000000001550800000000000000000000000000000000000000000000081220220 88  ICMS ST PECAS                                                               
FA3000586264000041120220812202200000000000162500000000000162500000000000000000000000000000000000000000000081220220 88  ICMS ST PECAS                                                               
FA3000582957000041120220812202200000000000114100000000000114100000000000000000000000000000000000000000000081220220 88  ICMS ST PECAS                                                               
FA3000583166000041120220812202200000000000543300000000000543300000000000000000000000000000000000000000000081220220 88  ICMS ST PECAS                                                               
FA3000584102000041120220812202200000000000115400000000000115400000000000000000000000000000000000000000000081220220 88  ICMS ST PECAS                                                               
FA3000584103000041120220812202200000000000320900000000000320900000000000000000000000000000000000000000000081220220 88  ICMS ST PECAS                                                               
FA3000584104000041120220812202200000000000175900000000000175900000000000000000000000000000000000000000000081220220 88  ICMS ST PECAS                                                               
FA3000582794000041120220812202200000000000291000000000000291000000000000000000000000000000000000000000000081220220 88  ICMS ST PECAS                                                               
FA3000761029000071120220812202200000000025841700000000025841700000000000000000000000000000000000000000000081220220 99  ICMS ST VEICULOS                                                            
FA3000761033000071120220812202200000000023977400000000023977400000000000000000000000000000000000000000000081220220 99  ICMS ST VEICULOS                                                            
FA3000760977000071120220812202200000000025632000000000025632000000000000000000000000000000000000000000000081220220 99  ICMS ST VEICULOS                                                            
FA3000760980000071120220812202200000000026016500000000026016500000000000000000000000000000000000000000000081220220 99  ICMS ST VEICULOS                                                            
FA3000389166000071120220812202200000000024000800000000024000800000000000000000000000000000000000000000000081220220 99  ICMS ST VEICULOS                                                            
FA3000761011000071120220812202200000000024000800000000024000800000000000000000000000000000000000000000000081220220 99  ICMS ST VEICULOS                                                            
FA3000761017000071120220812202200000000026016500000000026016500000000000000000000000000000000000000000000081220220 99  ICMS ST VEICULOS                                                            
FA3000761020000071120220812202200000000026016500000000026016500000000000000000000000000000000000000000000081220220 99  ICMS ST VEICULOS                                                            
FA3000761022000071120220812202200000000026016500000000026016500000000000000000000000000000000000000000000081220220 99  ICMS ST VEICULOS                                                            
FA3000761057000071120220812202200000000025841700000000025841700000000000000000000000000000000000000000000081220220 99  ICMS ST VEICULOS                                                            
